:100000000C9438010C9469010C9469010C946901F9
:100010000C9469010C9469010C9469010C946901B8
:100020000C9469010C9469010C9469010C946901A8
:100030000C9469010C9469010C9469010C94690198
:100040000C9469010C94AB130C9469010C94690134
:100050000C9469010C9469010C9469010C94771259
:100060000C9469010C94EB120C94C1120C9469016C
:100070000C9469010C9469010C9469010C94690158
:100080000C947D130C9469010C9469010C94690122
:100090000C9469010C9469010C9469010C94690138
:1000A0000C9469010C9469010C944F130C94690130
:1000B0000C9469010C9469010C9469010C9421134E
:1000C0000C9469010C9469010C9469010C94690108
:1000D0000C9469010C9469010C9469010C946901F8
:1000E0000C9469010C94C4010C94B2010C94C802E4
:1000F0000C94BC010C949E010C9418030C94AE015A
:100100000C94F5020C9497010C945E030C94CA01B4
:100110000C948F010C94B0030C94A8010C94C901A9
:100120000C9404030C9489010C94E31D0C94A40119
:100130000C949B010C94CE010C9426030C94B601F4
:100140000C94C0010C9493010C943914000021000C
:10015000240027002A002D00300033000101000098
:10016000040107010A0100002200250028002B00DD
:100170002E003100340002010000050108010B01CE
:10018000000020002300260029002C002F00320050
:100190000001000003010601090105050505070529
:1001A00008080808020202020A0A080804040404F3
:1001B000010101010101010103030303030303031F
:1001C000040707070C0C0C0C0C0C0C0C02020202AE
:1001D00006060606060606060B0B0B0B0B0B0B0B97
:1001E0000102102020080810204010204080020149
:1001F000020108040201010204081020408080402E
:10020000201008040201800402018040201008042C
:1002100002010804020101020408102040800102CA
:1002200004081020408000000A0B02090C0D0E0883
:1002300007030401000000000000000000000000AF
:1002400000000000000000000000000000000000AE
:10025000000012111000000000000000000000006B
:100260000000000000000000000000003914E31D41
:1002700011241FBECFEFD1E2DEBFCDBF00E00CBF27
:100280001AE0A0E0B2E0EEEBF5E400E00BBF02C044
:1002900007900D92AC32B107D9F72BE0ACE2BAE08F
:1002A00001C01D92AE39B207E1F711E0C7E3D1E01A
:1002B00000E006C021970109802FFE010E949E20C8
:1002C000C633D10780E00807A9F70E948C140C946C
:1002D000CD220C9400008150823108F05AC0E82FE2
:1002E000F0E08827E958FE4F8F4F0C949E2097012D
:1002F0009B0189018F019301C9019E01A401A801FD
:10030000AE01B201B601BC01C001C901C401CA01FC
:10031000CE01809180008F77809380000895809136
:1003200080008F7DF9CF80918000877FF5CF84B5E5
:100330008F7784BD089584B58F7DFBCF8091B00009
:100340008F778093B00008958091B0008F7DF9CFB2
:10035000809190008F778093900008958091900015
:100360008F7DF9CF80919000877FF5CF8091A0009D
:100370008F778093A00008958091A0008F7DF9CFA2
:100380008091A000877FF5CF809120018F778093A7
:1003900020010895809120018F7DF9CF8091200167
:1003A000877FF5CFCF93DF93282F30E0F901EA5D07
:1003B000FD4F8491F901E052FE4FD491F901E656C8
:1003C000FE4FC491CC23A1F081110E946B01EC2F50
:1003D000F0E0EE0FFF1FE058FE4FA591B491EC91B5
:1003E000ED2381E090E009F480E0DF91CF91089562
:1003F00080E090E0FACF1F93CF93DF93282F30E077
:10040000F901EA5DFD4F8491F901E052FE4FD4916C
:10041000F901E656FE4FC491CC23A9F0162F8111A5
:100420000E946B01EC2FF0E0EE0FFF1FEA59FE4F28
:10043000A591B4918FB7F894EC91111108C0D095A3
:10044000DE23DC938FBFDF91CF911F910895DE2BC8
:10045000F8CFCF93DF9390E0FC01E052FE4F249160
:1004600086569E4FFC0184918823C9F090E0880F46
:10047000991FFC01E45BFE4FA591B491FC01EA5980
:10048000FE4FC591D49161110DC09FB7F8948C9126
:10049000209582238C938881282328839FBFDF9116
:1004A000CF910895623051F49FB7F8943C91822F18
:1004B000809583238C93E8812E2BEFCF8FB7F89410
:1004C000EC912E2B2C938FBFEACF3FB7F8948091FD
:1004D000E00A9091E10AA091E20AB091E30A26B500
:1004E000A89B05C02F3F19F00196A11DB11D3FBF6C
:1004F000BA2FA92F982F8827BC01CD01620F711D3B
:10050000811D911D42E0660F771F881F991F4A9534
:10051000D1F708958F929F92AF92BF92CF92DF92C0
:10052000EF92FF924B015C010E9465026B017C011E
:100530000E9465026C197D098E099F09683E73400F
:1005400081059105A8F321E0821A9108A108B1085C
:1005500088EEC80E83E0D81EE11CF11C81149104C2
:10056000A104B10429F7FF90EF90DF90CF90BF90E6
:10057000AF909F908F9008952FB7F8946091DC0A08
:100580007091DD0A8091DE0A9091DF0A2FBF0895F5
:10059000AF92BF92CF92DF92EF92FF920F931F9391
:1005A000CF93DF936C017B018B01040F151FEB01CF
:1005B0005E01AE18BF08C017D10759F06991D60186
:1005C000ED91FC910190F081E02DC6011995892BE8
:1005D00079F7C501DF91CF911F910F91FF90EF90B7
:1005E000DF90CF90BF90AF900895FC01538D448D64
:1005F000252F30E0842F90E0821B930B541710F0CE
:10060000CF96089501970895FC01918D828D9817DA
:1006100061F0A28DAE0FBF2FB11D5D968C91928DB2
:100620009F5F9F73928F90E008958FEF9FEF0895E3
:10063000FC01918D828D981731F0828DE80FF11DAC
:10064000858D90E008958FEF9FEF0895FC01918DC7
:10065000228D892F90E0805C9F4F821B91098F73C0
:100660009927089585EE9AE00E94260321E0892BC0
:1006700009F420E0822F0895FC01A48DA80FB92F62
:10068000B11DA35ABF4F2C91848D90E001968F73BA
:100690009927848FA689B7892C93A089B1898C91D9
:1006A000837080648C93938D848D981306C0028828
:1006B000F389E02D80818F7D80830895EF92FF92F2
:1006C0000F931F93CF93DF93EC0181E0888F9B8D75
:1006D0008C8D98131AC0E889F989808185FF15C02F
:1006E0009FB7F894EE89FF896083E889F989808152
:1006F0008370806480839FBF81E090E0DF91CF9121
:100700001F910F91FF90EF900895F62E0B8D10E042
:100710000F5F1F4F0F731127E02E8C8D8E110CC0B1
:100720000FB607FCFACFE889F989808185FFF5CFFC
:10073000CE010E943C03F1CFEB8DEC0FFD2FF11D9C
:10074000E35AFF4FF0829FB7F8940B8FEA89FB8939
:1007500080818062CFCF682F85EE9AE00C945E0393
:10076000CF93DF93EC01888D8823B9F0AA89BB89E8
:10077000E889F9898C9185FD03C0808186FD0DC0D3
:100780000FB607FCF7CF8C9185FFF2CF808185FFF4
:10079000EDCFCE010E943C03E9CFDF91CF910895C8
:1007A00080E090E0892B29F00E94320381110E94A1
:1007B000000080E090E0892B49F080E090E0892BF8
:1007C00029F00E94000081110E94000080E090E06A
:1007D000892B49F080E090E0892B29F00E940000ED
:1007E00081110E94000080E090E0892B49F080E0B8
:1007F00090E0892B29F00E94000081110C940000E8
:100800000895CF92DF92EF92FF92CF93DF93EC01A6
:10081000603282E07807CCF5653B710514F064EB3B
:1008200070E0898128E830E0281B310987FD339585
:10083000220F331F220F331F6901330FEE08FF0809
:100840008A8128E532E0281B310987FD3395220F84
:10085000331F220F331F032E000C440B550B2C1992
:100860003D094E095F09DB0177FF02C0B0E0A0E05F
:100870000E94411F24EB30E040E050E00E94171F2F
:10088000C20ED31EE41EF51EB601E881E03370F5FA
:10089000298188E890E0821B910927FD9395880FB4
:1008A000991F880F991F681779077CF02A8188E5BE
:1008B00092E0821B910927FD9395880F991F880F5D
:1008C000991F681779070CF4CB010297880F991FBD
:1008D0004FB7F8942E2F30E0F901EE0FFF1FE20F13
:1008E000F31FE15CF54F928381834FBFDF91CF917E
:1008F000FF90EF90DF90CF9008951F93CF93DF93F9
:10090000EC01162F8881803308F04EC061E0812F02
:100910000E9429028881282F30E0F901EE0FFF1F85
:10092000E20FF31FE15CF54F1F736081607C612B68
:10093000608319821A822CE0622F0E949220829F8B
:10094000B001112430E020E0AB01420F531FFA0147
:10095000EE0FFF1FE40FF51FE15CF54F908196FD50
:1009600016C02F5F3F4F2C30310571F7813009F5EC
:100970001092800082E08093810010928500109296
:100980008400B19A80916F00826080936F00E8814B
:100990008E2F90E0FC01EE0FFF1FE80FF91FE15CC6
:1009A000F54F8081806480838881DF91CF911F9192
:1009B0000895823061F4109290008093910010921B
:1009C00095001092940088BB80937100E0CF833033
:1009D00069F41092A00082E08093A1001092A5001B
:1009E0001092A40089BB80937200D1CF8111CFCF28
:1009F0001092200182E08093210110922501109233
:100A000024018ABB80937300C2CFAF92BF92CF9272
:100A1000DF92EF92FF920F931F93CF93DF936B01BF
:100A20007A01EC01C65CD54F28813CE0389F8001FB
:100A3000399F100D1124A0903E0AB12C27FF1FC032
:100A4000FB011182108288818F5F888388819801E1
:100A5000280F311D87FD3A95F6012A153B051CF438
:100A600088818C30C4F180819181049680349C49C6
:100A700008F473C0F60180819181049670C088816A
:100A80009801280F311D87FD3A952A153B05DCF6A4
:100A90008881A801480F511D87FD5A95FA01EE0F74
:100AA000FF1FE40FF51FE15CF54F808186FFCBCF80
:100AB0008881F801E80FF11D87FDFA95CF01EE0F4F
:100AC000FF1FE80FF91FE15CF54F808160E08F7335
:100AD0000E94FB01B8CF808191812881A801420F3B
:100AE000511D27FD5A959A01FA01EE0FFF1FE20FE3
:100AF000F31FE15CF54F21813281820F931FF701D3
:100B00009183808388819801280F311D87FD3A9554
:100B1000F901EE0FFF1FE20FF31FE15CF54F80813B
:100B200086FF22C08881080F111D87FD1A95F801E4
:100B3000EE0FFF1FE00FF11FE15CF54F808161E0D8
:100B40008F73DF91CF911F910F91FF90EF90DF9006
:100B5000CF90BF90AF900C94FB0180E49CE9F7012B
:100B6000918380838FEF8883DF91CF911F910F91C5
:100B7000FF90EF90DF90CF90BF90AF900895EF92ED
:100B8000FF920F931F93CF93DF93C5EED2E01092A5
:100B9000520303E712E01092E00281E0E82E82E0C7
:100BA000F82E10926E0288E3EAE1F3E0DF01982F5D
:100BB0001D929A95E9F7E8EAF2E0DF01982F1D927D
:100BC0009A95E9F7E6E3F2E0DF011D928A95E9F7ED
:100BD0000E94BC0268AF79AF8AAF9BAFF80160AFEB
:100BE00071AF82AF93AFD701D8966D937D938D93FC
:100BF0009C93DB9719A211A291961C9291971AA22D
:100C000012A292961C9292971BA213A293961C92E8
:100C1000939762EB70E053968D919C910E94010432
:100C200070E060E0F701858996890E94010462EB1B
:100C300070E0D80153968D919C910E94010470E060
:100C400060E0F801858996890E94010462EB70E0FA
:100C50008B899C890E9401046FEA70E08D899E89CE
:100C6000DF91CF911F910F91FF90EF900C940104B1
:100C7000CF93DF93EC0161E08C810E94290260E058
:100C80008D810E94290260E08C810E94FB0161E05D
:100C90008A850E94290260E08B850E94290261E01A
:100CA0008C850E94290260E08D850E94290261E006
:100CB0008E850E94290260E08F850E94290260E0F3
:100CC0008A850E94FB0160E08C850E94FB0160E048
:100CD0008E850E94FB01688570E08B899C890E944B
:100CE0007D04698570E08D899E89DF91CF910C9498
:100CF0007D04CF93DF93EC01FC01E359FF4F108299
:100D00001AA219A21BA262EB70E08B899C890E9437
:100D100001048D899E8960E0C55ED24009F46FEAC6
:100D200070E0DF91CF910C940104CF92DF92EF92AB
:100D3000FF920F931F93CF93DF93EC01862F0E94B6
:100D4000D2018C01FF24F394892B09F0F12C8EA59C
:100D5000F81639F0FEA60E94BC026FA778AB89ABEB
:100D60009AAB8DA5F81659F10E94BC02CFA4D8A861
:100D7000E9A8FAA8DC01CB018C199D09AE09BF09CD
:100D8000012B39F0803D9740A105B105C0F01DA6AB
:100D900013C0843F9140A105B10588F081E08DA783
:100DA0002091D70A3091D80AC217D30711F4809343
:100DB000D60ACE010E94790681E080930002DF917D
:100DC000CF911F910F91FF90EF90DF90CF900895FA
:100DD0000F931F93CF93DF93FC01E359FF4F2081C3
:100DE0002223B1F0EC0181509240B9F40E94BC0280
:100DF000FE01E259FF4F0081118122813381601B86
:100E0000710B820B930B683E73408105910570F462
:100E1000DF91CF911F910F91089582E0C337D807DA
:100E200079F081E30E94D201892B01F7CE010E9463
:100E300079060E94BC0268AF79AF8AAF9BAFE8CF5A
:100E400080E3F0CFFC0184A5811109C095A5911123
:100E500007C0E359FF4F808191E08927089580E022
:100E600008958091DA0A882379F09091D60A911139
:100E70000AC02091D70A3091D80A2115310521F0F6
:100E8000C9010C94220780E008950F931F93CF931C
:100E900081E092E00E94E80683E792E00E94E80683
:100EA00085EE92E00E94E80680912E02882319F0D8
:100EB00081E08093000210922E0210922F020E9475
:100EC000BC0260933002709331028093320290939F
:100ED000330260E383E792E00E94950661E385EECA
:100EE00092E00E94950682E30E94D201C1E0892B24
:100EF00009F0C0E08091310A8C1761F0C093310A8B
:100F00000E94BC0260932D0A70932E0A80932F0AD0
:100F10009093300A80912C0A8C17C1F00E94BC0279
:100F200000912D0A10912E0A20912F0A3091300A3B
:100F3000601B710B820B930B683E7340810591051A
:100F400028F0C0932C0A81E080930002CF911F917A
:100F50000F910895FC0101900020E9F73197AF014E
:100F6000481B590BBC0185EE9AE00C94C8028F9285
:100F70009F92AF92BF920F931F93CF93DF93CDB702
:100F8000DEB7A1970FB6F894DEBF0FBECDBF19A292
:100F9000423008F44AE08E010F5D1F4F842E912CE1
:100FA000B12CA12CA50194010E94491FE62FB90183
:100FB000CA01EA30F4F4E05DD801EE938D01232BF1
:100FC000242B252B79F790E080E0109719F0CD01C4
:100FD0000E94AA07A1960FB6F894DEBF0FBECDBF40
:100FE000DF91CF911F910F91BF90AF909F908F9005
:100FF0000895E95CE1CFCF92DF92EF92FF92CF9319
:10100000DF9397FF19C06B017C018DE20E94AB0357
:10101000EC0166277727CB016C197D098E099F09A2
:101020004AE00E94B7078C0F9D1FDF91CF91FF9080
:10103000EF90DF90CF9008954AE0DF91CF91FF903D
:10104000EF90DF90CF900C94B707BC01990F880BFD
:10105000990B0C94FB07009711F00C94AA0790E0F1
:1010600080E00895CF93DF93D0E0C0E0009719F0BF
:101070000E94AA07EC0185E793E00E94AA078C0F63
:101080009D1FDF91CF910895CF93DF93EC01FC0179
:10109000F59688E3DF011D928A95E9F70E94BC026C
:1010A00068AF79AF8AAF9BAF88E793E00E942B08C7
:1010B000888199810E942B0882E893E0DF91CF918B
:1010C0000C943208CF93DF93EC018CEF99E00E94EF
:1010D0002B08888199810E942B0880EA93E00E9466
:1010E0002B088CA5811118C08CA98823A9F08091A8
:1010F000D50A811111C08BE598E00E942B088AEA7D
:1011000093E00E942B088DA5811109C080EC93E02B
:10111000DF91CF910C9432088DE096E0EECF8BE911
:1011200093E0F6CF81E092E00E94620883E792E0CC
:101130000E94620885EE92E00E94620880912C0A6B
:10114000811107C08CEB93E00E94320810920002DC
:10115000089580EB93E0F8CFCF93DF93EC011AA2D0
:1011600019A21BA262EB70E08B899C890E9401048A
:1011700022E0C130D20739F581E0FE01E359FF4F8B
:1011800080830E94BC02FE01E259FF4F608371839D
:10119000828393838D899E896AEA22E0C53ED207C5
:1011A00009F464E670E00E94010486EC93E00E947A
:1011B0002B08888199810E942B088DEC93E0DF91A8
:1011C000CF910C9432088DA5811109C082E0C337FC
:1011D000D80751F081E30E94D201892B69F6CE0134
:1011E000DF91CF910C94790680E3F5CFEF92FF92D7
:1011F0001F93CF93DF93DC019C962C91211136C075
:101200007B01EC0111E01CA7FC01F59688E3DF01EE
:101210001D928A95E9F70E94BC0268AF79AF8AAF48
:101220009BAF8091D70A9091D80AC817D90711F4BB
:101230001093D60ACE010E94790689ED93E00E94B0
:101240002B08888199810E942B088BE30E94AB03B5
:10125000C7010E943208CE010E946208CE01DF91D0
:10126000CF911F91FF90EF900C94AC08DF91CF913C
:101270001F91FF90EF900895CF93DF93682F70E058
:1012800090E080E04AE00E94B707EC0185E793E038
:101290000E94AA078C0F9D1FDF91CF910895CF93D5
:1012A000DF930E942508EC0185E793E00E94AA07DE
:1012B0008C0F9D1FDF91CF9108954F925F926F9297
:1012C0007F928F929F92AF92BF92CF92DF92EF92D6
:1012D000FF920F931F93CF936B017C01742EAC018F
:1012E0009B010E948D20882399F080EE93E0CF919E
:1012F0001F910F91FF90EF90DF90CF90BF90AF9034
:101300009F908F907F906F905F904F900C94AA0762
:1013100046015701E894B7F82FEF3FEF4FE75FE73B
:10132000C501B4010E948D2081110DC02FEF3FEF48
:101330004FE75FE7C501B4010E94F01D18161CF4C9
:1013400084EE93E0D4CF2FEF3FEF4FE75FE4C70188
:10135000B6010E94882018161CF488EE93E0C7CFCF
:101360002FEF3FEF4FE75FECC701B6010E94F01D82
:1013700087FDF3CF20E030E0A901C701B6010E944C
:10138000F01D10E000E087FF08C08DE20E94AB0373
:101390008C01F7FAF094F7F8F094C0E060E070E0A8
:1013A00080E09FE37C1641F020E030E040E251E431
:1013B0000E94E71FCF5FF6CFA70196010E947B1F17
:1013C0002B013C010E9459204B015C014AE00E9424
:1013D000B7077C01E00EF11ECC23B1F1C501B401C9
:1013E0000E94F51D9B01AC01C301B2010E947A1F4E
:1013F0004B015C018EE20E94AB03E80EF91EC15066
:1014000018F120E030E040E251E4C501B4010E944F
:10141000561E2B013C010E9459204B01B12CA12CDE
:101420004AE0C501B4010E94B707E80EF91EC501E4
:10143000B4010E94F51D9B01AC01C301B2010E94E1
:101440007A1F4B015C01DBCFC701CF911F910F9138
:10145000FF90EF90DF90CF90BF90AF909F908F90D4
:101460007F906F905F904F900895FC0124813581AB
:10147000232B39F421E0FB018081882349F020E00F
:1014800007C0808191810E94BD2221E0892BB9F79C
:10149000822F0895FC0180819181009711F00C94B6
:1014A000422108950F931F93CF93DF93EC0188811E
:1014B0009981009759F02A813B812617370730F030
:1014C00081E0DF91CF911F910F9108958B016F5FA4
:1014D0007F4F0E94CB21009759F0998388831B830B
:1014E0000A832C813D81232B59F7FC011082E8CF20
:1014F00080E0E7CFEF92FF920F931F93CF93DF939C
:10150000EC017B018A01BA010E94520A28813981CB
:10151000811114C02115310519F0C9010E94422121
:10152000198218821D821C821B821A82CE01DF91D1
:10153000CF911F910F91FF90EF9008951D830C8321
:10154000B701C9010E94C622F1CFCF92DF92EF927C
:10155000FF920F931F93CF93DF93D82FC62F0E9434
:1015600045070E94BC020091320A1091330A209173
:10157000340A3091350ADC01CB01801B910BA20BA0
:10158000B30B8C339105A105B10570F40CE310E0A9
:1015900020E030E068017901C81AD90AEA0AFB0A9A
:1015A000C701B6010E948A020E94BC026093320AFF
:1015B0007093330A8093340A9093350A60E08D2F3C
:1015C0000E94FB0183E090E00197F1F761E08D2F2D
:1015D0000E94FB0183E290E00197F1F760E08D2F1C
:1015E0000E94FB01D0E0FE01E052FE4F6491FE013B
:1015F000E656FE4FE491F0E0EE0FFF1FE058FE4F7D
:101600008591949100E21EE420E030E0462F0E9494
:10161000D9136115710581059105B1F06F5F7F4F99
:101620008F4F9F4F9F70611571058105910561F086
:101630002AE330E040E050E00E94491FC9012150F8
:101640003109283C310510F08FEF9FEFDF91CF91EA
:101650001F910F91FF90EF90DF90CF9008959F9290
:10166000AF92BF92CF92DF92EF92FF920F931F93B0
:10167000CF93DF93A82E962E83E0B82ED0E0C0E063
:1016800008EC10E0C12CD12C76010E94CE0D809187
:10169000E40A811124C0692D8A2D0E94A50A18161A
:1016A0001906B4F4AC01092E000C660B770BC40EBE
:1016B000D51EE61EF71E801791070CF48C01C81783
:1016C000D9070CF4EC01CE01801B910B039754F069
:1016D0008CEE93E00E942B088A2D0E943C098FEF2C
:1016E0009FEF0CC0BA94B110D0CFC701B60123E070
:1016F00030E040E050E00E94171FC901DF91CF9118
:101700001F910F91FF90EF90DF90CF90BF90AF901F
:101710009F900895CF92DF92EF92FF92CF93DF9345
:1017200000D01F92CDB7DEB71092E40A81E080931B
:10173000D50A1092DA0A1092D90A1092D40A88E3D4
:10174000EAE1F3E0DF01282F1D922A95E9F7E8EAA4
:10175000F2E0DF01282F1D922A95E9F7E6E3F2E097
:10176000DF011D928A95E9F70E9492088DE094E0CE
:101770000E94320881E092E00E94AC0883E792E088
:101780000E94AC0885EE92E00E94AC080E94BC0268
:101790006B017C010E94BC026C197D098E099F09B6
:1017A000643A76408105910568F40E94CE0D8091DF
:1017B000E40A81110BC065E070E080E090E00E94D7
:1017C0008A02E8CF8091E40A882379F01092D50A42
:1017D0000E94BF050F900F900F900F90DF91CF9157
:1017E000FF90EF90DF90CF90089560910602809176
:1017F00005020E942F0B90931902809318026091AA
:101800000C0280910B020E942F0B90931D0280937B
:101810001C0260910E0280910D020E942F0B90938A
:101820001F0280931E026091100280910F020E949D
:101830002F0B909321028093200260917802809177
:1018400077020E942F0B90938B0280938A02609103
:101850007E0280917D020E942F0B90938F028093D5
:101860008E026091800280917F020E942F0B9093E4
:1018700091028093900260918202809181020E9485
:101880002F0B90939302809392026091EA028091D1
:10189000E9020E942F0B9093FD028093FC0260915D
:1018A000EC028091EB020E942F0B9093FF02809339
:1018B000FE02BE016F5F7F4F85E00E94151180938D
:1018C000D40A882361F049815A816B817C814093DD
:1018D000D00A5093D10A6093D20A7093D30A9091A0
:1018E000E40A911173CF2091180230911902121657
:1018F00013060CF04AC120911C0230911D021216F1
:1019000013060CF042C120911E0230911F0291E09B
:101910001216130644F4209120023091210212166F
:1019200013060CF490E090932D0220918A023091DE
:101930008B02121613060CF02AC120918E023091F0
:101940008F02121613060CF022C1209190023091E2
:101950009102121613060CF01AC121E04091920276
:1019600050919302141615060CF420E020939F0268
:101970004091FC025091FD02141615064CF4409162
:10198000FE025091FF0231E08327141615060CF079
:1019900081E08093110331E0492F432740933502C2
:1019A000422F43274093A70283278093190338E3EC
:1019B000EAE1F3E0DF01432F1D924A95E9F7E8EAF7
:1019C000F2E0DF01432F1D924A95E9F7E6E3F2E0EA
:1019D000DF011D923A95E9F7109218031092A602C2
:1019E00010923402992309F4D4C02111982F9093B6
:1019F000D90A1092D50A0E9445070E949208809148
:101A00002D02882321F081E092E00E94AC088091B1
:101A10009F02882321F083E792E00E94AC08809126
:101A20001103882321F085EE92E00E94AC0888E241
:101A300094E00E942B0886E394E00E942B088EE33A
:101A400094E00E942B0886E394E00E942B0886E431
:101A500094E00E942B0886E394E00E9432088EE412
:101A600094E00E942B0880911802909119020E9424
:101A70004F098CE694E00E942B0880911C02909103
:101A80001D020E944F0980E994E00E942B0880917A
:101A90001E0290911F020E944F0984EB94E00E9465
:101AA0002B0880912002909121020E944F0985ED20
:101AB00094E00E942B0880918A0290918B020E94F0
:101AC0004F0981EF94E00E942B0880918E02909143
:101AD0008F020E944F0983E195E00E942B088091BC
:101AE0009002909191020E944F0985E395E00E9437
:101AF0002B0880919202909193020E944F0984E5F5
:101B000095E00E942B088091FC029091FD020E94BA
:101B10004F0984E795E00E942B088091FE02909186
:101B2000FF020E944F098091D40A882391F087E92F
:101B300095E00E942B086091D00A7091D10A8091A3
:101B4000D20A9091D30A0E94FB0785E793E00E9496
:101B5000AA078091D40A811104C083EB95E00E940A
:101B600032088091D90A8823B1F081E08093DA0AA3
:101B70008FEC95E00E9432088EED95E00E943208CD
:101B80008EEE95E00E94320825CE91E0CCCE21E089
:101B9000EDCE91E02CCF8BEF95E0F4CFAF92BF92DA
:101BA000CF92DF92EF92FF920F931F93CF93DF9329
:101BB000CDB7DEB760970FB6F894DEBF0FBECDBFCE
:101BC0000E9445078091D50A811111C080910002C1
:101BD000882309F46EC00E94BC026093360A709399
:101BE000370A8093380A9093390A0E94920885EE4A
:101BF0009AE00E942603181619060CF066C285EEBC
:101C00009AE00E9404034091860B5091870B8A3022
:101C100019F08D3009F034C24115510541F31A8293
:101C200019821C821B821E821D826091820B709120
:101C3000830B6115710521F0CE0101960E947A0A8D
:101C400050E040E067E773E082E89BE00E947A0A98
:101C500018861F821A8619861C861B8669817A81DE
:101C60006115710531F04D815E81CE0107960E94AC
:101C70007A0ACF80D884C114D10431F00B851C8539
:101C800076010115110559F50F811885011511050A
:101C900009F45BC0F80181918F01882309F455C0D4
:101CA000082E000C990B0E94AC22F801319780831A
:101CB000F1CF0E94BC020091360A1091370A2091A0
:101CC000380A3091390A601B710B820B930B603D0F
:101CD00077408105910508F07ECF89CF75015701C6
:101CE0008FEFA81AB80AF7018081082E000C990B13
:101CF0000E94E71D892B91F7015011090C0D1D1D44
:101D0000F8018081082E000C990B0E94E71D892B99
:101D100031F00E151F0518F001501109F1CFA8017F
:101D20004F5F5F4F4E195F095C874B87CE14DF040E
:101D300020F4B701C6010E94B422EF81F8858B859B
:101D40009C85E80FF91F10829FCF0091D50A0111E1
:101D500006C08091D70A9091D80A892BE9F06EE8E5
:101D600079E0CE0107960E94350A811110C06AE61B
:101D700076E0CE0107960E94350A811108C064E71B
:101D800076E0CE0107960E94350A882329F08AE77B
:101D900096E00E9432088EC061E976E0CE01079697
:101DA0000E94350A182F811123C06AE976E0CE011E
:101DB00007960E94350A81111BC064E776E0CE01C8
:101DC00007960E94350A811120C06EE879E0CE01A5
:101DD00007960E94350A882309F47BC08091D90AAE
:101DE0008093DA0A882309F471C08EED95E0D1CF93
:101DF00081E0111101C080E08093CF0A84E196E078
:101E00001111C7CF8DE196E0C4CFBE01635F7F4F54
:101E100083E00E941511882309F44CC084EA96E0FF
:101E20000E942B086D857E858F8598890E94FB070F
:101E300085EB96E00E942B088091D40A882309F450
:101E400042C087E296E00E942B088091D40A882342
:101E500069F182EC96E00E942B086091D00A7091A3
:101E6000D10A8091D20A9091D30A0E94FB078DEC8F
:101E700096E00E942B086D857E858F85988900915C
:101E8000D00A1091D10A2091D20A3091D30A601B56
:101E9000710B820B930B0E94F71D20E030E042EDA6
:101EA00053E40E94E71F42E00E945D0985E793E04A
:101EB0000E94AA07CE0107960E944A0ACE01019607
:101EC0000E944A0A94CE8BE296E0BDCF8EE296E065
:101ED00060CF6CED76E0CE0107960E94350A811145
:101EE00013C061EE76E0CE0107960E94350A81119B
:101EF0000BC06AE676E0CE0107960E94350A882379
:101F0000D1F00E948A0BD6CF002319F081E0809394
:101F1000E40A1092DA0A0E94BF056CED76E0CE0169
:101F200007960E94350A882319F083E496E031CFA2
:101F300083E596E02ECF67EE76E0CE0107960E940D
:101F4000350A882309F499C00E9492088EEE96E023
:101F50000E942B088091D90A882309F482C08091BD
:101F6000DA0A882309F480C08CE596E00E942B08E9
:101F700086EF96E00E942B0880911802909119023A
:101F80000E94250883E097E00E942B0880911C02A4
:101F900090911D020E9425088CE20E94AB03809163
:101FA0001E0290911F020E9425088CE20E94AB0342
:101FB00080912002909121020E94250885E197E0FE
:101FC0000E942B0880918A0290918B020E94250822
:101FD00080E297E00E942B0880918E0290918F0200
:101FE0000E9425088CE20E94AB03809190029091A0
:101FF00091020E9425088CE20E94AB03809192021C
:10200000909193020E94250880E397E00E942B089C
:102010008091FC029091FD020E9425088FE397E0D9
:102020000E942B088091FE029091FF020E942508D9
:1020300081E597E00E942B08809183020E94D201E3
:10204000892BA9F48AE998E00E942B0880E697E0A2
:102050000E942B088091D40A882361F084E398E0E1
:1020600098CE84E396E082CF84E398E07FCF80EC43
:1020700093E0EACF84E696E08CCE8EE697E089CEB8
:102080004832510508F0B3CD89831A828A010F5F67
:102090001F4FB80182E89BE00E94520A882309F48E
:1020A000A6CD2091820B3091830B8091860B90916D
:1020B000870BBE016F5F7F4F820F931F0E94C62266
:1020C0001093870B0093860B92CD60960FB6F89411
:1020D000DEBF0FBECDBFDF91CF911F910F91FF905B
:1020E000EF90DF90CF90BF90AF900895CF92DF92A6
:1020F000EF92FF920F931F93CF93DF932091D50A16
:10210000222321F02091E40A21117BC0EC010E94DE
:10211000BC026B017C018091F6020E94D201019702
:1021200091F40E94BC026C197D098E099F09683EDA
:1021300073408105910538F48091D50A811110C052
:102140000E9445070FC08091F6020E94D20118E15B
:10215000C12CD12C7601892BF1F089EA97E04FC090
:102160000E94CE0D8091D50A882321F08091E40A47
:102170008111F3CF8091D70A9091D80A892B21F051
:102180000E943107882349F361E070E080E090E02D
:102190000E948A02C0CF0FB7F89461E08091F702E5
:1021A0000E94FB01CC0CDD1CEE1CFF1C8091F60292
:1021B0000E94D201092E000CAA0BBB0BC82AD92AF7
:1021C000EA2AFB2A60E08091F7020E94FB010FBF20
:1021D000115009F71FB7F89461E08091F7020E944F
:1021E000FB0160E08091F7020E94FB011FBF80911C
:1021F000F6020E94D201019731F084E897E00E9434
:10220000320880E009C0E7FE02C0FF24FA94C882C9
:10221000D982EA82FB8281E0DF91CF911F910F91F9
:10222000FF90EF90DF90CF9008958F929F92AF92A2
:10223000BF92DF92EF92FF920F931F93CF93DF93A2
:1022400000D01F92CDB7DEB7182F7B01812C912CC7
:10225000540100E0CE0101960E947610D82E88230A
:10226000C1F089819A81AB81BC81880E991EAA1E1A
:10227000BB1E0F5F1013EECF212F30E050E040E087
:10228000C501B4010E94171FF701208331834283E7
:1022900053838D2D0F900F900F900F90DF91CF9162
:1022A0001F910F91FF90EF90DF90BF90AF909F90A4
:1022B0008F900895CF92DF92EF92FF92CF93DF93AA
:1022C00000D01F92CDB7DEB7BE016F5F7F4F0E9477
:1022D0001511882389F169817A818B819C81C09055
:1022E000D00AD090D10AE090D20AF090D30A6C19AB
:1022F0007D098E099F090E94F71D20E030E042ED24
:1023000053E40E94E71F6B017C0120E030E0A9014B
:102310000E94882018161CF0C12CD12C7601C70110
:10232000B6010F900F900F900F90DF91CF91FF901B
:10233000EF90DF90CF900895C12CD12C80ECE82E47
:102340008FE7F82EECCFCF92DF92EF92FF926B01E6
:102350007C010E94BC026C197D098E099F09683BB3
:102360007B408105910568F40E94CE0D0E943107E3
:10237000882369F06AE070E080E090E00E948A02C1
:10238000E8CFFF90EF90DF90CF900C94310780E082
:10239000FF90EF90DF90CF9008958F929F92AF9231
:1023A000BF92CF92DF92EF92FF924B015C010E94AD
:1023B000BC026B017C010E94BC026C197D098E0974
:1023C0009F09681579058A059B0568F40E94CE0D62
:1023D0000E943107882389F065E070E080E090E09A
:1023E0000E948A02E8CFFF90EF90DF90CF90BF90DD
:1023F000AF909F908F900C94310780E0FF90EF900A
:10240000DF90CF90BF90AF909F908F900895AF9244
:10241000BF92CF92DF92EF92FF920F931F93CF93D1
:10242000DF936C01EB01B42EA22E780189EC97E0CA
:102430000E942B08F601808191810E942B0881ED7A
:1024400097E00E942B08CE010E942B0889ED97E0AF
:102450000E942B08C8010E94250884EE97E00E9484
:102460002B08C0E010E0D0E06A2D8B2D0E94A50A59
:102470006C01CC2319F08CE20E94AB03C6010E94D0
:1024800025081C141D0454F41E141F043CF4C70139
:102490008C199D098330910514F1DF5FCF5FC33044
:1024A00019F7D23008F5C1E0D0E0123010F0D0E0DA
:1024B000C0E0D195C195D10982EF97E00E942B0829
:1024C000CE010E944F09CE01DF91CF911F910F9154
:1024D000FF90EF90DF90CF90BF90AF90089502965D
:1024E0000597E0F61F5FDACFC1E0D0E0E5CF1F929D
:1024F0000F920FB60F9211242F933F938F939F93B8
:10250000AF93BF938091DC0A9091DD0AA091DE0A1F
:10251000B091DF0A3091DB0A23E0230F2D3758F505
:102520000196A11DB11D2093DB0A8093DC0A9093D4
:10253000DD0AA093DE0AB093DF0A8091E00A909151
:10254000E10AA091E20AB091E30A0196A11DB11D32
:102550008093E00A9093E10AA093E20AB093E30A21
:10256000BF91AF919F918F913F912F910F900FBE8F
:102570000F901F90189526E8230F0296A11DB11DFC
:10258000D2CF1F920F920FB60F9211240BB60F925B
:102590002F933F934F935F936F937F938F939F936B
:1025A000AF93BF93EF93FF9385EE9AE00E943C03B5
:1025B000FF91EF91BF91AF919F918F917F916F911B
:1025C0005F914F913F912F910F900BBE0F900FBED7
:1025D0000F901F9018951F920F920FB60F92112413
:1025E0000BB60F922F938F939F93EF93FF93E091EE
:1025F000F50AF091F60A8081E091FB0AF091FC0A5D
:1026000082FD1DC090818091FE0A8F5F8F732091A3
:10261000FF0A821741F0E091FE0AF0E0EB51F54F1E
:10262000958F8093FE0AFF91EF919F918F912F914B
:102630000F900BBE0F900FBE0F901F9018958081CA
:10264000F2CF1F920F920FB60F9211240BB60F927A
:102650002F933F934F935F936F937F938F939F93AA
:10266000AF93BF93EF93FF9348E251E064E271E0D0
:1026700090E080E00E940505FF91EF91BF91AF913E
:102680009F918F917F916F915F914F913F912F918A
:102690000F900BBE0F900FBE0F901F9018951F92BA
:1026A0000F920FB60F9211240BB60F922F933F93F8
:1026B0004F935F936F937F938F939F93AF93BF934A
:1026C000EF93FF9348EA50E064EA70E083E090E023
:1026D0000E940505FF91EF91BF91AF919F918F915E
:1026E0007F916F915F914F913F912F910F900BBE12
:1026F0000F900FBE0F901F9018951F920F920FB65C
:102700000F9211240BB60F922F933F934F935F9329
:102710006F937F938F939F93AF93BF93EF93FF93A9
:1027200048E950E064E970E082E090E00E9405052D
:10273000FF91EF91BF91AF919F918F917F916F9199
:102740005F914F913F912F910F900BBE0F900FBE55
:102750000F901F9018951F920F920FB60F92112491
:102760000BB60F922F933F934F935F936F937F938B
:102770008F939F93AF93BF93EF93FF9348E850E0FD
:1027800064E870E081E090E00E940505FF91EF9120
:10279000BF91AF919F918F917F916F915F914F9179
:1027A0003F912F910F900BBE0F900FBE0F901F9077
:1027B0001895CF92DF92EF92FF920F931F93E82F1D
:1027C000F92F05C0015011092109310961F19081EA
:1027D00096239417B9F305C0015011092109310955
:1027E00011F1908196239413F7CFC12CD12CE12CB9
:1027F000F12C0AC08FEFC81AD80AE80AF80A0C159B
:102800001D052E053F0579F080818623841791F3FD
:102810006C2D7D2D8E2D9F2D1F910F91FF90EF9090
:10282000DF90CF90089560E070E080E090E01F912D
:102830000F91FF90EF90DF90CF900895FC01909161
:102840003E0A903398F481E0890F80933E0A90838A
:10285000892F90E0FC01EE0FFF1FE80FF91FE15CEC
:10286000F54F88EB9BE09283818308958FEF8083FF
:102870000895E5EEFAE01382128288EE93E0A0E07C
:10288000B0E084839583A683B78387E693E0918342
:10289000808385EC90E09587848784EC90E097872F
:1028A000868780EC90E0918B808B81EC90E0938B1D
:1028B000828B82EC90E0958B848B86EC90E0978BFA
:1028C000868B118E128E138E148E87E99BE00E94E8
:1028D0001E1484E99BE00E941E1481E99BE00E9483
:1028E0001E148EE89BE00E941E148BE89BE00E9461
:1028F0001E1488E89BE00E941E14E2E8FBE01182AF
:102900001082138212821582148250E040E067E741
:1029100073E0CF010C947A0ACF93DF93CDB7DEB783
:1029200062970FB6F894DEBF0FBECDBF789484B522
:10293000826084BD84B5816084BD85B5826085BDBB
:1029400085B5816085BD80916E00816080936E0049
:10295000109281008091810082608093810080913B
:1029600081008160809381008091800081608093EC
:1029700080008091B10084608093B1008091B000AC
:1029800081608093B000809191008260809391007B
:10299000809191008160809391008091900081608E
:1029A000809390008091A10082608093A10080912B
:1029B000A10081608093A1008091A000816080933C
:1029C000A0008091210182608093210180912101EA
:1029D000816080932101809120018160809320019A
:1029E00080917A00846080937A0080917A0082607E
:1029F00080937A0080917A00816080937A00809140
:102A00007A00806880937A001092C100E091F50A04
:102A1000F091F60A82E08083E091F10AF091F20AE7
:102A20001082E091F30AF091F40A80E18083109221
:102A3000FD0AE091F90AF091FA0A86E08083E091BC
:102A4000F70AF091F80A808180618083E091F70AAB
:102A5000F091F80A808188608083E091F70AF09114
:102A6000F80A808180688083E091F70AF091F80A83
:102A700080818F7D808362E08FE20E94290262E084
:102A800080E30E94290262E081E30E94290262E061
:102A900082E30E94290281E092E00E94380683E7E7
:102AA00092E00E94380662E0809183020E9429022F
:102AB00061E08091E9020E94290260E08091EA02CF
:102AC0000E94290261E08091EB020E94290260E0ED
:102AD0008091EC020E94290260E08091E9020E944C
:102AE000FB0160E08091EB020E94FB0160E08091BD
:102AF000F6020E94290261E08091F7020E942902F9
:102B000060E08091F7020E94FB016091ED0270E0AD
:102B10008091F8029091F9020E947D046091EE028A
:102B200070E08091FA029091FB020E947D040E9465
:102B30008A0B8091D90A882321F08CE198E00E94C9
:102B40003208F3E04F2E512C612C712C0E94CE0DD7
:102B50008091DA0A882321F08091D90A811109C075
:102B600064E170E080E090E00E948A020E94D0035D
:102B7000EDCF86E0EDE5F3E0DE01119601900D92D8
:102B80008A95E1F79E012F5F3F4F398B288B33E009
:102B90003F878091DA0A882309F450C0A889B9894F
:102BA000ED90FD90B98BA88BF701E359FF4F808121
:102BB000811121C0F70184A58823E9F084A9882325
:102BC000D1F08091D50A811116C08091D70A9091D9
:102BD000D80A892B81F485A58823A9F188E3F59685
:102BE000DF011D928A95E9F70E94BC02F70160AFF0
:102BF00071AF82AF93AFC7010E9422078823C9F04B
:102C0000D70115966C91159714968C910E94A50A80
:102C10008C01181619060CF470C2F70111A283A9D1
:102C20008F5F83AB833028F06EE578E0C7010E94A8
:102C3000F608FF85F150FF87F111ABCF68E270E035
:102C400080E090E091CF85A9811124C00E94BC0250
:102C5000F70100AD11AD22AD33AD601B710B820BDE
:102C6000930B683E73408105910528F2E1E0D7019E
:102C7000D596EC93C7010E94790688E793E00E94FD
:102C80002B08D7018D919C910E942B088AE398E034
:102C90000E943208E2E0DE2EB5EEEB16B2E0FB0653
:102CA00011F074E0D72EF70187A9833008F0CAC06D
:102CB000F5EEEF16F2E0FF0639F580911B03813047
:102CC00019F58091EB026091EC020091FE021091E7
:102CD000FF020E94A50AF70125A5211111C01816AF
:102CE000190674F4101611065CF49C01201B310BBC
:102CF00037FF03C03195219531092330310594F117
:102D0000C7010E94440877CFD701D6969C91D697E9
:102D1000913051F41A968C911A971B966C911B97CF
:102D20005B960D911C91D5CF923031F4F7018485DB
:102D30006585058D168DCDCF14968C9114971596BB
:102D40006C91159757960D911C915897933009F6F1
:102D50001E968C911E971F966C911F975F960D91F2
:102D60001C91B7CFD701D6961C91D697D7960C91C8
:102D7000212F30E0A901440F551F01110DC0B701EB
:102D8000640F751FFB01E85AFF4F91838083605BDE
:102D90007F4FFB0191838083F701E40FF51FE05B18
:102DA000FF4F60817181861797070CF4BC01F70112
:102DB000E40FF51FDF01A05BBF4F6D937C93E85AD2
:102DC000FF4F0190F081E02DE817F9070CF4FC01AA
:102DD0004E0D5F1DDA01A85ABF4FED93FC93E61B21
:102DE000F70B33970CF08CCFF901EE0FFF1FEE0FAE
:102DF000FF1FEE0DFF1DE05CFF4F092E000CAA0B1C
:102E0000BB0B4081518162817381840F951FA61F86
:102E1000B71F80839183A283B3831F5F1D1569F061
:102E2000D701D6961C930E94BC02D701DC966D9305
:102E30007D938D939C93DF97DECEF70116AA0F5FEB
:102E400007ABF1CFB5EEEB16B2E0FB0609F0CEC052
:102E500080914503833008F0C9C08091D40A88234B
:102E600079F08091F6020E94D201892B49F4CE01BB
:102E700007960E947610811118C085EE92E041CF2E
:102E80000E94BC0200912103109122032091230390
:102E900030912403601B710B820B930B683E7340CF
:102EA0008105910508F4A7CEE8CF8F809884A98486
:102EB000BA848091D00A9091D10AA091D20AB0919F
:102EC000D30AA5019401281B390B4A0B5B0BCA01DD
:102ED000B9010E94F71D20E030E042ED53E40E946A
:102EE000E71F9F7720E030E040E051E40E94882017
:102EF00018161CF210914503111110C080924E0358
:102F000090924F03A0925003B092510380924A03D3
:102F100090924B03A0924C03B0924D0320914A0330
:102F200030914B0340914C0350914D038216930610
:102F3000A406B50614F4A501940120934A03309326
:102F40004B0340934C0350934D0380914E0390915B
:102F50004F03A0915003B091510388159905AA051C
:102F6000BB0514F4D501C40180934E0390934F0325
:102F7000A0935003B0935103BC01CD01621B730BAE
:102F8000840B950B0E94F71D20E030E042ED53E4E6
:102F90000E94E71F9F7720E030E040EA50E40E9463
:102FA000882018160CF469CF80914603909147034E
:102FB000A0914803B0914903880D991DAA1DBB1D1E
:102FC0008093460390934703A0934803B09349032B
:102FD0001F5F109345030E94BC026093210370930E
:102FE0002203809323039093240305CEF701E05C32
:102FF000FF4F6081718182819381A30192010E94C0
:10300000171FD70158963C932E935797B5EEEB16A2
:10301000B2E0FB0609F045C06091290370912A03D4
:1030200080912B0390912C03A30192010E94171F02
:103030003093FF022093FE02609146037091470394
:103040008091480390914903A30192010E94171FA8
:103050002093D00A3093D10A4093D20A5093D30AD6
:10306000D7019C961C929C97D3961C92C7010E94F4
:10307000790688E3F701F596DF011D928A95E9F755
:1030800088E793E00E942B08F701808191810E94DC
:103090002B0884E598E00E943208C7010E9462086C
:1030A000AACDF701EC5BFF4F608171818281938132
:1030B000A30192010E94171FF701348F238FE85B51
:1030C000FF4F6081718182819381A30192010E94EF
:1030D000171FD7015E963C932E935D97F701E45B33
:1030E000FF4F6081718182819381A30192010E94CF
:1030F000171FF70130A3278FB3CFD701D3961C92A8
:10310000C7010E942207882309F493CDF70187891C
:10311000908D1816190664F49C01201B310B37FFA3
:1031200003C031952195310941E0233031050CF47C
:1031300040E0D70193962C9193972111F7C0181670
:103140001906E4F4F801E81BF90BCF010296059784
:10315000A8F492968C91811107C00E94BC02F701DD
:1031600064A375A386A397A3D70192968C91929797
:10317000853038F48F5F92968C9303C0D701929676
:103180001C92F70111A282A18530B0F00E94BC020E
:10319000D70194968D909D90AD90BC9097976819AB
:1031A00079098A099B09683E73408105910520F0E1
:1031B00021E0F70123A312A28091CF0A882359F1BD
:1031C0008EE698E00E942B08D7018D919C910E9479
:1031D0002B0888E798E00E942B08C8010E94250868
:1031E00089ED97E00E942B08F7018789908D0E9456
:1031F00025088DE798E00E942B08D70193968C91C3
:1032000090E00E94250885E898E00E942B08F701CD
:1032100081A10E943C09D70191968C91833008F4DA
:1032200008CD0E94BC02F70104A115A126A137A177
:10323000601B710B820B930B683C71058105910536
:1032400008F4F7CC13A212A211A2F092D80AE092CD
:10325000D70A1092D60AF5EEEF16F2E0FF0609F053
:10326000E6C18DE898E00E9432086AE070E0809143
:10327000F8029091F9020E9401040E94BC020E948F
:10328000A311882309F44BC00E94BC026B877C8782
:103290008D879E87C12CB12CA12C912CD12C0E9402
:1032A000BC022B853C854D855E85621B730B840BB0
:1032B000950B683873418105910508F031C10E9472
:1032C000CE0D0E9431078823B1F083E00E945A118D
:1032D0007B018C019B01AC010E948D20882309F4A5
:1032E0005BC00E943107882331F063EA78E085EE05
:1032F00092E00E94F60862EB70E08091F8029091F3
:10330000F9020E9401040E943107882331F067EC22
:1033100078E085EE92E00E94F60810920603109283
:10332000D80A1092D70A1092D60A83CC442349F1C6
:1033300091968C9181110BC00E94BC02F70164A38D
:1033400075A386A397A313A702A711A700A7D70168
:1033500098962D913C91021713070CF49801F701F0
:1033600031A720A782A593A5801791070CF4C80167
:10337000D7019B969C938E939A97821B930B0397EE
:103380001CF091961C9218CFF70181A1833008F0B0
:1033900013CF8F5F81A310CF20E030E040EA51E4EB
:1033A000B701C8010E94882087FF0CC0D12C68E2B9
:1033B00070E080E090E00E948A02CE2CBF2CA02E0C
:1033C000912E6DCF2C2D3B2D4A2D592DB701C801C3
:1033D0000E947A1F4B015C0120E030E0A9010E94AD
:1033E000882018160CF091C020E030E040EA50E44C
:1033F000C501B4010E94F01D1816C4F2D39442E036
:103400004D15A8F688E00E945A116B017C010E94BC
:103410003107882309F46FCFA7019601C701B601D0
:103420000E948D20811167CF20E030E040EA51E416
:10343000C701B6010E94882087FD5DCF0E94CE0D96
:103440000E943107882309F46ACF62EB70E0809113
:10345000F8029091F9020E94010486ED98E00E9422
:103460002B0820E030E04AE754E4C701B6010E948F
:10347000E71F43E00E945D0985E793E00E94AA07E9
:1034800066E970E080E090E00E94CD11882309F4A5
:1034900046CF64E670E08091FA029091FB020E94B0
:1034A000010464E873E080E090E00E94CD1188237D
:1034B00009F435CF0E94BC026B017C0110E00E9430
:1034C000BC026C197D098E099F096838734181051A
:1034D000910508F09FC00E94CE0D0E943107082F71
:1034E000882309F497C06091EC028091EB020E945E
:1034F000A50A181619060CF458C010E068E270E02E
:1035000080E090E00E948A02DACF20E030E040EADA
:1035100050ECC501B4010E94882087FD47CF6ECFD3
:10352000BE01695F7F4F83E00E941511882309F473
:10353000E2CE8DEA98E00E942B086F81788589851C
:103540009A850E94FB0782EC96E00E942B0860910E
:10355000D00A7091D10A8091D20A9091D30A0E9428
:10356000FB078DEC96E00E942B086F81788589859A
:103570009A850091D00A1091D10A2091D20A3091F7
:10358000D30A601B710B820B930B0E94F71D20E086
:1035900030E042ED53E40E94E71F42E00E945D09E3
:1035A00085E793E00E94AA07A6CE2091FE02309103
:1035B000FF02821B930B0296059708F09ECF82E0D4
:1035C0000E945A1120E030E040E051E40E94F01DDA
:1035D00018160CF492CF1F5F143008F48FCF6FEAE7
:1035E00070E08091FA029091FB020E940104002396
:1035F00099F00E943107882379F08CEF98E00E94BF
:1036000032081092060368E572E080E090E00E94C4
:10361000CD1185CE00E0E3CF0E943107882389F3E6
:103620006DE179E085EE92E00E94F608EACFD701DD
:103630008D919C910E942B0882E998E00E943208AB
:103640006AE070E0F701838994890E9401040E9476
:10365000BC026B877C878D879E876CEB72E080E075
:1036600090E00E94CD11882309F459CED7018D91A5
:103670009C910E942B088BE299E00E9432080E94E4
:10368000BC024B015C01312C0E94BC026819790913
:103690008A099B09683873418105910508F03AC28F
:1036A0000E94CE0D0E943107882309F433C2809115
:1036B000CF0AF701882309F443C0808191810E94D9
:1036C0002B088FE399E00E943208D7015B960D9199
:1036D0001C915C971B962C911B971A964C9168E352
:1036E00079E0C7010E940712019779F5339442E00F
:1036F000431560F5F701808191810E942B0889E0D4
:103700009AE00E9432080E94BC024B015C010E94B8
:10371000BC02681979098A099B09603D77408105D7
:103720009105E0F50E94CE0D0E943107882309F42F
:10373000F6CD6AE070E080E090E00E948A02E7CF78
:10374000038D148D1016110644F0312C6FE070E0DB
:1037500080E090E00E948A0297CFB385BA8B2284E2
:1037600033E0D32EC12C6A89822D0E94A50A181637
:1037700019063CF49801281B390B233031050CF055
:10378000C39469E170E080E090E00E948A02DA94DC
:10379000D110E9CF31E03C15C0F6A8CF6B857C8510
:1037A0008D859E850E94A311882309F4B8CD62EB14
:1037B00070E0D70153968D919C910E9401046CEBAF
:1037C00072E080E090E00E94CD11882309F4A7CD3B
:1037D000F701808191810E942B0886E899E00E9480
:1037E000320894E0292E2AEF822E27E0922E312CE7
:1037F0000E94CE0D0E943107882309F4A8C0D7018A
:103800005B960D911C915C971B962C911B971A96B9
:103810004C9168E379E0C7010E9407126C01F7013F
:10382000058D168D258544856FE779E0C7010E94D7
:1038300007125C01D7015F960D911C9190971F961E
:103840002C911F971E964C916DED76E0C7010E945A
:103850000712B1E0EB16B2E0FB06E9F5E1E0CE16A7
:10386000D104C9F5FFEFAF16BF06C9F58130910548
:10387000D1F521E032126EC084E999E00E9432084D
:1038800002E018E00E943107D82E882309F447CDC2
:103890006AEF77E0C8010E94BD22892B09F05FC062
:1038A00062EB70E0D70153968D919C910E940104C8
:1038B0008EE499E00E942B08F701808191810E949B
:1038C0002B0884EC99E00E94320865EC79E0C7018E
:1038D0000E94F60824CDC114D10409F43EC0A114FD
:1038E000B10409F46AC1009709F4312CCA94CD28B7
:1038F00069F441E0A416B10461F402E018E08130FB
:10390000910569F008E018E0892B49F00AEF17E00B
:1039100006C0AB28D9F70FE018E0892BB9F76AEF9A
:1039200077E0C8010E94BD22892B39F0B401C8019B
:103930000E94BD22892B09F4A5CF66E970E080E0E2
:1039400090E00E948A022A944801211051CF0AEF88
:1039500017E098CF33243394D9CF312CD7CFF3E766
:10396000EF16F2E0FF06C9F48CE0D82EC12C80914E
:1039700083020E94D201892B09F4C3946FE070E0A6
:1039800080E090E00E948A02DA94D110F0CFDD242A
:10399000D39428E02C1508F0D12C0E94CE0D0E9463
:1039A0003107882309F4BBCC8CED99E00E942B08E9
:1039B000C8010E942B0882EE99E00E942B0885E145
:1039C00098E0DD2021F0D70112968D919C910E9404
:1039D000320862EB70E0F701838994890E94010448
:1039E00066E970E080E090E00E94CD11882309F440
:1039F00096CC6AEA70E0D70155968D919C910E9411
:103A0000010464E873E080E090E00E94CD11882317
:103A100009F485CC0E94BC026B877C878D879E87CA
:103A2000912C0E94BC022B853C854D855E85621BD6
:103A3000730B840B950B683873418105910508F071
:103A40005DC00E94CE0D0E943107882E882309F4A4
:103A500055C0D7015B960D911C915C971B962C91DC
:103A60001B971A964C9168E379E0C7010E940712F0
:103A70006C01F701058D168D258544856FE779E08A
:103A8000C7010E9407125C01D7015F960D911C913E
:103A900090971F962C911F971E964C916DED76E096
:103AA000C7010E940712CD2809F5AB28F9F4892B2C
:103AB000E9F49394B4E0B915D0F470E060E0F70154
:103AC000858996890E9401048820D1F00E943107DF
:103AD0008823B1F08DEE99E00E942B08D7018D91DB
:103AE0009C910E943208F70111A28DCD912C6EE1BC
:103AF00070E080E090E00E948A0293CF812CDDCFBD
:103B00000E943107882379F36DE179E0C7010E94B3
:103B1000F608E9CF62EB70E0D70153968D919C9146
:103B20000E9401040E943107882309F443C066E51E
:103B300079E0C7010E94F6088EE499E00E942B0804
:103B4000D7018D919C910E942B0885E599E00E94F8
:103B50003208F701808191810E942B0886E699E066
:103B60000E943208D7015B960D911C915C971B96C1
:103B70002C911B971A964C9168E379E0C7010E943B
:103B80000712F701058D168D258544856FE779E0CD
:103B9000C7010E940712D7015F960D911C91909763
:103BA0001F962C911F971E964C916DED76E0C701E4
:103BB0000E940712F70111A2B2CB312CCA94CD2872
:103BC00009F4A9CEA3CE82E89BE00C944A0A911195
:103BD0000C94C31E803219F089508550C8F708959F
:103BE0000E94321E08F481E00895E89409C097FB12
:103BF0003EF490958095709561957F4F8F4F9F4FC4
:103C00009923A9F0F92F96E9BB279395F695879507
:103C100077956795B795F111F8CFFAF4BB0F11F4CA
:103C200060FF1BC06F5F7F4F8F4F9F4F16C0882371
:103C300011F096E911C0772321F09EE8872F762FA7
:103C400005C0662371F096E8862F70E060E02AF0E8
:103C50009A95660F771F881FDAF7880F96958795D4
:103C600097F90895990F0008550FAA0BE0E8FEEFA9
:103C700016161706E807F907C0F012161306E40730
:103C8000F50798F0621B730B840B950B39F40A2629
:103C900061F0232B242B252B21F408950A2609F407
:103CA000A140A6958FEF811D811D08950E94691E78
:103CB0000C94DD1E0E94CF1E38F00E94D61E20F00C
:103CC000952311F00C94C61E0C94CC1E11240C9458
:103CD000111F0E94EE1E70F3959FC1F3950F50E0E7
:103CE000551F629FF001729FBB27F00DB11D639FAE
:103CF000AA27F00DB11DAA1F649F6627B00DA11D54
:103D0000661F829F2227B00DA11D621F739FB00DF9
:103D1000A11D621F839FA00D611D221F749F332769
:103D2000A00D611D231F849F600D211D822F762F02
:103D30006A2F11249F5750409AF0F1F088234AF0DF
:103D4000EE0FFF1FBB1F661F771F881F915050404B
:103D5000A9F79E3F510580F00C94C61E0C94111FCC
:103D60005F3FE4F3983ED4F3869577956795B795D2
:103D7000F795E7959F5FC1F7FE2B880F911D9695EC
:103D8000879597F9089599278827089597F99F6748
:103D900080E870E060E008959FEF80EC08950024D3
:103DA0000A941616170618060906089500240A94A0
:103DB00012161306140605060895092E0394000C26
:103DC00011F4882352F0BB0F40F4BF2B11F460FFB5
:103DD00004C06F5F7F4F8F4F9F4F089557FD9058DE
:103DE000440F551F59F05F3F71F04795880F97FBBF
:103DF000991F61F09F3F79F0879508951216130679
:103E00001406551FF2CF4695F1DF08C016161706A7
:103E10001806991FF1CF86957105610508940895DC
:103E2000E894BB2766277727CB0197F90895052EDD
:103E300097FB1EF400940E942E1F57FD07D00E948E
:103E4000491F07FC03D04EF40C942E1F509540954B
:103E5000309521953F4F4F4F5F4F08959095809536
:103E6000709561957F4F8F4F9F4F08950E946B1FF4
:103E7000A59F900DB49F900DA49F800D911D1124BE
:103E80000895B7FF0C94361F0E94361F821B930BB8
:103E90000895A1E21A2EAA1BBB1BFD010DC0AA1F8B
:103EA000BB1FEE1FFF1FA217B307E407F50720F0A3
:103EB000A21BB30BE40BF50B661F771F881F991F1E
:103EC0001A9469F760957095809590959B01AC0167
:103ED000BD01CF010895A29FB001B39FC001A39F70
:103EE000700D811D1124911DB29F700D811D112433
:103EF000911D08955058BB27AA270E94921F0C9429
:103F0000DD1E0E94CF1E38F00E94D61E20F039F42C
:103F10009F3F19F426F40C94CC1E0EF4E095E7FBB9
:103F20000C94C61EE92F0E94EE1E58F3BA176207C2
:103F300073078407950720F079F4A6F50C94101FF9
:103F40000EF4E0950B2EBA2FA02D0B01B9019001B4
:103F50000C01CA01A0011124FF27591B99F0593FF8
:103F600050F4503E68F11A16F040A22F232F342F40
:103F70004427585FF3CF469537952795A795F0408E
:103F80005395C9F77EF41F16BA0B620B730B840BA3
:103F9000BAF09150A1F0FF0FBB1F661F771F881F5B
:103FA000C2F70EC0BA0F621F731F841F48F48795B3
:103FB00077956795B795F7959E3F08F0B0CF9395A5
:103FC000880F08F09927EE0F9795879508950E941E
:103FD000FB1F0C94DD1E0E94D61E58F00E94CF1EBF
:103FE00040F029F45F3F29F00C94C61E51110C9447
:103FF000111F0C94CC1E0E94EE1E68F39923B1F39E
:10400000552391F3951B550BBB27AA2762177307FE
:10401000840738F09F5F5F4F220F331F441FAA1F92
:10402000A9F335D00E2E3AF0E0E832D0915050404E
:10403000E695001CCAF72BD0FE2F29D0660F771FFC
:10404000881FBB1F261737074807AB07B0E809F0E2
:10405000BB0B802DBF01FF2793585F4F3AF09E3F67
:10406000510578F00C94C61E0C94111F5F3FE4F3C9
:10407000983ED4F3869577956795B795F7959F5FAA
:10408000C9F7880F911D9695879597F90895E1E0F6
:10409000660F771F881FBB1F621773078407BA0755
:1040A00020F0621B730B840BBA0BEE1F88F7E095B0
:1040B00008950E94F61E88F09F5798F0B92F99270F
:1040C000B751B0F0E1F0660F771F881F991F1AF003
:1040D000BA95C9F714C0B13091F00E94101FB1E039
:1040E00008950C94101F672F782F8827B85F39F038
:1040F000B93FCCF3869577956795B395D9F73EF49C
:1041000090958095709561957F4F8F4F9F4F089543
:104110000E94321E08F48FEF08950E94321E880B11
:10412000990B0895991B79E004C0991F961708F020
:10413000961B881F7A95C9F780950895EE0FFF1F8B
:10414000881F8BBF0790F691E02D19940F931F9352
:10415000CF93DF938230910510F482E090E0E091FC
:104160009C0BF0919D0B30E020E0B0E0A0E0309798
:1041700099F42115310509F44AC0281B390B243064
:104180003105D8F58A819B816115710589F1FB01A3
:1041900093838283FE0111C040815181028113818A
:1041A00048175907E0F04817590799F4109761F03C
:1041B00012960C93129713961C933296CF01DF91AF
:1041C000CF911F910F91089500939C0B10939D0B1D
:1041D000F4CF2115310551F04217530738F0A901EA
:1041E000DB019A01BD01DF01F801C1CFEF01F9CF79
:1041F00090939D0B80939C0BCDCFFE01E20FF31F9C
:10420000819391932250310939832883D7CF20910C
:104210009A0B30919B0B232B41F420915903309141
:104220005A0330939B0B20939A0B209157033091A4
:1042300058032115310541F42DB73EB740915B037A
:1042400050915C03241B350BE0919A0BF0919B0B72
:10425000E217F307A0F42E1B3F0B2817390778F05D
:10426000AC014E5F5F4F2417350748F04E0F5F1FBC
:1042700050939B0B40939A0B819391939FCFF0E0C7
:10428000E0E09CCFCF93DF930097E9F0FC013297F9
:1042900013821282A0919C0BB0919D0BED0130E036
:1042A00020E01097A1F420813181820F931F20918B
:1042B0009A0B30919B0B2817390709F061C0F093D6
:1042C0009B0BE0939A0BDF91CF910895EA01CE17F3
:1042D000DF07E8F54A815B819E0141155105B1F781
:1042E000E901FB83EA8349915991C40FD51FEC176B
:1042F000FD0761F4808191810296840F951FE90189
:1043000099838883828193819B838A83F0E0E0E0B4
:1043100012968D919C9113970097B9F52D913C9130
:104320001197CD010296820F931F20919A0B309125
:104330009B0B2817390739F6309751F510929D0BD2
:1043400010929C0BB0939B0BA0939A0BBCCFD38382
:10435000C28340815181840F951FC817D90761F42A
:104360004E5F5F4F88819981480F591F5183408369
:104370008A819B81938382832115310509F0B0CF17
:10438000F0939D0BE0939C0B9ECFFD01DC01C0CF11
:1043900013821282D7CF4F925F926F927F928F9249
:1043A0009F92AF92BF92CF92DF92EF92FF920F93C4
:1043B0001F93CF93DF938C01009799F4CB01DF918A
:1043C000CF911F910F91FF90EF90DF90CF90BF9012
:1043D000AF909F908F907F906F905F904F900C94D4
:1043E000A620FC01E60FF71F9C0122503109E217BD
:1043F000F30708F4AEC0D901CD91DC911197C6172F
:10440000D70720F1C530D10578F0CE010497861783
:10441000970750F0C61BD70B2297C193D1936D938A
:104420007C93CF010E944221C801DF91CF911F915F
:104430000F91FF90EF90DF90CF90BF90AF909F9043
:104440008F907F906F905F904F9008955B01AC1AB2
:10445000BD0A4C018C0E9D1EA0919C0BB0919D0B32
:10446000512C412CF12CE12C109731F580919A0BB5
:1044700090919B0B8815990509F05CC0461657066C
:1044800008F058C08091570390915803009741F469
:104490008DB79EB740915B0350915C03841B950BD5
:1044A000E817F90708F055C0F0939B0BE0939A0BBF
:1044B000F90171836083B8CF8D919C911197129609
:1044C0006C90129713967C901397A815B90559F51F
:1044D0006C0142E0C40ED11CCA14DB0420F1AC0113
:1044E0004A195B09DA011296159780F0628273828D
:1044F00051834083D9016D937C93E114F10471F0F1
:10450000D7011396FC93EE9312978ECF22968C0FC1
:104510009D1FF90191838083F301EFCFF0939D0BF1
:10452000E0939C0B81CF4816590608F42C017D01BD
:10453000D3019ACFCB010E94A6207C01009749F0BD
:10454000AE01B8010E94B422C8010E944221870135
:104550006BCF10E000E068CF9111089581568A5129
:1045600008F4805285580895FB01DC0102C00190D7
:104570000D9241505040D8F70895FB01DC018D9118
:10458000019080190110D9F3990B0895FB01DC010A
:1045900001900D920020E1F7089511E0C7E3D1E00A
:1045A00000E006C0802FFE010E949E202196011D82
:0E45B000C833D10780E00807A9F7F894FFCFC1
:1045BE00011A0A1A0A090A00000B0C161718292AE2
:1045CE002B000000970B940BFFFFFFFFFFFFFFFF79
:1045DE00FFFF0000000000000000000000000000CF
:1045EE0000000000000000000000000000000000BD
:1045FE0000000000000000000000000000000000AD
:10460E00000000000000000000000000000000009C
:10461E00000000000000000000000000000000008C
:10462E00000000220A280A191A00001B1C1D1E1F5A
:10463E002C2D2E200000910B8E0BFFFFFFFFFFFF96
:10464E00FFFFFFFF00000000000000000000000060
:10465E00000000000000000000000000000000004C
:10466E00000000000000000000000000000000003C
:10467E00000000000000000000000000000000002C
:10468E00000000000000000000000000000000001C
:10469E0000000000001709170921222728232400F3
:1046AE0000000000000025268B0B880BFFFFFFFF8C
:1046BE00FFFFFFFFFFFF00000000000000000000F2
:1046CE0000000000000000000000000000000000DC
:1046DE0000000000000000000000000000000000CC
:1046EE0000000000000000000000000000000000BC
:1046FE0000000000000000000000000000000000AC
:10470E000000000000000000009E0B8000010273FC
:10471E0002E502000000005E03C802F502B00326A7
:10472E0003040318030D0A005245434F56455259D0
:10473E003A003B53544154453A57414954494E4728
:10474E005F464F525F454D5054590046554C4C00F4
:10475E003B574F524B494E473A003B42494E3A0067
:10476E004D51363A5741524E494E47004D51363A09
:10477E00434C4541520050555247453A003B535425
:10478E004154453A4F50454E004641554C543A001F
:10479E006E616E00696E66006F7666004552524F0E
:1047AE00523A554E535441424C455F43414C494257
:1047BE00524154494F4E5F545249473A0043414C7F
:1047CE004942524154494F4E3A52454D4F56455F1C
:1047DE004F424A45435453004D4F44453A504C4185
:1047EE00535449433A00454E41424C4544003B4DDB
:1047FE004554414C3A003B50415045523A004341DA
:10480E004C4942524154494F4E3A504C41535449EF
:10481E00435F454D5054595F434D3A0043414C4917
:10482E0042524154494F4E3A504C41535449435FC2
:10483E0053495A455F424F54544F4D5F434D3A00D2
:10484E0043414C4942524154494F4E3A504C4153C8
:10485E005449435F53495A455F4D4944444C455F63
:10486E00434D3A0043414C4942524154494F4E3A0E
:10487E00504C41535449435F53495A455F544F502E
:10488E005F434D3A0043414C4942524154494F4EC9
:10489E003A4D4554414C5F454D5054595F434D3A46
:1048AE000043414C4942524154494F4E3A4D4554B2
:1048BE00414C5F53495A455F424F54544F4D5F43ED
:1048CE004D3A0043414C4942524154494F4E3A4DA4
:1048DE004554414C5F53495A455F4D4944444C45FC
:1048EE005F434D3A0043414C4942524154494F4E69
:1048FE003A4D4554414C5F53495A455F544F505FB2
:10490E00434D3A0043414C4942524154494F4E3A6D
:10491E0050415045525F544F505F454D5054595F72
:10492E00434D3A0043414C4942524154494F4E3A4D
:10493E0050415045525F424F54544F4D5F454D507C
:10494E0054595F434D3A0043414C494252415449F8
:10495E004F4E3A50415045525F544152455F52417D
:10496E00573A004552524F523A50415045525F53BA
:10497E0043414C455F4E4F545F52454144590043AD
:10498E00414C4942524154494F4E3A4F4B004D41D2
:10499E004348494E453A53544152544544004D41C3
:1049AE004348494E453A49444C45004552524F52B0
:1049BE003A43414C4942524154494F4E5F46414958
:1049CE004C45440044454255473A4F4E00444542FB
:1049DE0055473A4F464600594553004E4F004552F3
:1049EE00524F523A4E4F545F43414C4942524154FA
:1049FE004544004D414348494E453A53544F50505B
:104A0E0045440052455345543A4F4B0052554E4E75
:104A1E00494E47004552524F520043414C49425273
:104A2E00415445005343414C45004552524F523A72
:104A3E00434F4D504152544D454E545F425553597C
:104A4E00004445425547204F4E00444542554720AD
:104A5E004F46460050415045523A5343414C455FF4
:104A6E005241573A003B544152455F56414C4944DE
:104A7E003A003B544152455F5241573A003B53492D
:104A8E00474E45445F4752414D533A0053544F50A1
:104A9E0000524553455400535441545553005354FA
:104AAE00415455533A003B504C41535449435F4394
:104ABE004D3A003B504C41535449435F53495A457C
:104ACE005F434D3A003B4D4554414C5F434D3A00D8
:104ADE003B4D4554414C5F53495A455F434D3A0057
:104AEE003B50415045525F544F505F434D3A003B4F
:104AFE0050415045525F424F54544F4D5F434D3AD3
:104B0E00003B4D4554414C5F53454E534F523A0076
:104B1E003B50415045525F5343414C453A0045523C
:104B2E00524F523A554E4B4E4F574E5F434F4D4D8F
:104B3E00414E44004552524F523A48583731315F38
:104B4E00444F55545F4E4F545F484947485F414666
:104B5E005445525F52454144004552524F523A48D5
:104B6E00583731315F4E4F545F52454144595F447F
:104B7E004F55545F484947480053495A494E473AA2
:104B8E00003B4C4556454C3A003B454D5054595F01
:104B9E00434D3A003B52454144494E47535F434DC6
:104BAE003A003B53544154453A00494E56414C4904
:104BBE0044004C41524745004D454449554D005324
:104BCE004D414C4C0052454A4543540052564D3AC5
:104BDE00504C41535449435F4D4554414C5F5041F5
:104BEE005045525F5245414459003B535441544540
:104BFE003A4155544F5F524543414C4942524154FC
:104C0E00494E47003B53544154453A4F4B00454E95
:104C1E005452414E43455F53454E534F5200454EFD
:104C2E005452414E43453A003B434D3A003B4152AC
:104C3E004D45443A003B434F554E543A0050415077
:104C4E0045523A4F424A4543545F444554454354B6
:104C5E004544004C4F41445F43454C4C005041503D
:104C6E0045523A5745494748545F54494D454F556B
:104C7E00545F5241573A005745494748545F54498B
:104C8E004D454F55540053495A453A5745494748A3
:104C9E00543B4D4154455249414C3A504150455276
:104CAE003B5745494748545F4B473A00424F54548F
:104CBE004C453A434C45415245443B434F4D504180
:104CCE0052544D454E543A504150455200434C4576
:104CDE0041525F54494D454F5554003A574149543E
:104CEE00494E475F464F525F424F54544F4D003A24
:104CFE004152524956414C5F434845434B00455241
:104D0E00524F523A005F4152524956414C5F5449FC
:104D1E004D454F5554003A4152524956414C5F53FE
:104D2E00454E534F525F534E415053484F54004DD2
:104D3E004944444C45003A53495A494E475F5354EF
:104D4E004152540053495A494E473A504C415354DC
:104D5E0049433B46414C4C4241434B3A4C415247EE
:104D6E00455F4D4944444C455F554E52454C494173
:104D7E00424C45005F494E56414C49445F53454EA7
:104D8E00534F525F5041545445524E0053495A4569
:104D9E003A003B4D4154455249414C3A00424F5422
:104DAE00544C453A434C45415245443B434F4D507C
:104DBE004152544D454E543A003A424F54544C458C
:104DCE005F534554544C494E4700504C415354493F
:0C4DDE0043004D4554414C0043414E0041
:00000001FF
