:100000000C9438010C9469010C9469010C946901F9
:100010000C9469010C9469010C9469010C946901B8
:100020000C9469010C9469010C9469010C946901A8
:100030000C9469010C9469010C9469010C94690198
:100040000C9469010C94A50D0C9469010C94690140
:100050000C9469010C9469010C9469010C94710C65
:100060000C9469010C94E50C0C94BB0C0C94690184
:100070000C9469010C9469010C9469010C94690158
:100080000C94770D0C9469010C9469010C9469012E
:100090000C9469010C9469010C9469010C94690138
:1000A0000C9469010C9469010C94490D0C9469013C
:1000B0000C9469010C9469010C9469010C941B0D5A
:1000C0000C9469010C9469010C9469010C94690108
:1000D0000C9469010C9469010C9469010C946901F8
:1000E0000C9469010C9489010C94C4010C949B013B
:1000F0000C94A8010C94B2010C94CA010C941B033B
:100100000C94C9010C94AE010C94CE010C94BC016A
:100110000C948F010C94EA020C94A5030C949701A3
:100120000C94BD020C94F9020C949E010C94B6013F
:100130000C94A4010C9493010C94C0010C940D0335
:100140000C9453030C94330E0C94291200002100DC
:10015000240027002A002D00300033000101000098
:10016000040107010A0100002200250028002B00DD
:100170002E003100340002010000050108010B01CE
:10018000000020002300260029002C002F00320050
:100190000001000003010601090105050505070529
:1001A00008080808020202020A0A080804040404F3
:1001B000010101010101010103030303030303031F
:1001C000040707070C0C0C0C0C0C0C0C02020202AE
:1001D00006060606060606060B0B0B0B0B0B0B0B97
:1001E0000102102020080810204010204080020149
:1001F000020108040201010204081020408080402E
:10020000201008040201800402018040201008042C
:1002100002010804020101020408102040800102CA
:1002200004081020408000000A0B02090C0D0E0883
:1002300007030401000000000000000000000000AF
:1002400000000000000000000000000000000000AE
:10025000000012111000000000000000000000006B
:10026000000000000000000000000000330E291212
:1002700011241FBECFEFD1E2DEBFCDBF00E00CBF27
:1002800016E0A0E0B2E0E4E5FEE200E00BBF02C051
:1002900007900D92A037B107D9F727E0A0E7B6E0A5
:1002A00001C01D92A33DB207E1F711E0C7E3D1E021
:1002B00000E006C021970109802FFE010E94E91489
:1002C000C633D10780E00807A9F70E94860E0C9478
:1002D00018170C9400008150823108F05AC0E82FA2
:1002E000F0E08827E958FE4F8F4F0C94E9149701EE
:1002F0009B0189018F019301C9019E01A401A801FD
:10030000AE01B201B601BC01C001C901C401CA01FC
:10031000CE01809180008F77809380000895809136
:1003200080008F7DF9CF80918000877FF5CF84B5E5
:100330008F7784BD089584B58F7DFBCF8091B00009
:100340008F778093B00008958091B0008F7DF9CFB2
:10035000809190008F778093900008958091900015
:100360008F7DF9CF80919000877FF5CF8091A0009D
:100370008F778093A00008958091A0008F7DF9CFA2
:100380008091A000877FF5CF809120018F778093A7
:1003900020010895809120018F7DF9CF8091200167
:1003A000877FF5CFCF93DF93282F30E0F901EA5D07
:1003B000FD4F8491F901E052FE4FD491F901E656C8
:1003C000FE4FC491CC23A1F081110E946B01EC2F50
:1003D000F0E0EE0FFF1FE058FE4FA591B491EC91B5
:1003E000ED2381E090E009F480E0DF91CF91089562
:1003F00080E090E0FACF1F93CF93DF93282F30E077
:10040000F901EA5DFD4F8491F901E052FE4FD4916C
:10041000F901E656FE4FC491CC23A9F0162F8111A5
:100420000E946B01EC2FF0E0EE0FFF1FEA59FE4F28
:10043000A591B4918FB7F894EC91111108C0D095A3
:10044000DE23DC938FBFDF91CF911F910895DE2BC8
:10045000F8CFCF93DF9390E0FC01E052FE4F249160
:1004600086569E4FFC0184918823D1F090E0880F3E
:10047000991FFC01E45BFE4FA591B491FC01EA5980
:10048000FE4FC591D49161110EC09FB7F8948C9125
:10049000E22FE0958E238C932881E223E8839FBF8F
:1004A000DF91CF9108958FB7F894EC91E22BEC9304
:1004B0008FBFF6CF3FB7F89480911607909117073A
:1004C000A0911807B091190726B5A89B05C02F3F2A
:1004D00019F00196A11DB11D3FBFBA2FA92F982F6A
:1004E0008827BC01CD01620F711D811D911D42E065
:1004F000660F771F881F991F4A95D1F708958F922D
:100500009F92AF92BF92CF92DF92EF92FF924B01F8
:100510005C010E945A026B017C010E945A026C1914
:100520007D098E099F09683E734081059105A8F3F6
:1005300021E0821A9108A108B10888EEC80E83E074
:10054000D81EE11CF11C81149104A104B10429F707
:10055000FF90EF90DF90CF90BF90AF909F908F90E3
:1005600008952FB7F8946091120770911307809146
:100570001407909115072FBF0895AF92BF92CF92A5
:10058000DF92EF92FF920F931F93CF93DF936C0153
:100590007B018B01040F151FEB015E01AE18BF0834
:1005A000C017D10759F06991D601ED91FC910190E6
:1005B000F081E02DC6011995892B79F7C501DF91EE
:1005C000CF911F910F91FF90EF90DF90CF90BF9050
:1005D000AF900895FC01538D448D252F30E0842F7A
:1005E00090E0821B930B541710F0CF96089501975B
:1005F0000895FC01918D828D981761F0A28DAE0F48
:10060000BF2FB11D5D968C91928D9F5F9F73928FCE
:1006100090E008958FEF9FEF0895FC01918D828DFA
:10062000981731F0828DE80FF11D858D90E00895C7
:100630008FEF9FEF0895FC01918D228D892F90E01F
:10064000805C9F4F821B91098F73992708958AE1DF
:1006500097E00E941B0321E0892B09F420E0822F00
:100660000895FC01A48DA80FB92FB11DA35ABF4F47
:100670002C91848D90E001968F739927848FA689A1
:10068000B7892C93A089B1898C91837080648C93F5
:10069000938D848D981306C00288F389E02D8081A4
:1006A0008F7D80830895EF92FF920F931F93CF93D6
:1006B000DF93EC0181E0888F9B8D8C8D98131AC09D
:1006C000E889F989808185FF15C09FB7F894EE8984
:1006D000FF896083E889F9898081837080648083E1
:1006E0009FBF81E090E0DF91CF911F910F91FF902C
:1006F000EF900895F62E0B8D10E00F5F1F4F0F73D4
:100700001127E02E8C8D8E110CC00FB607FCFACF8E
:10071000E889F989808185FFF5CFCE010E943103F8
:10072000F1CFEB8DEC0FFD2FF11DE35AFF4FF0825F
:100730009FB7F8940B8FEA89FB8980818062CFCFC5
:10074000682F8AE197E00C945303CF93DF93EC0179
:10075000888D8823B9F0AA89BB89E889F9898C91A9
:1007600085FD03C0808186FD0DC00FB607FCF7CF65
:100770008C9185FFF2CF808185FFEDCFCE010E9465
:100780003103E9CFDF91CF91089580E090E0892B8C
:1007900029F00E94270381110E94000080E090E070
:1007A000892B49F080E090E0892B29F00E9400001D
:1007B00081110E94000080E090E0892B49F080E0E8
:1007C00090E0892B29F00E94000081110E94000016
:1007D00080E090E0892B49F080E090E0892B29F0BF
:1007E0000E94000081110C94000008958F929F9246
:1007F000AF92BF92FF920F931F93CF93DF93FC01B1
:10080000F0808FE28F1508F44AC0828108E512E07B
:10081000081B110987FD1395000F111F000F111FF1
:100820008181C8E8D0E0C81BD10987FDD395CC0FE2
:10083000DD1FCC0FDD1F4E010D2E000CAA08BB08DA
:100840009801012E000C440B550B281939094A094F
:100850005B09DB010E948C1324EB30E040E050E0A8
:100860000E946213820E931EA41EB51E8C169D0656
:100870002CF0E801801691060CF4E4012297CC0FCD
:10088000DD1F2FB7F8948F2D90E0FC01EE0FFF1FB6
:10089000E80FF91FE658F94FD283C1832FBFDF91CC
:1008A000CF911F910F91FF90BF90AF909F908F902D
:1008B00008951F93CF93DF93EC01162F8881803327
:1008C00008F04EC061E0812F0E9429028881282F04
:1008D00030E0F901EE0FFF1FE20FF31FE658F94F6A
:1008E0001F736081607C612B608319821A822CE007
:1008F000622F0E94DD14829FB001112430E020E0BD
:10090000AB01420F531FFA01EE0FFF1FE40FF51F5B
:10091000E658F94F908196FD16C02F5F3F4F2C305F
:10092000310571F7813009F51092800082E08093E3
:1009300081001092850010928400B19A80916F001E
:10094000826080936F00E8818E2F90E0FC01EE0FB3
:10095000FF1FE80FF91FE658F94F808180648083FC
:100960008881DF91CF911F910895823061F41092B8
:10097000900080939100109295001092940088BB93
:1009800080937100E0CF833069F41092A00082E080
:100990008093A1001092A5001092A40089BB8093BF
:1009A0007200D1CF8111CFCF1092200182E08093CD
:1009B000210110922501109224018ABB80937300BB
:1009C000C2CFAF92BF92CF92DF92EF92FF920F937E
:1009D0001F93CF93DF936B017A01EC01CB58D94F72
:1009E00028813CE0389F8001399F100D1124A09090
:1009F0007906B12C27FF1FC0FB011182108288816C
:100A00008F5F888388819801280F311D87FD3A9573
:100A1000F6012A153B051CF488818C30C4F18081D5
:100A20009181049680349C4908F473C0F60180815A
:100A30009181049670C088819801280F311D87FD2F
:100A40003A952A153B05DCF68881A801480F511D0F
:100A500087FD5A95FA01EE0FFF1FE40FF51FE658C8
:100A6000F94F808186FFCBCF8881F801E80FF11D17
:100A700087FDFA95CF01EE0FFF1FE80FF91FE6582B
:100A8000F94F808160E08F730E94FB01B8CF8081B5
:100A900091812881A801420F511D27FD5A959A0185
:100AA000FA01EE0FFF1FE20FF31FE658F94F218105
:100AB0003281820F931FF70191838083888198018F
:100AC000280F311D87FD3A95F901EE0FFF1FE20F48
:100AD000F31FE658F94F808186FF22C08881080FF6
:100AE000111D87FD1A95F801EE0FFF1FE00FF11F92
:100AF000E658F94F808161E08F73DF91CF911F91AC
:100B00000F91FF90EF90DF90CF90BF90AF900C943B
:100B1000FB0180E49CE9F701918380838FEF888358
:100B2000DF91CF911F910F91FF90EF90DF90CF90C9
:100B3000BF90AF900895CF93DF93C8E5D2E019A29C
:100B4000A0E0B2E091961C929197ECE2F2E011A243
:100B50001AA292961C92929712A21BA293961C9292
:100B600013A262EB70E08B899C890E94F6036FEA06
:100B700070E08D899E89DF91CF910C94F603FC0182
:100B800001900020E9F73197AF01481B590BBC01D8
:100B90008AE197E00C94BD028F929F92AF92BF9230
:100BA0000F931F93CF93DF93CDB7DEB7A1970FB607
:100BB000F894DEBF0FBECDBF19A2423008F44AE060
:100BC0008E010F5D1F4F842E912CB12CA12CA501FD
:100BD00094010E949413E62FB901CA01EA30F4F49B
:100BE000E05DD801EE938D01232B242B252B79F783
:100BF00090E080E0109719F0CD010E94BF05A1960A
:100C00000FB6F894DEBF0FBECDBFDF91CF911F911D
:100C10000F91BF90AF909F908F900895E95CE1CFC6
:100C2000CF92DF92EF92FF92CF93DF9397FF19C09D
:100C30006B017C018DE20E94A003EC0166277727FF
:100C4000CB016C197D098E099F094AE00E94CC05F1
:100C50008C0F9D1FDF91CF91FF90EF90DF90CF9091
:100C600008954AE0DF91CF91FF90EF90DF90CF9011
:100C70000C94CC05BC01990F880B990B0C941006B1
:100C8000009711F00C94BF0590E080E00895CF9399
:100C9000DF93D0E0C0E0009719F00E94BF05EC019F
:100CA0008CE992E00E94BF058C0F9D1FDF91CF91D0
:100CB00008956F927F928F929F92AF92BF92CF9240
:100CC000DF92EF92FF920F931F93CF93DF93182F32
:100CD000EB01812C912C540100E00E94B1026B01C8
:100CE0007C01809169020E94D201019791F40E94D7
:100CF000B1026C197D098E099F09683E7340810518
:100D0000910538F461E070E080E090E00E947F029D
:100D1000E8CF809169020E94D201892BA1F08FE96E
:100D200092E00E94470680E0DF91CF911F910F91E2
:100D3000FF90EF90DF90CF90BF90AF909F908F90FB
:100D40007F906F90089598E1792EC12CD12C760177
:100D50006FB6F89461E080916A020E94FB01CC0CAE
:100D6000DD1CEE1CFF1C809169020E94D201092E3D
:100D7000000CAA0BBB0BC82AD92AEA2AFB2A60E07E
:100D800080916A020E94FB016FBE7A947110E0CFDD
:100D90007FB6F89461E080916A020E94FB0160E0F6
:100DA00080916A020E94FB017FBE809169020E94CD
:100DB000D201019719F08FEB92E0B3CFE7FE02C0AA
:100DC000FF24FA948C0C9D1CAE1CBF1C0F5F1013EB
:100DD00084CF212F30E050E040E0C501B4010E94F3
:100DE0006213288339834A835B8381E09DCFCF924E
:100DF000DF92EF92FF92CF93DF9300D01F92CDB797
:100E0000DEB7BE016F5F7F4F0E945906882389F1CC
:100E100069817A818B819C81C0900A07D0900B07F1
:100E2000E0900C07F0900D076C197D098E099F0961
:100E30000E94421220E030E042ED53E40E9432145E
:100E40006B017C0120E030E0A9010E94D314181648
:100E50001CF0C12CD12C7601C701B6010F900F9068
:100E60000F900F90DF91CF91FF90EF90DF90CF9098
:100E70000895C12CD12C80ECE82E8FE7F82EECCF12
:100E80004F925F926F927F928F929F92AF92BF929A
:100E9000CF92DF92EF92FF920F931F93CF936B014C
:100EA0007C01742EAC019B010E94D814882399F018
:100EB00084EE92E0CF911F910F91FF90EF90DF9021
:100EC000CF90BF90AF909F908F907F906F905F90EA
:100ED0004F900C94BF0546015701E894B7F82FEFE7
:100EE0003FEF4FE75FE7C501B4010E94D8148111BD
:100EF0000DC02FEF3FEF4FE75FE7C501B4010E9440
:100F00003B1218161CF488EE92E0D4CF2FEF3FEF7F
:100F10004FE75FE4C701B6010E94D31418161CF412
:100F20008CEE92E0C7CF2FEF3FEF4FE75FECC701AA
:100F3000B6010E943B1287FDF3CF20E030E0A9010B
:100F4000C701B6010E943B1210E000E087FF08C015
:100F50008DE20E94A0038C01F7FAF094F7F8F09468
:100F6000C0E060E070E080E09FE37C1641F020E0AC
:100F700030E040E251E40E943214CF5FF6CFA70187
:100F800096010E94C6132B013C010E94A4144B0140
:100F90005C014AE00E94CC057C01E00EF11ECC23EE
:100FA000B1F1C501B4010E9440129B01AC01C30123
:100FB000B2010E94C5134B015C018EE20E94A003A6
:100FC000E80EF91EC15018F120E030E040E251E493
:100FD000C501B4010E94A1122B013C010E94A4147E
:100FE0004B01B12CA12C4AE0C501B4010E94CC05F3
:100FF000E80EF91EC501B4010E9440129B01AC012C
:10100000C301B2010E94C5134B015C01DBCFC701D4
:10101000CF911F910F91FF90EF90DF90CF90BF90F5
:10102000AF909F908F907F906F905F904F900895BA
:10103000FC0124813581232B39F421E0FB018081DF
:10104000882349F020E007C0808191810E94081721
:1010500021E0892BB9F7822F08950F931F93CF9327
:10106000DF93EC0188819981009759F02A813B81B7
:101070002617370730F081E0DF91CF911F910F9154
:1010800008958B016F5F7F4F0E941616009759F0ED
:10109000998388831B830A832C813D81232B59F7F5
:1010A000FC011082E8CF80E0E7CFEF92FF920F9330
:1010B0001F93CF93DF93EC017B018A01BA010E9459
:1010C0002D0828813981811114C02115310519F0AD
:1010D000C9010E948D15198218821D821C821B82F3
:1010E0001A82CE01DF91CF911F910F91FF90EF9067
:1010F00008951D830C83B701C9010E941117F1CF18
:10110000CF92DF92EF92FF920F931F93CF93DF93D3
:10111000D82FC62F0E94B10200917006109171065F
:101120002091720630917306DC01CB01801B910B7C
:10113000A20BB30B8C339105A105B10570F40CE340
:1011400010E020E030E068017901C81AD90AEA0A03
:10115000FB0AC701B6010E947F020E94B1026093A0
:10116000700670937106809372069093730660E028
:101170008D2F0E94FB0183E090E00197F1F761E081
:101180008D2F0E94FB0183E290E00197F1F760E070
:101190008D2F0E94FB01D0E0FE01E052FE4F6491D2
:1011A000FE01E656FE4FE491F0E0EE0FFF1FE0581F
:1011B000FE4F8591949100E21EE420E030E0462F3E
:1011C0000E94D30D6115710581059105B1F06F5F26
:1011D0007F4F8F4F9F4F9F7061157105810591055E
:1011E00061F02AE330E040E050E00E949413C9012E
:1011F00021503109283C310510F08FEF9FEFDF912E
:10120000CF911F910F91FF90EF90DF90CF900895B5
:101210008F929F92AF92BF92CF92DF92EF92FF9206
:101220000F931F93CF93DF93182FC62E87E0D82EEE
:10123000D0E0C0E098ECE92EF12C00E0812C912C5C
:1012400054016C2D812F0E9480081816190694F401
:10125000AC01092E000C660B770B840E951EA61EA2
:10126000B71E0F5F8E159F050CF47C01C817D907B8
:101270000CF4EC016CE370E080E090E00E947F02EF
:10128000DA94D110DECF073021F4CE19DF0923978D
:10129000F4F080EF92E00E944006612F70E090E051
:1012A00080E04AE00E94CC058CE992E00E94BF05F4
:1012B0008FEF9FEFDF91CF911F910F91FF90EF90F4
:1012C000DF90CF90BF90AF909F908F900895C50111
:1012D000B40127E030E040E050E00E946213C90111
:1012E000E9CFCF93DF9300D01F92CDB7DEB7109236
:1012F000100710920F07109274060E949B0581E15F
:1013000093E00E94470668EE73E080E090E00E9460
:101310007F0260915D0280915C020E9408099093B7
:10132000700280936F0264E670E080E090E00E94BB
:101330007F0260915F0280915E020E940809909393
:1013400072028093710264EF71E080E090E00E948D
:101350007F02BE016F5F7F4F8CE00E945906809331
:101360007406882361F049815A816B817C814093A6
:101370000A0750930B0760930C0770930D07209199
:101380006F0230917002121613063CF42091710224
:1013900030917202121613060CF080E080930F0752
:1013A0008CE293E00E9440068AE393E00E944006AC
:1013B00083E493E00E9440068AE393E00E944006A3
:1013C0008BE493E00E94400683E593E00E94470689
:1013D0008BE593E00E94400680916F02909170022D
:1013E0000E943A068CE992E00E94BF058BE793E0E9
:1013F0000E94400680917102909172020E943A060A
:101400008CE992E00E94BF0580917406882391F0D8
:101410008EE993E00E94400660910A0770910B07E5
:1014200080910C0790910D070E9410068CE992E0C4
:101430000E94BF0580917406811104C08AEB93E07D
:101440000E94470680910F078823B1F081E08093C6
:10145000100786ED93E00E94470685EE93E00E9418
:10146000470685EF93E00E9447060F900F900F907C
:101470000F90DF91CF91089582E094E0F4CFAF9286
:10148000BF92CF92DF92EF92FF920F931F93CF9371
:10149000DF9300D000D000D01F92CDB7DEB78AE135
:1014A00097E00E941B03181619060CF009C28AE186
:1014B00097E00E94F9024091BB075091BC078A3027
:1014C00019F08D3009F0D7C14115510541F31A8249
:1014D00019821C821B821E821D826091B707709147
:1014E000B8076115710521F0CE0101960E945508DB
:1014F000C980DA80C114D10431F00D811E817601DA
:1015000001151105B1F409811A810115110509F4BC
:1015100046C0F80181918F01882309F440C0082E4C
:10152000000C990B0E94F716F80131978083F1CFD8
:10153000750157018FEFA81AB80AF7018081082EAC
:10154000000C990B0E943212892B91F7015011095E
:101550000C0D1D1DF8018081082E000C990B0E94B6
:101560003212892B31F00E151F0518F001501109A8
:10157000F1CFA8014F5F5F4F4E195F095E834D8326
:10158000CE14DF0420F4B701C6010E94FF16E981E2
:10159000FA818D819E81E80FF91F1082B4CF61E737
:1015A00074E0CE0101960E941808182F811123C003
:1015B0006AE774E0CE0101960E94180881111BC0F1
:1015C00064E874E0CE0101960E941808811122C0DF
:1015D00062EC74E0CE0101960E941808882309F499
:1015E00083C080910F0780931007882309F479C086
:1015F00085EE93E00CC081E0111101C080E0809382
:101600000E078BE194E0111102C084E294E00E9485
:10161000470655C0BE01695F7F4F83E00E945906AF
:10162000882309F44CC08AE894E00E9440066F8148
:10163000788589859A850E9410068BE994E00E943E
:10164000400680917406882309F448C08EE294E035
:101650000E94400680917406882369F188EA94E02C
:101660000E94400660910A0770910B0780910C0759
:1016700090910D070E94100683EB94E00E944006B3
:101680006F81788589859A8500910A0710910B07EB
:1016900020910C0730910D07601B710B820B930B8F
:1016A0000E94421220E030E042ED53E40E943214E6
:1016B00042E00E9440078CE992E00E94BF058981C8
:1016C0009A81009711F00E948D1550E040E06EE97C
:1016D00072E087EB97E00E945508E1CE82E394E048
:1016E000B7CF85E394E093CF68EC74E0CE01019628
:1016F0000E941808811113C06DEC74E0CE010196B0
:101700000E94180881110BC063ED74E0CE010196B0
:101710000E9418088823A9F00E947109D0CF109266
:1017200010070E949B0568EC74E0CE0101960E94B0
:101730001808882319F08AE494E069CF8AE594E0D8
:1017400066CF6DED74E0CE0101960E9418088823E3
:1017500009F48EC084EE94E00E94400680910F0749
:10176000882309F47CC080911007882309F47AC08B
:1017700083E694E00E9440068CEE94E00E944006CE
:1017800080914302909144020E943A0689EF94E0CE
:101790000E94400680914702909148020E943A06BA
:1017A0008CE20E94A0038091490290914A020E941B
:1017B0003A068CE20E94A00380914B0290914C0269
:1017C0000E943A068BE095E00E9440068091170245
:1017D000909118020E943A0686E195E00E94400628
:1017E00080911B0290911C020E943A068CE20E949A
:1017F000A00380911D0290911E020E943A068CE285
:101800000E94A00380911F02909120020E943A063C
:1018100086E295E00E94400680916F0290917002EE
:101820000E943A0685E395E00E944006809171028D
:10183000909172020E943A0687E495E00E94400669
:101840008AE393E00E94400686E595E00E94400608
:1018500080917406882349F086EB95E0D8CE8BE31F
:1018600094E088CF86EB95E085CF8BE694E0CFCEF1
:1018700084E695E0CCCE4832510508F010CE89833D
:101880001A828A010F5F1F4FB80187EB97E00E9411
:101890002D08882309F403CE2091B7073091B807AB
:1018A0008091BB079091BC07BE016F5F7F4F820F95
:1018B000931F0E9411171093BC070093BB07EFCD35
:1018C0002A960FB6F894DEBF0FBECDBFDF91CF9141
:1018D0001F910F91FF90EF90DF90CF90BF90AF904E
:1018E00008951F920F920FB60F9211242F933F93DA
:1018F0008F939F93AF93BF9380911207909113079B
:10190000A0911407B09115073091110723E0230F20
:101910002D3758F50196A11DB11D20931107809315
:10192000120790931307A0931407B09315078091A3
:10193000160790911707A0911807B0911907019603
:10194000A11DB11D8093160790931707A093180748
:10195000B0931907BF91AF919F918F913F912F91B4
:101960000F900FBE0F901F90189526E8230F029638
:10197000A11DB11DD2CF1F920F920FB60F9211244D
:101980000BB60F922F933F934F935F936F937F9379
:101990008F939F93AF93BF93EF93FF938AE197E069
:1019A0000E943103FF91EF91BF91AF919F918F9171
:1019B0007F916F915F914F913F912F910F900BBE4F
:1019C0000F900FBE0F901F9018951F920F920FB699
:1019D0000F9211240BB60F922F938F939F93EF9337
:1019E000FF93E0912A07F0912B078081E091300767
:1019F000F091310782FD1DC09081809133078F5F88
:101A00008F7320913407821741F0E0913307F0E0A3
:101A1000E65EF84F958F80933307FF91EF919F918A
:101A20008F912F910F900BBE0F900FBE0F901F90B4
:101A300018958081F2CF1F920F920FB60F9211244A
:101A40000BB60F922F933F934F935F936F937F93B8
:101A50008F939F93AF93BF93EF93FF9348E251E02F
:101A600064E271E090E080E00E94E104FF91EF9178
:101A7000BF91AF919F918F917F916F915F914F91A6
:101A80003F912F910F900BBE0F900FBE0F901F90A4
:101A900018951F920F920FB60F9211240BB60F924A
:101AA0002F933F934F935F936F937F938F939F9366
:101AB000AF93BF93EF93FF9348EA50E064EA70E07E
:101AC00083E090E00E94E104FF91EF91BF91AF911C
:101AD0009F918F917F916F915F914F913F912F9146
:101AE0000F900BBE0F900FBE0F901F9018951F9276
:101AF0000F920FB60F9211240BB60F922F933F93B4
:101B00004F935F936F937F938F939F93AF93BF9305
:101B1000EF93FF9348E950E064E970E082E090E0E1
:101B20000E94E104FF91EF91BF91AF919F918F913E
:101B30007F916F915F914F913F912F910F900BBECD
:101B40000F900FBE0F901F9018951F920F920FB617
:101B50000F9211240BB60F922F933F934F935F93E5
:101B60006F937F938F939F93AF93BF93EF93FF9365
:101B700048E850E064E870E081E090E00E94E10411
:101B8000FF91EF91BF91AF919F918F917F916F9155
:101B90005F914F913F912F910F900BBE0F900FBE11
:101BA0000F901F901895CF92DF92EF92FF920F93B4
:101BB0001F93E82FF92F05C00150110921093109A0
:101BC00061F1908196239417B9F305C00150110972
:101BD0002109310911F1908196239413F7CFC12C7B
:101BE000D12CE12CF12C0AC08FEFC81AD80AE80AD0
:101BF000F80A0C151D052E053F0579F08081862316
:101C0000841791F36C2D7D2D8E2D9F2D1F910F919B
:101C1000FF90EF90DF90CF90089560E070E080E05B
:101C200090E01F910F91FF90EF90DF90CF9008957B
:101C3000FC0190917906903398F481E0890F8093AC
:101C400079069083892F90E0FC01EE0FFF1FE80FCB
:101C5000F91FE658F94F88EB9BE092838183089542
:101C60008FEF80830895EAE1F7E01382128288EE15
:101C700093E0A0E0B0E084839583A683B7838EE8E9
:101C800092E09183808385EC90E09587848784EC53
:101C900090E09787868780EC90E0918B808B81EC39
:101CA00090E0938B828B82EC90E0958B848B86EC1A
:101CB00090E0978B868B118E128E138E148E8CEC87
:101CC00097E00E94180E89EC97E00E94180E86ECAF
:101CD00097E00E94180E83EC97E00E94180E80ECAB
:101CE00097E00E94180E8DEB97E00E94180EE7EB2C
:101CF000F7E011821082138212821582148250E062
:101D000040E06EE972E0CF010C945508CF93DF9369
:101D100000D01F92CDB7DEB7789484B5826084BDC1
:101D200084B5816084BD85B5826085BD85B58160DF
:101D300085BD80916E00816080936E00109281005D
:101D40008091810082608093810080918100816018
:101D500080938100809180008160809380008091D9
:101D6000B10084608093B1008091B0008160809365
:101D7000B0008091910082608093910080919100E9
:101D800081608093910080919000816080939000A9
:101D90008091A10082608093A1008091A100816068
:101DA0008093A1008091A00081608093A000809129
:101DB00021018260809321018091210181608093C3
:101DC00021018091200181608093200180917A001F
:101DD000846080937A0080917A00826080937A0098
:101DE00080917A00816080937A0080917A00806887
:101DF00080937A001092C100E0912A07F0912B079E
:101E000082E08083E0912607F09127071082E0911D
:101E10002807F091290780E1808310923207E09132
:101E20002E07F0912F0786E08083E0912C07F09138
:101E30002D07808180618083E0912C07F0912D0730
:101E4000808188608083E0912C07F0912D0780814C
:101E500080688083E0912C07F0912D0780818F7D31
:101E6000808361E080915C020E94290260E08091A1
:101E70005D020E94290261E080915E020E942902B7
:101E800060E080915F020E94290260E080915C0224
:101E90000E94FB0160E080915E020E94FB0160E015
:101EA000809169020E94290261E080916A020E9489
:101EB000290260E080916A020E94FB016091600249
:101EC00070E080916B0290916C020E9459046091C5
:101ED000610270E080916D0290916E020E9459043F
:101EE0000E949B0564EF71E080E090E00E947F0219
:101EF0000E94710980910F07882321F08DE995E0F8
:101F00000E944706FF24F3940E943F0A8091100725
:101F1000882321F080910F07811109C064E170E0EE
:101F200080E090E00E947F020E94C503EDCF6EE149
:101F300070E080E090E00E947F026EE170E080E05F
:101F400090E00E947F0260915D0280915C020E949D
:101F500080088C01181619068CF480916F029091FC
:101F600070021816190654F4801B910B97FF03C0DA
:101F700091958195910921E003970CF420E08091DF
:101F80007B028111C7C01016110624F580916F02E3
:101F90009091700218161906ECF49801281B390B61
:101FA000C90102960597B0F480917A0281110AC0A6
:101FB0000E94B10260937C0270937D0280937E0246
:101FC00090937F0280917A02853030F48F5F809306
:101FD0007A0202C010927A021092790280917A02FB
:101FE0008530B8F00E94B10280907C0290907D0212
:101FF000A0907E02B0907F02681979098A099B0936
:10200000683E73408105910520F0F0927B021092AA
:102010007A0280910E078823A1F18CEB95E00E9453
:10202000400680915802909159020E94400686EC29
:1020300095E00E944006C8010E943A068BEC95E0AC
:102040000E94400680916F02909170020E943A06B1
:1020500086ED95E00E94400680917B0290E00E9410
:102060003A068EED95E00E9440066091790270E09C
:1020700090E080E04AE00E94CC058CE992E00E946A
:10208000BF0580917902833008F4FBC00E94B10241
:1020900000917C0210917D0220917E0230917F029E
:1020A000601B710B820B930B683C710581059105D8
:1020B00008F4E7C010927B0210927A021092790223
:1020C00086EE95E00E9447066AE070E080916B0220
:1020D00090916C020E94F6030E94B1024B015C01D8
:1020E0000E94B102681979098A099B09683B7B4003
:1020F0008105910508F04EC00E943F0A80911007AB
:10210000882309F4BEC06AE070E080E090E00E949D
:102110007F02E6CF222391F180917902811112C0D2
:102120000E94B10260937C0270937D0280937E02D4
:1021300090937F0210938302009382021093810296
:1021400000938002209180023091810202171307D0
:102150000CF49801309381022093800280918202D6
:1021600090918302801791070CF4C8019093830229
:1021700080938202821B930B03971CF010927902CA
:1021800048CF80917902833008F043CF8F5F8093EE
:1021900079023FCF80911007882309F472C00E9412
:1021A000B1022B013C01812C912CA12CB12C10E00F
:1021B0000E94B1026419750986099709683873414C
:1021C0008105910508F077C00E943F0A80911007B1
:1021D000882309F444C083E00E94F7066B01E82ECF
:1021E000092F20E030E040EA51E40E94D31487FD3B
:1021F00057C09401A501B6018E2D902F0E94C513E2
:102200004B015C0120E030E0A9010E94D3141816B4
:10221000ECF520E030E040EA50E4C501B4010E9452
:102220003B121816ECF11F5F1330D8F188E00E94C2
:10223000F7064B015C01AC019B010E94D81481118F
:102240000EC000916B0210916C0220E030E040EA79
:1022500051E4C501B4010E94D31487FF70C062EB42
:1022600070E080916B0290916C020E94F603809165
:102270001007882321F08CE396E00E944706109215
:10228000790268E270E080E090E04CCE20E030E03F
:1022900040EA50ECC501B4010E94D31487FFC3CFBC
:1022A00010E068E270E080E090E00E947F0246016A
:1022B000AE2CB02E7DCFBE016F5F7F4F83E00E94BA
:1022C0005906882361F28CEF95E00E9440066981EF
:1022D0007A818B819C810E94100688EA94E00E949A
:1022E000400660910A0770910B0780910C0790914E
:1022F0000D070E94100683EB94E00E94400669815E
:102300007A818B819C8100910A0710910B072091A3
:102310000C0730910D07601B710B820B930B0E9411
:10232000421220E030E042ED53E40E94321442E0D9
:102330000E9440078CE992E00E94BF0590CF62EBBB
:1023400070E0C8010E94F60386E196E00E94400614
:1023500020E030E04AE754E4C501B4010E943214A1
:1023600043E00E9440078CE992E00E94BF0566E9C5
:1023700070E080E090E00E947F0264E670E080916F
:102380006D0290916E020E94F60364E873E080E0B3
:1023900090E00E947F020E94B1024B015C0110E0BC
:1023A0000E94B102681979098A099B09683873414A
:1023B0008105910508F04BC00E943F0A009110076B
:1023C000002309F444C060915F0280915E020E9484
:1023D000800818161906A4F4209171023091720237
:1023E000121613066CF4281B390B2330310544F008
:1023F00010E068E270E080E090E00E947F02D0CFC1
:1024000082E00E94F70620E030E040E051E40E94C4
:102410003B1218166CF31F5F143058F36FEA70E02C
:1024200080916D0290916E020E94F6038AE795E01A
:10243000011102C089E895E00E94470610927902D6
:1024400068E572E080E090E00E947F021ACF00E031
:10245000E5CF8091B7079091B807009711F00C94E1
:102460008D15089591110C940E13803219F0895036
:102470008550C8F708950E947D1208F481E0089500
:10248000E89409C097FB3EF490958095709561950E
:102490007F4F8F4F9F4F9923A9F0F92F96E9BB27C4
:1024A0009395F695879577956795B795F111F8CF40
:1024B000FAF4BB0F11F460FF1BC06F5F7F4F8F4FAB
:1024C0009F4F16C0882311F096E911C0772321F0A1
:1024D0009EE8872F762F05C0662371F096E8862F39
:1024E00070E060E02AF09A95660F771F881FDAF790
:1024F000880F9695879597F90895990F0008550FBD
:10250000AA0BE0E8FEEF16161706E807F907C0F079
:1025100012161306E407F50798F0621B730B840B81
:10252000950B39F40A2661F0232B242B252B21F45B
:1025300008950A2609F4A140A6958FEF811D811DFB
:1025400008950E94B4120C9428130E941A1338F0B4
:102550000E94211320F0952311F00C9411130C9478
:10256000171311240C945C130E94391370F3959F78
:10257000C1F3950F50E0551F629FF001729FBB277A
:10258000F00DB11D639FAA27F00DB11DAA1F649F16
:102590006627B00DA11D661F829F2227B00DA11DC9
:1025A000621F739FB00DA11D621F839FA00D611D4F
:1025B000221F749F3327A00D611D231F849F600D70
:1025C000211D822F762F6A2F11249F5750409AF099
:1025D000F1F088234AF0EE0FFF1FBB1F661F771F25
:1025E000881F91505040A9F79E3F510580F00C94F0
:1025F00011130C945C135F3FE4F3983ED4F386957B
:1026000077956795B795F795E7959F5FC1F7FE2B8F
:10261000880F911D9695879597F908959927882792
:10262000089597F99F6780E870E060E008959FEF54
:1026300080EC089500240A94161617061806090659
:10264000089500240A941216130614060506089528
:10265000092E0394000C11F4882352F0BB0F40F4B0
:10266000BF2B11F460FF04C06F5F7F4F8F4F9F4FF0
:10267000089557FD9058440F551F59F05F3F71F072
:102680004795880F97FB991F61F09F3F79F08795D9
:102690000895121613061406551FF2CF4695F1DF62
:1026A00008C0161617061806991FF1CF86957105F2
:1026B000610508940895E894BB2766277727CB0126
:1026C00097F90895052E97FB1EF400940E94791344
:1026D00057FD07D00E94941307FC03D04EF40C94CE
:1026E000791350954095309521953F4F4F4F5F4F4F
:1026F000089590958095709561957F4F8F4F9F4F6E
:1027000008950E94B613A59F900DB49F900DA49FAD
:10271000800D911D11240895B7FF0C9481130E9420
:102720008113821B930B0895A1E21A2EAA1BBB1BD7
:10273000FD010DC0AA1FBB1FEE1FFF1FA217B3078D
:10274000E407F50720F0A21BB30BE40BF50B661FA3
:10275000771F881F991F1A9469F760957095809567
:1027600090959B01AC01BD01CF010895A29FB001DE
:10277000B39FC001A39F700D811D1124911DB29FB5
:10278000700D811D1124911D08955058BB27AA2753
:102790000E94DD130C9428130E941A1338F00E9433
:1027A000211320F039F49F3F19F426F40C941713E9
:1027B0000EF4E095E7FB0C941113E92F0E943913F6
:1027C00058F3BA17620773078407950720F079F466
:1027D000A6F50C945B130EF4E0950B2EBA2FA02DEA
:1027E0000B01B90190010C01CA01A0011124FF27BE
:1027F000591B99F0593F50F4503E68F11A16F040B9
:10280000A22F232F342F4427585FF3CF46953795B7
:102810002795A795F0405395C9F77EF41F16BA0B7C
:10282000620B730B840BBAF09150A1F0FF0FBB1F2A
:10283000661F771F881FC2F70EC0BA0F621F731F73
:10284000841F48F4879577956795B795F7959E3FD0
:1028500008F0B0CF9395880F08F09927EE0F979561
:10286000879508950E9446140C9428130E94211302
:1028700058F00E941A1340F029F45F3F29F00C949D
:10288000111351110C945C130C9417130E943913FB
:1028900068F39923B1F3552391F3951B550BBB278F
:1028A000AA2762177307840738F09F5F5F4F220FD4
:1028B000331F441FAA1FA9F335D00E2E3AF0E0E8CB
:1028C00032D091505040E695001CCAF72BD0FE2F15
:1028D00029D0660F771F881FBB1F261737074807A9
:1028E000AB07B0E809F0BB0B802DBF01FF27935861
:1028F0005F4F3AF09E3F510578F00C9411130C9401
:102900005C135F3FE4F3983ED4F386957795679523
:10291000B795F7959F5FC9F7880F911D9695879595
:1029200097F90895E1E0660F771F881FBB1F6217B4
:1029300073078407BA0720F0621B730B840BBA0B72
:10294000EE1F88F7E09508950E94411388F09F5785
:1029500098F0B92F9927B751B0F0E1F0660F771FC3
:10296000881F991F1AF0BA95C9F714C0B13091F0B9
:102970000E945B13B1E008950C945B13672F782FCE
:102980008827B85F39F0B93FCCF38695779567957E
:10299000B395D9F73EF490958095709561957F4FEA
:1029A0008F4F9F4F08950E947D1208F48FEF089576
:1029B0000E947D12880B990B0895991B79E004C041
:1029C000991F961708F0961B881F7A95C9F780956E
:1029D0000895EE0FFF1F881F8BBF0790F691E02D23
:1029E00019940F931F93CF93DF938230910510F4C6
:1029F00082E090E0E091D107F091D20730E020E052
:102A0000B0E0A0E0309799F42115310509F44AC0EF
:102A1000281B390B24303105D8F58A819B8161153B
:102A2000710589F1FB0193838283FE0111C040810E
:102A300051810281138148175907E0F0481759075F
:102A400099F4109761F012960C93129713961C93B9
:102A50003296CF01DF91CF911F910F91089500938E
:102A6000D1071093D207F4CF2115310551F0421749
:102A7000530738F0A901DB019A01BD01DF01F8011C
:102A8000C1CFEF01F9CF9093D2078093D107CDCF7B
:102A9000FE01E20FF31F8193919322503109398394
:102AA0002883D7CF2091CF073091D007232B41F433
:102AB00020918602309187023093D0072093CF0770
:102AC00020918402309185022115310541F42DB702
:102AD0003EB74091880250918902241B350BE0914A
:102AE000CF07F091D007E217F307A0F42E1B3F0B9E
:102AF0002817390778F0AC014E5F5F4F2417350770
:102B000048F04E0F5F1F5093D0074093CF0781933B
:102B100091939FCFF0E0E0E09CCFCF93DF930097BD
:102B2000E9F0FC01329713821282A091D107B09193
:102B3000D207ED0130E020E01097A1F4208131812F
:102B4000820F931F2091CF073091D00728173907A4
:102B500009F061C0F093D007E093CF07DF91CF91E8
:102B60000895EA01CE17DF07E8F54A815B819E01EF
:102B700041155105B1F7E901FB83EA834991599168
:102B8000C40FD51FEC17FD0761F480819181029677
:102B9000840F951FE90199838883828193819B83A8
:102BA0008A83F0E0E0E012968D919C911397009754
:102BB000B9F52D913C911197CD010296820F931F8B
:102BC0002091CF073091D0072817390739F6309771
:102BD00051F51092D2071092D107B093D007A0936D
:102BE000CF07BCCFD383C28340815181840F951F0F
:102BF000C817D90761F44E5F5F4F88819981480FEC
:102C0000591F518340838A819B819383828321153D
:102C1000310509F0B0CFF093D207E093D1079ECFF2
:102C2000FD01DC01C0CF13821282D7CF4F925F9299
:102C30006F927F928F929F92AF92BF92CF92DF92CC
:102C4000EF92FF920F931F93CF93DF938C01009726
:102C500099F4CB01DF91CF911F910F91FF90EF90ED
:102C6000DF90CF90BF90AF909F908F907F906F90AC
:102C70005F904F900C94F114FC01E60FF71F9C013C
:102C800022503109E217F30708F4AEC0D901CD9103
:102C9000DC911197C617D70720F1C530D10578F020
:102CA000CE0104978617970750F0C61BD70B2297C3
:102CB000C193D1936D937C93CF010E948D15C80170
:102CC000DF91CF911F910F91FF90EF90DF90CF9008
:102CD000BF90AF909F908F907F906F905F904F903C
:102CE00008955B01AC1ABD0A4C018C0E9D1EA0918B
:102CF000D107B091D207512C412CF12CE12C109727
:102D000031F58091CF079091D0078815990509F08A
:102D10005CC04616570608F058C080918402909116
:102D20008502009741F48DB79EB74091880250917B
:102D30008902841B950BE817F90708F055C0F0933A
:102D4000D007E093CF07F90171836083B8CF8D91ED
:102D50009C91119712966C90129713967C901397F2
:102D6000A815B90559F56C0142E0C40ED11CCA146E
:102D7000DB0420F1AC014A195B09DA0112961597C0
:102D800080F06282738251834083D9016D937C937A
:102D9000E114F10471F0D7011396FC93EE931297AE
:102DA0008ECF22968C0F9D1FF90191838083F301B2
:102DB000EFCFF093D207E093D10781CF48165906A1
:102DC00008F42C017D01D3019ACFCB010E94F114AC
:102DD0007C01009749F0AE01B8010E94FF16C801BE
:102DE0000E948D1587016BCF10E000E068CF911134
:102DF000089581568A5108F4805285580895FB0140
:102E0000DC0102C001900D9241505040D8F7089566
:102E1000FB01DC018D91019080190110D9F3990B10
:102E20000895FB01DC0101900D920020E1F7089567
:102E300011E0C7E3D1E000E006C0802FFE010E9450
:102E4000E9142196011DC833D10780E00807A9F7CE
:042E5000F894FFCF24
:102E540057065D06191A00001B1C1D1E1F2C2D2E63
:102E6400200000C607C307FFFFFFFFFFFFFFFFFFB0
:102E7400FF00000000000000000000006106610681
:102E8400090A00000B0C161718292A2B000000CC85
:102E940007C907FFFFFFFFFFFFFFFFFFFF00000061
:102EA40000000000000000006906690621222728AE
:102EB4002324000000000000002526C007BD07FFF2
:102EC400FFFFFFFFFFFFFFFFFF0000000000000007
:102ED400000000000000D30780000000000053033E
:102EE400BD02EA02A5031B03F9020D030D0A004506
:102EF40052524F523A48583731315F4E4F545F5215
:102F0400454144595F444F55545F4849474800453B
:102F140052524F523A48583731315F444F55545FFB
:102F24004E4F545F484947485F41465445525F52AB
:102F3400454144006E616E00696E66006F766600FE
:102F44004552524F523A554E535441424C455F43B9
:102F5400414C4942524154494F4E5F545249473AB9
:102F64000043414C4942524154494F4E3A52454D17
:102F74004F56455F4F424A45435453004D4F4445D5
:102F84003A504C41535449433A0044495341424C0A
:102F94004544003B4D4554414C3A003B504150455B
:102FA400523A00454E41424C45440043414C49424B
:102FB400524154494F4E3A50415045525F544F503C
:102FC4005F454D5054595F434D3A0043414C49428B
:102FD400524154494F4E3A50415045525F424F542A
:102FE400544F4D5F454D5054595F434D3A00434152
:102FF4004C4942524154494F4E3A50415045525F18
:10300400544152455F5241573A004552524F523A49
:1030140050415045525F5343414C455F4E4F545FBE
:1030240052454144590043414C4942524154494F4D
:103034004E3A4F4B004D414348494E453A53544153
:1030440052544544004D414348494E453A49444C45
:1030540045004552524F523A43414C494252415421
:10306400494F4E5F4641494C45440044454255470B
:103074003A4F4E0044454255473A4F46460059455B
:1030840053004E4F004552524F523A4E4F545F43F5
:10309400414C49425241544544004D414348494EF4
:1030A400453A53544F505045440052455345543AC1
:1030B4004F4B0052554E4E494E47004552524F52C7
:1030C400004445425547204F4E0044454255472051
:1030D4004F4646005343414C450050415045523AF7
:1030E4005343414C455F5241573A003B544152458A
:1030F4005F56414C49443A003B544152455F52416A
:10310400573A003B5349474E45445F4752414D535C
:103114003A0053544152540053544F5000524553B3
:1031240045540043414C4942524154450053544193
:10313400545553005354415455533A003B504C4159
:10314400535449435F434D3A003B504C4153544917
:10315400435F53495A455F434D3A003B4D45544103
:103164004C5F434D3A003B4D4554414C5F53495AE3
:10317400455F434D3A003B50415045525F544F50D8
:103184005F434D3A003B50415045525F424F5454C7
:103194004F4D5F434D3A003B4D4554414C5F5345C1
:1031A4004E534F523A003B50415045525F534341B6
:1031B4004C453A004552524F523A554E4B4E4F579A
:1031C4004E5F434F4D4D414E4400424F54544C4585
:1031D4003A434C4541524544004552524F523A43BA
:1031E4004C4541525F54494D454F55540052564D3C
:1031F4003A454E41424C45445F434F4D5041525431
:103204004D454E54535F524541445900454E545226
:10321400414E43453A003B434D3A003B454D5054E3
:10322400595F434D3A003B41524D45443A003B43BC
:103234004F554E543A0050415045523A4F424A4538
:1032440043545F444554454354454400504150451C
:10325400523A5745494748545F54494D454F555490
:103264005F5241573A0053495A453A5745494748EE
:10327400543B4D4154455249414C3A5041504552BA
:103284003B5745494748545F4B473A004552524FD4
:10329400523A50415045525F5745494748545F544C
:1032A400494D454F5554004D4554414C0043414E02
:1032B40000504C4153544943005041504552000082
:00000001FF
