:020000040000FA
:100000000C9438010C9469010C9469010C946901F9
:100010000C9469010C9469010C9469010C946901B8
:100020000C9469010C9469010C9469010C946901A8
:100030000C9469010C9469010C9469010C94690198
:100040000C9469010C94DC0F0C9469010C94690107
:100050000C9469010C9469010C9469010C94A80E2C
:100060000C9469010C941C0F0C94F20E0C94690111
:100070000C9469010C9469010C9469010C94690158
:100080000C94AE0F0C9469010C9469010C946901F5
:100090000C9469010C9469010C9469010C94690138
:1000A0000C9469010C9469010C94800F0C94690103
:1000B0000C9469010C9469010C9469010C94520F21
:1000C0000C9469010C9469010C9469010C94690108
:1000D0000C9469010C9469010C9469010C946901F8
:1000E0000C9469010C9497010C949E010C94B60138
:1000F0000C94B0030C9493010C94C0010C94CA01AD
:100100000C94A4010C94AE010C94B2010C94CE0199
:100110000C9418030C948F010C94BC010C943017B0
:100120000C946A100C94C9010C9404030C94C4013F
:100130000C94F5020C94A8010C945E030C949B01A2
:100140000C9426030C9489010C94C8020000210031
:10015000240027002A002D00300033000101000098
:10016000040107010A0100002200250028002B00DD
:100170002E003100340002010000050108010B01CE
:10018000000020002300260029002C002F00320050
:100190000001000003010601090105050505070529
:1001A00008080808020202020A0A080804040404F3
:1001B000010101010101010103030303030303031F
:1001C000040707070C0C0C0C0C0C0C0C02020202AE
:1001D00006060606060606060B0B0B0B0B0B0B0B97
:1001E0000102102020080810204010204080020149
:1001F000020108040201010204081020408080402E
:10020000201008040201800402018040201008042C
:1002100002010804020101020408102040800102CA
:1002200004081020408000000A0B02090C0D0E0883
:1002300007030401000000000000000000000000AF
:1002400000000000000000000000000000000000AE
:10025000000012111000000000000000000000006B
:100260000000000000000000000000006A103017CD
:1002700011241FBECFEFD1E2DEBFCDBF00E00CBF27
:1002800018E0A0E0B2E0E2E6F8E300E00BBF02C055
:1002900007900D92A230B107D9F729E0A2E0B8E0AB
:1002A00001C01D92AE36B207E1F711E0C7E3D1E01D
:1002B00000E006C021970109802FFE010E94F0197D
:1002C000C633D10780E00807A9F70E94BD100C943F
:1002D0001F1C0C9400008150823108F05AC0E82F96
:1002E000F0E08827E958FE4F8F4F0C94F0199701E2
:1002F0009B0189018F019301C9019E01A401A801FD
:10030000AE01B201B601BC01C001C901C401CA01FC
:10031000CE01809180008F77809380000895809136
:1003200080008F7DF9CF80918000877FF5CF84B5E5
:100330008F7784BD089584B58F7DFBCF8091B00009
:100340008F778093B00008958091B0008F7DF9CFB2
:10035000809190008F778093900008958091900015
:100360008F7DF9CF80919000877FF5CF8091A0009D
:100370008F778093A00008958091A0008F7DF9CFA2
:100380008091A000877FF5CF809120018F778093A7
:1003900020010895809120018F7DF9CF8091200167
:1003A000877FF5CFCF93DF93282F30E0F901EA5D07
:1003B000FD4F8491F901E052FE4FD491F901E656C8
:1003C000FE4FC491CC23A1F081110E946B01EC2F50
:1003D000F0E0EE0FFF1FE058FE4FA591B491EC91B5
:1003E000ED2381E090E009F480E0DF91CF91089562
:1003F00080E090E0FACF1F93CF93DF93282F30E077
:10040000F901EA5DFD4F8491F901E052FE4FD4916C
:10041000F901E656FE4FC491CC23A9F0162F8111A5
:100420000E946B01EC2FF0E0EE0FFF1FEA59FE4F28
:10043000A591B4918FB7F894EC91111108C0D095A3
:10044000DE23DC938FBFDF91CF911F910895DE2BC8
:10045000F8CFCF93DF9390E0FC01E052FE4F249160
:1004600086569E4FFC0184918823C9F090E0880F46
:10047000991FFC01E45BFE4FA591B491FC01EA5980
:10048000FE4FC591D49161110DC09FB7F8948C9126
:10049000209582238C938881282328839FBFDF9116
:1004A000CF910895623051F49FB7F8943C91822F18
:1004B000809583238C93E8812E2BEFCF8FB7F89410
:1004C000EC912E2B2C938FBFEACF3FB7F8948091FD
:1004D000B1089091B208A091B308B091B40826B5C4
:1004E000A89B05C02F3F19F00196A11DB11D3FBF6C
:1004F000BA2FA92F982F8827BC01CD01620F711D3B
:10050000811D911D42E0660F771F881F991F4A9534
:10051000D1F708958F929F92AF92BF92CF92DF92C0
:10052000EF92FF924B015C010E9465026B017C011E
:100530000E9465026C197D098E099F09683E73400F
:1005400081059105A8F321E0821A9108A108B1085C
:1005500088EEC80E83E0D81EE11CF11C81149104C2
:10056000A104B10429F7FF90EF90DF90CF90BF90E6
:10057000AF909F908F9008952FB7F8946091AD0839
:100580007091AE088091AF089091B0082FBF089588
:10059000AF92BF92CF92DF92EF92FF920F931F9391
:1005A000CF93DF936C017B018B01040F151FEB01CF
:1005B0005E01AE18BF08C017D10759F06991D60186
:1005C000ED91FC910190F081E02DC6011995892BE8
:1005D00079F7C501DF91CF911F910F91FF90EF90B7
:1005E000DF90CF90BF90AF900895FC01538D448D64
:1005F000252F30E0842F90E0821B930B541710F0CE
:10060000CF96089501970895FC01918D828D9817DA
:1006100061F0A28DAE0FBF2FB11D5D968C91928DB2
:100620009F5F9F73928F90E008958FEF9FEF0895E3
:10063000FC01918D828D981731F0828DE80FF11DAC
:10064000858D90E008958FEF9FEF0895FC01918DC7
:10065000228D892F90E0805C9F4F821B91098F73C0
:100660009927089585EB98E00E94260321E0892BC5
:1006700009F420E0822F0895FC01A48DA80FB92F62
:10068000B11DA35ABF4F2C91848D90E001968F73BA
:100690009927848FA689B7892C93A089B1898C91D9
:1006A000837080648C93938D848D981306C0028828
:1006B000F389E02D80818F7D80830895EF92FF92F2
:1006C0000F931F93CF93DF93EC0181E0888F9B8D75
:1006D0008C8D98131AC0E889F989808185FF15C02F
:1006E0009FB7F894EE89FF896083E889F989808152
:1006F0008370806480839FBF81E090E0DF91CF9121
:100700001F910F91FF90EF900895F62E0B8D10E042
:100710000F5F1F4F0F731127E02E8C8D8E110CC0B1
:100720000FB607FCFACFE889F989808185FFF5CFFC
:10073000CE010E943C03F1CFEB8DEC0FFD2FF11D9C
:10074000E35AFF4FF0829FB7F8940B8FEA89FB8939
:1007500080818062CFCF682F85EB98E00C945E0398
:10076000CF93DF93EC01888D8823B9F0AA89BB89E8
:10077000E889F9898C9185FD03C0808186FD0DC0D3
:100780000FB607FCF7CF8C9185FFF2CF808185FFF4
:10079000EDCFCE010E943C03E9CFDF91CF910895C8
:1007A00080E090E0892B29F00E94320381110E94A1
:1007B000000080E090E0892B49F080E090E0892BF8
:1007C00029F00E94000081110E94000080E090E06A
:1007D000892B49F080E090E0892B29F00E940000ED
:1007E00081110E94000080E090E0892B49F080E0B8
:1007F00090E0892B29F00E94000081110C940000E8
:1008000008958F929F92AF92BF92FF920F931F9382
:10081000CF93DF93FC01F0808FE28F1508F44AC07C
:10082000828108E512E0081B110987FD1395000F6E
:10083000111F000F111F8181C8E8D0E0C81BD1092A
:1008400087FDD395CC0FDD1FCC0FDD1F4E010D2E84
:10085000000CAA08BB089801012E000C440B550B94
:10086000281939094A095B09DB010E94931824EB16
:1008700030E040E050E00E946918820E931EA41EF2
:10088000B51E8C169D062CF0E801801691060CF41E
:10089000E4012297CC0FDD1F2FB7F8948F2D90E045
:1008A000FC01EE0FFF1FE80FF91FEA5EF74FD2833E
:1008B000C1832FBFDF91CF911F910F91FF90BF9008
:1008C000AF909F908F9008951F93CF93DF93EC018B
:1008D000162F8881803308F04EC061E0812F0E947E
:1008E00029028881282F30E0F901EE0FFF1FE20F67
:1008F000F31FEA5EF74F1F736081607C612B60839A
:1009000019821A822CE0622F0E94E419829FB001A2
:10091000112430E020E0AB01420F531FFA01EE0F2B
:10092000FF1FE40FF51FEA5EF74F908196FD16C09A
:100930002F5F3F4F2C30310571F7813009F5109250
:10094000800082E0809381001092850010928400E4
:10095000B19A80916F00826080936F00E8818E2F42
:1009600090E0FC01EE0FFF1FE80FF91FEA5EF74F62
:100970008081806480838881DF91CF911F91089569
:10098000823061F410929000809391001092950053
:100990001092940088BB80937100E0CF833069F49B
:1009A0001092A00082E08093A1001092A500109206
:1009B000A40089BB80937200D1CF8111CFCF109258
:1009C000200182E0809321011092250110922401E0
:1009D0008ABB80937300C2CFAF92BF92CF92DF9257
:1009E000EF92FF920F931F93CF93DF936B017A01E6
:1009F000EC01CF5ED74F28813CE0389F8001399FC2
:100A0000100D1124A0901508B12C27FF1FC0FB0169
:100A10001182108288818F5F888388819801280FD6
:100A2000311D87FD3A95F6012A153B051CF4888196
:100A30008C30C4F180819181049680349C4908F403
:100A400073C0F60180819181049670C088819801FD
:100A5000280F311D87FD3A952A153B05DCF6888164
:100A6000A801480F511D87FD5A95FA01EE0FFF1F8F
:100A7000E40FF51FEA5EF74F808186FFCBCF8881B8
:100A8000F801E80FF11D87FDFA95CF01EE0FFF1F6A
:100A9000E80FF91FEA5EF74F808160E08F730E94D4
:100AA000FB01B8CF808191812881A801420F511D9F
:100AB00027FD5A959A01FA01EE0FFF1FE20FF31F6F
:100AC000EA5EF74F21813281820F931FF7019183F4
:100AD000808388819801280F311D87FD3A95F9019F
:100AE000EE0FFF1FE20FF31FEA5EF74F808186FFD4
:100AF00022C08881080F111D87FD1A95F801EE0F9D
:100B0000FF1FE00FF11FEA5EF74F808161E08F73F6
:100B1000DF91CF911F910F91FF90EF90DF90CF90D9
:100B2000BF90AF900C94FB0180E49CE9F7019183A6
:100B300080838FEF8883DF91CF911F910F91FF907A
:100B4000EF90DF90CF90BF90AF900895CF93DF9359
:100B5000C1E0D2E062EB70E08B899C890E940104C5
:100B600070E060E08D899E89DF91CF910C94010443
:100B7000CF93DF93A9E6B2E091961C929197E5E3BB
:100B8000F2E011A2C1E0D2E019A292961C929297D3
:100B900012A21AA293961C9213A21BA262EB70E0FF
:100BA0008B899C890E94010470E060E08D899E8998
:100BB000DF91CF910C940104CF92DF92EF92FF92DC
:100BC0000F931F93CF93DF93EC01862F0E94D201E6
:100BD0008C01FF24F394892B09F0F12C8EA58F153D
:100BE00039F0FEA60E94BC026FA778AB89AB9AAB26
:100BF0008DA58F1581F10E94BC02CFA4D8A8E9A8C9
:100C0000FAA8DC01CB018C199D09AE09BF09012BA3
:100C100039F0803D9740A105B105E8F01DA618C048
:100C2000843F9140A105B105B0F081E08DA72091EE
:100C3000A8083091A9082C173D0711F48093A70844
:100C40001AA219A21BA2C150D24011F40E94A605FB
:100C500081E080930002DF91CF911F910F91FF906F
:100C6000EF90DF90CF9008950F931F93CF936FE293
:100C700081E092E00E94DC0560E385E392E00E945F
:100C8000DC0561E389E692E00E94DC0582E30E94D4
:100C9000D201C1E0892B09F0C0E0809107088C17D0
:100CA00061F0C09307080E94BC0260930308709330
:100CB00004088093050890930608809102088C1719
:100CC000C1F00E94BC020091030810910408209119
:100CD000050830910608601B710B820B930B683E70
:100CE00073408105910528F0C093020881E080934C
:100CF0000002CF911F910F9108958150924049F4C5
:100D000080912D02811105C080912E0291E08927EA
:100D1000089580E008958091AB08882379F0909140
:100D2000A70891110AC02091A8083091A90821159F
:100D3000310521F0C9010C947D0680E00895FC0185
:100D400001900020E9F73197AF01481B590BBC0116
:100D500085EB98E00C94C8028F929F92AF92BF925D
:100D60000F931F93CF93DF93CDB7DEB7A1970FB645
:100D7000F894DEBF0FBECDBF19A2423008F44AE09E
:100D80008E010F5D1F4F842E912CB12CA12CA5013B
:100D900094010E949B18E62FB901CA01EA30F4F4CD
:100DA000E05DD801EE938D01232B242B252B79F7C1
:100DB00090E080E0109719F0CD010E949F06A19667
:100DC0000FB6F894DEBF0FBECDBFDF91CF911F915C
:100DD0000F91BF90AF909F908F900895E95CE1CF05
:100DE000CF92DF92EF92FF92CF93DF9397FF19C0DC
:100DF0006B017C018DE20E94AB03EC016627772733
:100E0000CB016C197D098E099F094AE00E94AC064E
:100E10008C0F9D1FDF91CF91FF90EF90DF90CF90CF
:100E200008954AE0DF91CF91FF90EF90DF90CF904F
:100E30000C94AC06BC01990F880B990B0C94F0062E
:100E4000009711F00C949F0690E080E00895CF93F6
:100E5000DF93D0E0C0E0009719F00E949F06EC01FC
:100E60008BEB92E00E949F068C0F9D1FDF91CF912C
:100E700008956F927F928F929F92AF92BF92CF927E
:100E8000DF92EF92FF920F931F93CF93DF93182F70
:100E9000EB01812C912C540100E00E94BC026B01FB
:100EA0007C0180917A020E94D2010197D1F40E94C4
:100EB000BC026C197D098E099F09683E734081054B
:100EC000910578F40E9434068091A8089091A908B1
:100ED000892B09F561E070E080E090E00E948A02D1
:100EE000E0CF80917A020E94D201892BC9F08EEB6B
:100EF00092E00E94270780E0DF91CF911F910F9130
:100F0000FF90EF90DF90CF90BF90AF909F908F9029
:100F10007F906F9008950E948B068111DBCFE7CF01
:100F200098E1792EC12CD12C76016FB6F89461E04E
:100F300080917B020E94FB01CC0CDD1CEE1CFF1C8F
:100F400080917A020E94D201092E000CAA0BBB0BE1
:100F5000C82AD92AEA2AFB2A60E080917B020E94F3
:100F6000FB016FBE7A947110E0CF7FB6F89461E018
:100F700080917B020E94FB0160E080917B020E94D5
:100F8000FB017FBE80917A020E94D201019719F085
:100F90008EED92E0AECFE7FE02C0FF24FA948C0CF7
:100FA0009D1CAE1CBF1C0F5F101377CF212F30E0AC
:100FB00050E040E0C501B4010E94691828833983DC
:100FC0004A835B8381E098CFCF92DF92EF92FF92CA
:100FD000CF93DF9300D01F92CDB7DEB7BE016F5F16
:100FE0007F4F0E943907882329F169817A818B819B
:100FF0009C810E94491720E030E042ED53E40E94BA
:1010000039196B017C0120E030E0A9010E94DA1956
:1010100018161CF0C12CD12C7601C701B6010F9017
:101020000F900F900F90DF91CF91FF90EF90DF9096
:10103000CF900895C12CD12C80ECE82E8FE7F82EAC
:10104000ECCFCF93DF93EC0181ED97E00E94200776
:10105000888199810E94200788E093E00E94200700
:1010600082E0C130D807A9F480912D02811111C00E
:1010700086E394E00E94200782E193E00E9420072B
:101080008DA5811109C088E293E0DF91CF910C9486
:10109000270788E694E0EECF83E093E0F6CF81E087
:1010A00092E00E94210885E392E00E94210889E6EF
:1010B00092E00E94210880910208811107C084E219
:1010C00093E00E94270710920002089588E193E0C0
:1010D000F8CF0F931F93CF93DF93EC018CA5811171
:1010E0002AC081E08CA72091A8083091A908C217D6
:1010F000D30711F48093A7088B011AA219A21BA28F
:1011000082E0C130D80711F40E94A6058EE293E078
:101110000E942007888199810E9420078BE30E940A
:10112000AB03C8010E942707CE01DF91CF911F9129
:101130000F910C942108DF91CF911F910F91089589
:10114000CF93DF930E941A07EC018BEB92E00E9491
:101150009F068C0F9D1FDF91CF9108954F925F9254
:101160006F927F928F929F92AF92BF92CF92DF92B7
:10117000EF92FF921F93CF93DF936B017C01D42FEB
:10118000AC019B010E94DF198823D9F085E393E02D
:101190000E949F06EC018BEB92E00E949F068C0F51
:1011A0009D1FDF91CF911F91FF90EF90DF90CF9027
:1011B000BF90AF909F908F907F906F905F904F9077
:1011C000089546015701E894B7F82FEF3FEF4FE736
:1011D0005FE7C501B4010E94DF1981110DC02FEF37
:1011E0003FEF4FE75FE7C501B4010E9442171816B1
:1011F0001CF489E393E0CCCF2FEF3FEF4FE75FE4A0
:10120000C701B6010E94DA1918161CF48DE393E0A9
:10121000BFCF2FEF3FEF4FE75FECC701B6010E9452
:10122000421787FDF3CF20E030E0A901C701B601E6
:101230000E944217B12CA12C87FF08C08DE20E94AA
:10124000AB035C01F7FAF094F7F8F0941D2F60E01F
:1012500070E080E09FE3C0E020E030E040E251E455
:101260000E943919CF5FCD17B8F3A70196010E94EC
:10127000CD186B017C010E94AB192B013C010E942F
:1012800047179B01AC01C701B6010E94CC186B0146
:101290007C014AE0C301B2010E94AC06EC018EE27F
:1012A0000E94AB03C80FD91FCA0DDB1D115008F4F3
:1012B00072CF20E030E040E251E4C701B6010E9465
:1012C000A8174B015C010E94AB196B01F12CE12CBA
:1012D0004AE0C701B6010E94AC06C80FD91FC7017A
:1012E000B6010E9447179B01AC01C501B4010E94E1
:1012F000CC186B017C01DACFFC0124813581232BD2
:1013000039F421E0FB018081882349F020E007C007
:10131000808191810E940F1C21E0892BB9F7822FD7
:1013200008950F931F93CF93DF93EC0188819981E8
:10133000009759F02A813B812617370730F081E06A
:10134000DF91CF911F910F9108958B016F5F7F4FB8
:101350000E941D1B009759F0998388831B830A8381
:101360002C813D81232B59F7FC011082E8CF80E0CE
:10137000E7CFEF92FF920F931F93CF93DF93EC0190
:101380007B018A01BA010E9491092881398181116A
:1013900014C02115310519F0C9010E94941A19824F
:1013A00018821D821C821B821A82CE01DF91CF918E
:1013B0001F910F91FF90EF9008951D830C83B7014B
:1013C000C9010E94181CF1CFCF92DF92EF92FF92D9
:1013D0000F931F93CF93DF93D82FC62F0E9434060D
:1013E0000E94BC02009108081091090820910A0887
:1013F00030910B08DC01CB01801B910BA20BB30BCE
:101400008C339105A105B10570F40CE310E020E0E8
:1014100030E068017901C81AD90AEA0AFB0AC70153
:10142000B6010E948A020E94BC0260930808709371
:10143000090880930A0890930B0860E08D2F0E94A2
:10144000FB0183E090E00197F1F761E08D2F0E94AE
:10145000FB0183E290E00197F1F760E08D2F0E949D
:10146000FB01D0E0FE01E052FE4F6491FE01E65622
:10147000FE4FE491F0E0EE0FFF1FE058FE4F859124
:10148000949100E21EE420E030E0462F0E940A1012
:101490006115710581059105B1F06F5F7F4F8F4F29
:1014A0009F4F9F70611571058105910561F02AE3D9
:1014B00030E040E050E00E949B18C9012150310902
:1014C000283C310510F08FEF9FEFDF91CF911F91F6
:1014D0000F91FF90EF90DF90CF9008957F928F92C1
:1014E0009F92AF92BF92CF92DF92EF92FF920F93B3
:1014F0001F93CF93DF93D82F762E842E912C10E05C
:1015000000E088ECA82EB12CC0E0C12CD12C7601D3
:10151000672D8D2F0E94E4091816190694F4AC016A
:10152000092E000C660B770BC40ED51EE61EF71EA7
:10153000CF5F8A159B050CF45C01081719070CF4A2
:101540008C016CE370E080E090E00E948A0293944A
:101550008910DECFC81105C00A191B090330110517
:10156000FCF081E493E00E9420076D2F70E090E092
:1015700080E04AE00E94AC068BEB92E00E949F065E
:101580008FEF9FEFDF91CF911F910F91FF90EF9021
:10159000DF90CF90BF90AF909F908F907F900895F5
:1015A0002C2F30E050E040E0C701B6010E946918DE
:1015B000C901E8CFCF9381E0809310081092AB0867
:1015C0001092AA080E94B80582E693E00E942707BD
:1015D00068EE73E080E090E00E948A0247E060914C
:1015E0000602809105020E946E0A90931902809370
:1015F000180264E670E080E090E00E948A0245E014
:1016000060910C0280910B020E946E0A90931D0261
:1016100080931C0264E670E080E090E00E948A0201
:1016200045E060910E0280910D020E946E0A909337
:101630001F0280931E0264E670E080E090E00E944A
:101640008A0245E06091100280910F020E946E0AAA
:101650009C01909321028093200280911802909126
:101660001902181619060CF07EC080911C02909188
:101670001D02181619060CF076C080911E0290917A
:101680001F02181619060CF06EC091E01216130610
:101690000CF490E090932D02C1E0C0936102C093DE
:1016A000950210929C0210926802109234029C27BC
:1016B0009093AA08109210080E9434060E944F08C6
:1016C0008DE793E00E9420078BE893E00E942007BB
:1016D00083E993E00E9420078EEF94E00E942007A8
:1016E0008BE993E00E9420078EEF94E00E94270789
:1016F00083EA93E00E9420078091180290911902DA
:101700000E94A00881EC93E00E94200780911C02B7
:1017100090911D020E94A00885EE93E00E94200790
:1017200080911E0290911F020E94A00889E094E01F
:101730000E94200780912002909121020E94A0081F
:101740008091AA08882389F0C093AB088AE294E0CC
:101750000E94270789E394E00E94270789E494E028
:10176000CF910C94270791E095CF86E594E0F8CFD0
:10177000AF92BF92CF92DF92EF92FF920F931F939F
:10178000CF93DF9300D000D0CDB7DEB70E943406F0
:1017900080911008811111C080910002882309F402
:1017A00055C00E94BC0260930C0870930D08809392
:1017B0000E0890930F080E944F0885EB98E00E9456
:1017C0002603181619060CF0DEC185EB98E00E947E
:1017D000040340915609509157098A3019F08D3011
:1017E00009F0ACC14115510541F31A8219821C82DE
:1017F0001B821E821D8260915209709153096115EE
:10180000710521F0CE0101960E94B909C980DA80E4
:10181000C114D10431F00D811E817601011511052D
:1018200059F509811A810115110509F45BC0F80108
:1018300081918F01882309F455C0082E000C990B63
:101840000E94FE1BF80131978083F1CF0E94BC02F9
:1018500000910C0810910D0820910E0830910F088E
:10186000601B710B820B930B603D774081059105E6
:1018700008F097CFA2CF750157018FEFA81AB80AC9
:10188000F7018081082E000C990B0E943917892BD3
:1018900091F7015011090C0D1D1DF8018081082ED2
:1018A000000C990B0E943917892B31F00E151F057A
:1018B00018F001501109F1CFA8014F5F5F4F4E1989
:1018C0005F095E834D83CE14DF0420F4B701C601A7
:1018D0000E94061CE981FA818D819E81E80FF91F23
:1018E00010829FCF80911008811106C08091A808B6
:1018F0009091A908892BA9F063E677E0CE010196C3
:101900000E947C09811108C068EB74E0CE01019649
:101910000E947C09882329F082EC94E00E9427072A
:1019200057C069ED74E0CE0101960E947C09182F22
:10193000811113C062EE74E0CE0101960E947C0911
:1019400081110BC06CEE74E0CE0101960E947C09FF
:10195000882381F082EF94E0E1CF81E0111101C092
:1019600080E08093A6088FE694E01111D7CF88E736
:1019700094E0D4CF63E677E0CE0101960E947C0923
:10198000882361F08091AA088093AB08882319F01E
:1019900089E394E0C3CF82E894E0C0CF67E075E0CC
:1019A000CE0101960E947C09811121C06CE075E096
:1019B000CE0101960E947C09811119C068EB74E088
:1019C000CE0101960E947C09882319F10E94DA0A4F
:1019D00089819A81009711F00E94941A50E040E0AA
:1019E0006DEB72E082E599E00E94B909E6CE1092B3
:1019F000AB080E94B80567E075E0CE0101960E9431
:101A00007C09882319F087E994E088CF87EA94E07D
:101A100085CF62E175E0CE0101960E947C098823A2
:101A200009F489C00E944F0889E195E00E942007CF
:101A30008091AA08882309F478C08091AB08882394
:101A400009F476C080EB94E00E94200781E295E0E3
:101A50000E94200780911802909119020E941A0793
:101A60008EE295E00E94200780911C0290911D0259
:101A70000E941A078CE20E94AB0380911E02909193
:101A80001F020E941A078CE20E94AB038091200281
:101A9000909121020E941A0780E495E00E9420079D
:101AA00080914C0290914D020E941A078BE495E0C0
:101AB0000E94200780915002909151020E941A07C3
:101AC0008CE20E94AB0380915202909153020E94DB
:101AD0001A078CE20E94AB03809154029091550248
:101AE0000E941A078BE595E00E94200780918002F2
:101AF000909181020E941A078AE695E00E942007D1
:101B000080918202909183020E941A078CE795E0EF
:101B10000E9420078EEF94E00E9420078BE895E05A
:101B20000E9420078EEF94E0F9CE88E894E08CCFF5
:101B300083E196E089CF89E995E0F0CE48325105FE
:101B400008F03BCE89831A828A010F5F1F4FB801CC
:101B500082E599E00E949109882309F42ECE209114
:101B60005209309153098091560990915709BE014D
:101B70006F5F7F4F820F931F0E94181C10935709AD
:101B8000009356091ACE26960FB6F894DEBF0FBE04
:101B9000CDBFDF91CF911F910F91FF90EF90DF901C
:101BA000CF90BF90AF900895CF92DF92EF92FF92C7
:101BB0006B017C010E94BC026C197D098E099F0992
:101BC000683B7B408105910568F40E94B80B0E9438
:101BD0008B06882369F06AE070E080E090E00E9464
:101BE0008A02E8CFFF90EF90DF90CF900C948B06A5
:101BF00080E0FF90EF90DF90CF9008958F929F92BA
:101C0000AF92BF92CF92DF92EF92FF924B015C01B5
:101C10000E94BC026B017C010E94BC026C197D0910
:101C20008E099F09681579058A059B0568F40E944D
:101C3000B80B0E948B06882389F065E070E080E095
:101C400090E00E948A02E8CFFF90EF90DF90CF9063
:101C5000BF90AF909F908F900C948B0680E0FF9088
:101C6000EF90DF90CF90BF90AF909F908F900895AE
:101C7000AF92BF92CF92DF92EF92FF920F931F939A
:101C8000CF93DF936C01EB01B42EA22E78018FEA83
:101C900095E00E942007F601808191810E94200733
:101CA00087EB95E00E942007CE010E9420078FEB72
:101CB00095E00E942007C8010E941A078AEC95E06F
:101CC0000E942007C0E010E0D0E06A2D8B2D0E941A
:101CD000E4096C01CC2319F08CE20E94AB03C6012D
:101CE0000E941A071C141D0454F41E141F043CF413
:101CF000C7018C199D098330910514F1DF5FCF5F17
:101D0000C33019F7D23008F5C1E0D0E0123010F03E
:101D1000D0E0C0E0D195C195D10988ED95E00E9451
:101D20002007CE010E94A008CE01DF91CF911F9124
:101D30000F91FF90EF90DF90CF90BF90AF900895FC
:101D400002960597E0F61F5FDACFC1E0D0E0E5CF5D
:101D50001F920F920FB60F9211242F933F938F93E0
:101D60009F93AF93BF938091AD089091AE08A091DF
:101D7000AF08B091B0083091AC0823E0230F2D37A5
:101D800058F50196A11DB11D2093AC088093AD08B4
:101D90009093AE08A093AF08B093B0088091B108BB
:101DA0009091B208A091B308B091B4080196A11D1A
:101DB000B11D8093B1089093B208A093B308B0937B
:101DC000B408BF91AF919F918F913F912F910F9048
:101DD0000FBE0F901F90189526E8230F0296A11DA5
:101DE000B11DD2CF1F920F920FB60F9211240BB6D6
:101DF0000F922F933F934F935F936F937F938F93A4
:101E00009F93AF93BF93EF93FF9385EB98E00E946E
:101E10003C03FF91EF91BF91AF919F918F917F9183
:101E20006F915F914F913F912F910F900BBE0F904B
:101E30000FBE0F901F9018951F920F920FB60F9222
:101E400011240BB60F922F938F939F93EF93FF93D1
:101E5000E091C508F091C6088081E091CB08F0912F
:101E6000CC0882FD1DC090818091CE088F5F8F735A
:101E70002091CF08821741F0E091CE08F0E0EB54BA
:101E8000F74F958F8093CE08FF91EF919F918F919F
:101E90002F910F900BBE0F900FBE0F901F901895B3
:101EA0008081F2CF1F920F920FB60F9211240BB6C2
:101EB0000F922F933F934F935F936F937F938F93E3
:101EC0009F93AF93BF93EF93FF9348E251E064E297
:101ED00071E090E080E00E94EC04FF91EF91BF91EF
:101EE000AF919F918F917F916F915F914F913F91B2
:101EF0002F910F900BBE0F900FBE0F901F90189553
:101F00001F920F920FB60F9211240BB60F922F93C0
:101F10003F934F935F936F937F938F939F93AF9371
:101F2000BF93EF93FF9348EA50E064EA70E083E0E8
:101F300090E00E94EC04FF91EF91BF91AF919F91CF
:101F40008F917F916F915F914F913F912F910F9062
:101F50000BBE0F900FBE0F901F9018951F920F92FF
:101F60000FB60F9211240BB60F922F933F934F93FE
:101F70005F936F937F938F939F93AF93BF93EF93F1
:101F8000FF9348E950E064E970E082E090E00E944D
:101F9000EC04FF91EF91BF91AF919F918F917F9151
:101FA0006F915F914F913F912F910F900BBE0F90CA
:101FB0000FBE0F901F9018951F920F920FB60F92A1
:101FC00011240BB60F922F933F934F935F936F9310
:101FD0007F938F939F93AF93BF93EF93FF9348E8C3
:101FE00050E064E870E081E090E00E94EC04FF9132
:101FF000EF91BF91AF919F918F917F916F915F9181
:102000004F913F912F910F900BBE0F900FBE0F90ED
:102010001F901895CF92DF92EF92FF920F931F932C
:10202000E82FF92F05C0015011092109310961F18B
:10203000908196239417B9F305C001501109210925
:10204000310911F1908196239413F7CFC12CD12C33
:10205000E12CF12C0AC08FEFC81AD80AE80AF80A56
:102060000C151D052E053F0579F080818623841708
:1020700091F36C2D7D2D8E2D9F2D1F910F91FF9033
:10208000EF90DF90CF90089560E070E080E090E006
:102090001F910F91FF90EF90DF90CF900895FC017A
:1020A00090911508903398F481E0890F809315087A
:1020B0009083892F90E0FC01EE0FFF1FE80FF91FBE
:1020C000EA5EF74F88EB9BE09283818308958FEF60
:1020D00080830895E5EBF8E01382128288EE93E0A6
:1020E000A0E0B0E084839583A683B7838DEA92E075
:1020F0009183808385EC90E09587848784EC90E0E1
:102100009787868780EC90E0918B808B81EC90E0C4
:10211000938B828B82EC90E0958B848B86EC90E0A5
:10212000978B868B118E128E138E148E87E699E014
:102130000E944F1084E699E00E944F1081E699E0DA
:102140000E944F108EE599E00E944F108BE599E0B8
:102150000E944F1088E599E00E944F10E2E5F9E0F7
:1021600011821082138212821582148250E040E0A4
:102170006DEB72E0CF010C94B909CF93DF93CDB72B
:10218000DEB72F970FB6F894DEBF0FBECDBF7894A1
:1021900084B5826084BD84B5816084BD85B582606C
:1021A00085BD85B5816085BD80916E00816080931D
:1021B0006E00109281008091810082608093810086
:1021C0008091810081608093810080918000816096
:1021D000809380008091B10084608093B1008091F1
:1021E000B00081608093B000809191008260809304
:1021F0009100809191008160809391008091900086
:102200008160809390008091A10082608093A10002
:102210008091A10081608093A1008091A0008160E5
:102220008093A000809121018260809321018091A0
:102230002101816080932101809120018160809340
:10224000200180917A00846080937A0080917A00E6
:10225000826080937A0080917A00816080937A0016
:1022600080917A00806880937A001092C100E0919A
:10227000C508F091C60882E08083E091C108F09122
:10228000C2081082E091C308F091C40880E1808305
:102290001092CD08E091C908F091CA0886E08083C9
:1022A000E091C708F091C808808180618083E09147
:1022B000C708F091C808808188608083E091C708D2
:1022C000F091C808808180688083E091C708F09110
:1022D000C80880818F7D808362E08FE20E9429029E
:1022E00062E080E30E94290262E081E30E94290209
:1022F00062E082E30E94290261E0809105020E946F
:10230000290260E0809106020E94290260E080912B
:1023100005020E94FB0161E080910B020E942902EC
:1023200060E080910C020E94290261E080910D0220
:102330000E94290260E080910E020E94290261E061
:1023400080910F020E94290260E0809110020E9499
:10235000290260E080910B020E94FB0160E0809105
:102360000D020E94FB0160E080910F020E94FB01C0
:102370006091090270E080911402909115020E9410
:10238000640460910A0270E0809116029091170235
:102390000E9464040E94B80564EF71E080E090E060
:1023A0000E948A020E94DA0A8091AA08882321F0FA
:1023B00082E096E00E9427070E94B80B8091AB084C
:1023C000882321F08091AA08811109C064E170E09E
:1023D00080E090E00E948A020E94D003EDCF86E068
:1023E000E3EAF2E0DE01119601900D928A95E1F7A1
:1023F0009E012F5F3F4F490133E03B878091AB083F
:10240000882319F1F401E190F1904F01C7010E9476
:102410007D068823A9F0F701658184810E94E40983
:102420008C01F70118161906ACF011A283A98F5F71
:1024300083AB833028F069E176E0C7010E94690828
:10244000FB85F150FB87F111D9CF68E270E080E0A5
:1024500090E0C0CF13AAC7010E947D06882381F3B4
:10246000F7018789908D1816190664F49C01201BCA
:10247000310B37FF03C031952195310941E02330FD
:1024800031050CF440E0F70123A12111F0C018162A
:102490001906C4F49801281B390BC9010296059747
:1024A00088F482A1811107C00E94BC02F70164A3D5
:1024B00075A386A397A3F70182A1853028F48F5FC7
:1024C00082A302C0F70112A2F70111A282A18530F6
:1024D000A0F00E94BC02F70144A055A066A077A01E
:1024E0006419750986099709683E7340810591054D
:1024F00020F021E0F70123A312A28091A6088823EF
:1025000091F189E296E00E942007F7018081918194
:102510000E94200783E396E00E942007C8010E94E2
:102520001A078FEB95E00E942007F7018789908DAD
:102530000E941A0788E396E00E942007F70183A112
:1025400090E00E941A0780E496E00E942007F701BD
:1025500061A170E090E080E04AE00E94AC068BEB65
:1025600092E00E949F06F70181A1833008F468CFB2
:102570000E94BC02F70104A115A126A137A1601B8E
:10258000710B820B930B683C71058105910508F472
:1025900057CF13A212A211A2F092A908E092A808A4
:1025A0001092A708F9E6EF16F2E0FF0609F0BFC1A6
:1025B00088E496E00E9427076AE070E080917C0240
:1025C00090917D020E9401040E94BC020E94D40DE1
:1025D000882309F445C00E94BC025B016C01412CB8
:1025E000512C612C712C312C0E94BC026A197B0980
:1025F0008C099D09683873418105910508F024C153
:102600000E94B80B0E948B068823B1F083E00E94E1
:10261000E4077B018C019B01AC010E94DF19882338
:1026200009F455C00E948B06882331F06EE576E0F0
:1026300089E692E00E94690862EB70E080917C027A
:1026400090917D020E9401040E948B06882331F044
:102650006CE976E089E692E00E94690810928A02AD
:102660001092A9081092A8081092A708E9CE442356
:1026700029F181A181110BC00E94BC02F70164A362
:1026800075A386A397A313A702A711A700A7F70115
:1026900020A531A5021713070CF49801F70131A703
:1026A00020A782A593A5801791070CF4C801F70114
:1026B00093A782A7821B930B039714F011A21DCF3F
:1026C00081A1833008F019CF8F5F81A316CF20E05E
:1026D00030E040EA51E4B701C8010E94DA1987FFEF
:1026E0000AC0312C68E270E080E090E00E948A022B
:1026F0002701380179CF9201A301B701C8010E94D7
:10270000CC182B013C0120E030E0A9010E94DA192D
:1027100018160CF08EC020E030E040EA50E4C3010F
:10272000B2010E9442171816E4F2339432E03315D6
:10273000C8F688E00E94E4076B017C010E948B06CA
:10274000882309F479CFA7019601C701B6010E9439
:10275000DF19811171CF20E030E040EA51E4C70178
:10276000B6010E94DA1987FD67CF0E94B80B0E945C
:102770008B06882309F474CF62EB70E080917C02B1
:1027800090917D020E9401048BEA96E00E9420074E
:1027900020E030E04AE754E4C701B6010E9439194D
:1027A00043E050E00E94AE0866E970E080E090E00F
:1027B0000E94FE0D882309F453CF64E670E08091F7
:1027C0007E0290917F020E94010464E873E080E041
:1027D00090E00E94FE0D882309F442CF0E94BC02C3
:1027E0006B017C0110E00E94BC026C197D098E090E
:1027F0009F09683873418105910508F08BC00E94DC
:10280000B80B0E948B06082F882309F483C06091BF
:10281000700280916F020E94E409181619060CF4E8
:1028200044C010E068E270E080E090E00E948A021C
:10283000DACF20E030E040EA50ECC301B2010E9460
:10284000DA1987FD4ECF71CFBE01695F7F4F83E0FC
:102850000E943907882309F4EFCE88E696E00E94AB
:1028600020076F81788589859A850E94F00682E825
:1028700096E00E94200760E070E0CB010E94F00625
:102880008DE896E00E9420076F81788589859A857A
:102890000E94491720E030E042ED53E40E943919CC
:1028A00042E050E00E94AE08C7CE209182023091F3
:1028B0008302821B930B0296059708F0B2CF82E049
:1028C0000E94E40720E030E040E051E40E9442171B
:1028D00018160CF4A6CF1F5F143008F4A3CF6FEACC
:1028E00070E080917E0290917F020E94010400239B
:1028F00099F00E948B06882379F081ED96E00E9482
:10290000270710928A0268E572E080E090E00E945A
:10291000FE0DA6CE00E0E3CF0E948B06882389F34C
:1029200062EF76E089E692E00E946908EACFF7015B
:10293000808191810E9420078DE496E00E94270704
:102940006AE070E0F701838994890E9401040E9483
:10295000BC022B013C016CEB72E080E090E00E9435
:10296000FE0D882309F47CCEF701808191810E94BD
:10297000200780E097E00E9427070E94BC026C8736
:102980007D878E879F87D12C0E94BC022C853D8538
:102990004E855F85621B730B840B950B6838734102
:1029A0008105910508F00EC20E94B80B0E948B06AB
:1029B000882309F407C28091A608F7018823F1F162
:1029C000808191810E94200784E197E00E9427077F
:1029D000F701038D148D238542856DE077E0C701F3
:1029E0000E94380E019779F5D39432E03D1560F5D9
:1029F000F701808191810E9420078EED97E00E946F
:102A000027070E94BC025B016C010E94BC026A198C
:102A10007B098C099D09603D774081059105C0F5D2
:102A20000E94B80B0E948B06882309F419CE6AE035
:102A300070E080E090E00E948A02E7CFA38CB48C23
:102A40001A141B0444F0D12C6FE070E080E090E099
:102A50000E948A0299CF3384C28403E010E0632D80
:102A60008C2D0E94E409181619063CF49501281BC8
:102A7000390B233031050CF01F5F69E170E080E015
:102A800090E00E948A02015051F71230E0F2ACCF80
:102A9000C301B2010E94D40D882309F4E1CD62EB99
:102AA00070E0F701838994890E9401046CEB72E065
:102AB00080E090E00E94FE0D882309F4D1CDF7015B
:102AC000808191810E9420078BE597E00E94270773
:102AD00094E0C92E20EE622E25E0722ED12C0E94A9
:102AE000B80B0E948B06882309F49DC0F701038D63
:102AF000148D238542856DE077E0C7010E94380E72
:102B00005C01F701058D168D2585448564E577E028
:102B1000C7010E94380E2C01F701078D10A12785EF
:102B2000468568E075E0C7010E94380EF1E0EF16B7
:102B3000F2E0FF06E1F521E0A216B104C1F53FEF96
:102B400043165306C1F581309105C9F541E0D41211
:102B50006DC089E697E00E94270708EE15E00E9405
:102B60008B06D82E882309F47BCD60EE75E0C80172
:102B70000E940F1C892B09F05CC062EB70E0F7012A
:102B8000838994890E94010483E297E00E942007D0
:102B9000F701808191810E94200789E997E00E94D6
:102BA00027076AE977E0C7010E94690859CDA11497
:102BB000B10409F453C14114510409F44AC1009706
:102BC00009F4D12CAA94AB2869F4E1E04E16510423
:102BD00061F408EE15E08130910569F00EEE15E024
:102BE000892B49F000EE15E006C04528D9F705EF1E
:102BF00015E0892BB9F760EE75E0C8010E940F1C43
:102C0000892B39F0B301C8010E940F1C892B09F4EC
:102C1000A6CF66E970E080E090E00E948A02CA9444
:102C20003801C1105CCF00EE15E099CFDD24D394BC
:102C3000D9CFF5E3EF16F2E0FF06C9F48CE0D82E09
:102C4000C12C809145020E94D201892B09F4C394C2
:102C50006FE070E080E090E00E948A02DA94D11088
:102C6000F0CFDD24D39428E02C1508F0D12C0E945D
:102C7000B80B0E948B06882309F4F2CC81EB97E015
:102C80000E942007C8010E94200787EB97E00E945E
:102C900020078BEF95E0DD2019F0F7018281938109
:102CA0000E94270762EB70E0F701838994890E94F4
:102CB000010466E970E080E090E00E94FE0D882348
:102CC00009F4CECC6AEA70E0F701858996890E9402
:102CD000010464E873E080E090E00E94FE0D882328
:102CE00009F4BECC0E94BC021B012C01D12C0E9415
:102CF000BC0262197309840995096838734181051A
:102D0000910508F053C00E94B80B0E948B06C82E94
:102D1000882309F44BC0F701038D148D2385428568
:102D20006DE077E0C7010E94380E3C01F701058D88
:102D3000168D2585448564E577E0C7010E94380E2D
:102D40005C01F701078D10A12785468568E075E0D5
:102D5000C7010E94380E672809F5AB28F9F4892BC2
:102D6000E9F4D394F4E0FD15D0F470E060E0F701ED
:102D7000858996890E940104CC20D1F00E948B069F
:102D80008823B1F082EC97E00E942007F701808150
:102D900091810E942707F70111A2B5CDD12C6EE1D8
:102DA00070E080E090E00E948A02A1CFC12CDDCFCC
:102DB0000E948B06882379F362EF76E0C7010E94B8
:102DC0006908E9CF62EB70E0F701838994890E947A
:102DD00001040E948B068823C9F16BE277E0C701EA
:102DE0000E94690883E297E00E942007F701808132
:102DF00091810E9420078AE297E00E942707F7014D
:102E0000808191810E9420078BE397E00E94270731
:102E1000F701038D148D238542856DE077E0C701AE
:102E20000E94380EF701058D168D2585448564E5D1
:102E300077E0C7010E94380EF701078D10A12785A2
:102E4000468568E075E0C7010E94380EF70111A2BF
:102E500007CCD12CAA94AB2809F4C9CED12CC2CE70
:102E60008091520990915309009711F00C94941A93
:102E7000089591110C941518803219F089508550DD
:102E8000C8F708950E94841708F481E00895E89433
:102E900009C097FB3EF490958095709561957F4FA2
:102EA0008F4F9F4F9923A9F0F92F96E9BB27939550
:102EB000F695879577956795B795F111F8CFFAF460
:102EC000BB0F11F460FF1BC06F5F7F4F8F4F9F4F91
:102ED00016C0882311F096E911C0772321F09EE8EF
:102EE000872F762F05C0662371F096E8862F70E055
:102EF00060E02AF09A95660F771F881FDAF7880F2F
:102F00009695879597F90895990F0008550FAA0B84
:102F1000E0E8FEEF16161706E807F907C0F01216EC
:102F20001306E407F50798F0621B730B840B950BEF
:102F300039F40A2661F0232B242B252B21F4089544
:102F40000A2609F4A140A6958FEF811D811D0895E1
:102F50000E94BB170C942F180E94211838F00E9471
:102F6000281820F0952311F00C9418180C941E18B2
:102F700011240C9463180E94401870F3959FC1F3BC
:102F8000950F50E0551F629FF001729FBB27F00D17
:102F9000B11D639FAA27F00DB11DAA1F649F66276C
:102FA000B00DA11D661F829F2227B00DA11D621FBB
:102FB000739FB00DA11D621F839FA00D611D221F75
:102FC000749F3327A00D611D231F849F600D211D59
:102FD000822F762F6A2F11249F5750409AF0F1F0DC
:102FE00088234AF0EE0FFF1FBB1F661F771F881F45
:102FF00091505040A9F79E3F510580F00C9418184D
:103000000C9463185F3FE4F3983ED4F3869577956C
:103010006795B795F795E7959F5FC1F7FE2B880FEA
:10302000911D9695879597F9089599278827089572
:1030300097F99F6780E870E060E008959FEF80EC6B
:10304000089500240A94161617061806090608950E
:1030500000240A9412161306140605060895092E74
:103060000394000C11F4882352F0BB0F40F4BF2BE3
:1030700011F460FF04C06F5F7F4F8F4F9F4F089523
:1030800057FD9058440F551F59F05F3F71F0479519
:10309000880F97FB991F61F09F3F79F087950895FE
:1030A000121613061406551FF2CF4695F1DF08C01D
:1030B000161617061806991FF1CF8695710561053A
:1030C00008940895E894BB2766277727CB0197F9E2
:1030D0000895052E97FB1EF400940E94801857FD5A
:1030E00007D00E949B1807FC03D04EF40C94801864
:1030F00050954095309521953F4F4F4F5F4F089524
:1031000090958095709561957F4F8F4F9F4F089553
:103110000E94BD18A59F900DB49F900DA49F800D97
:10312000911D11240895B7FF0C9488180E948818E7
:10313000821B930B0895A1E21A2EAA1BBB1BFD0153
:103140000DC0AA1FBB1FEE1FFF1FA217B307E40786
:10315000F50720F0A21BB30BE40BF50B661F771FDE
:10316000881F991F1A9469F76095709580959095BE
:103170009B01AC01BD01CF010895A29FB001B39F97
:10318000C001A39F700D811D1124911DB29F700D70
:10319000811D1124911D08955058BB27AA270E9414
:1031A000E4180C942F180E94211838F00E94281857
:1031B00020F039F49F3F19F426F40C941E180EF4F5
:1031C000E095E7FB0C941818E92F0E94401858F37B
:1031D000BA17620773078407950720F079F4A6F5FC
:1031E0000C9462180EF4E0950B2EBA2FA02D0B0153
:1031F000B90190010C01CA01A0011124FF27591B3C
:1032000099F0593F50F4503E68F11A16F040A22F41
:10321000232F342F4427585FF3CF469537952795B2
:10322000A795F0405395C9F77EF41F16BA0B620BB1
:10323000730B840BBAF09150A1F0FF0FBB1F661FF8
:10324000771F881FC2F70EC0BA0F621F731F841F3B
:1032500048F4879577956795B795F7959E3F08F061
:10326000B0CF9395880F08F09927EE0F9795879523
:1032700008950E944D190C942F180E94281858F098
:103280000E94211840F029F45F3F29F00C9418188F
:1032900051110C9463180C941E180E94401868F386
:1032A0009923B1F3552391F3951B550BBB27AA27FF
:1032B00062177307840738F09F5F5F4F220F331F39
:1032C000441FAA1FA9F335D00E2E3AF0E0E832D001
:1032D00091505040E695001CCAF72BD0FE2F29D004
:1032E000660F771F881FBB1F261737074807AB07D6
:1032F000B0E809F0BB0B802DBF01FF2793585F4F4B
:103300003AF09E3F510578F00C9418180C9463180D
:103310005F3FE4F3983ED4F3869577956795B7952C
:10332000F7959F5FC9F7880F911D9695879597F937
:103330000895E1E0660F771F881FBB1F62177307B0
:103340008407BA0720F0621B730B840BBA0BEE1FC5
:1033500088F7E09508950E94481888F09F5798F0E4
:10336000B92F9927B751B0F0E1F0660F771F881F8A
:10337000991F1AF0BA95C9F714C0B13091F00E94A4
:103380006218B1E008950C946218672F782F88278F
:10339000B85F39F0B93FCCF3869577956795B395CB
:1033A000D9F73EF490958095709561957F4F8F4F3A
:1033B0009F4F08950E94841708F48FEF08950E948C
:1033C0008417880B990B0895991B79E004C0991F05
:1033D000961708F0961B881F7A95C9F7809508956F
:1033E000EE0FFF1F881F8BBF0790F691E02D1994F9
:1033F0000F931F93CF93DF938230910510F482E0F7
:1034000090E0E0916C09F0916D0930E020E0B0E0CF
:10341000A0E0309799F42115310509F44AC0281B22
:10342000390B24303105D8F58A819B8161157105EE
:1034300089F1FB0193838283FE0111C04081518198
:103440000281138148175907E0F04817590799F48A
:10345000109761F012960C93129713961C93329664
:10346000CF01DF91CF911F910F91089500936C09C7
:1034700010936D09F4CF2115310551F04217530710
:1034800038F0A901DB019A01BD01DF01F801C1CFCC
:10349000EF01F9CF90936D0980936C09CDCFFE01B8
:1034A000E20FF31F819391932250310939832883CE
:1034B000D7CF20916A0930916B09232B41F42091D9
:1034C0009F023091A00230936B0920936A092091EA
:1034D0009D0230919E022115310541F42DB73EB772
:1034E0004091A1025091A202241B350BE0916A0980
:1034F000F0916B09E217F307A0F42E1B3F0B28177E
:10350000390778F0AC014E5F5F4F2417350748F05C
:103510004E0F5F1F50936B0940936A0981939193FB
:103520009FCFF0E0E0E09CCFCF93DF930097E9F0EE
:10353000FC01329713821282A0916C09B0916D093F
:10354000ED0130E020E01097A1F420813181820F5D
:10355000931F20916A0930916B092817390709F0E8
:1035600061C0F0936B09E0936A09DF91CF910895F0
:10357000EA01CE17DF07E8F54A815B819E0141151C
:103580005105B1F7E901FB83EA8349915991C40FD1
:10359000D51FEC17FD0761F4808191810296840F9D
:1035A000951FE90199838883828193819B838A8314
:1035B000F0E0E0E012968D919C9113970097B9F599
:1035C0002D913C911197CD010296820F931F20916E
:1035D0006A0930916B092817390739F6309751F588
:1035E00010926D0910926C09B0936B09A0936A094F
:1035F000BCCFD383C28340815181840F951FC817EC
:10360000D90761F44E5F5F4F88819981480F591F38
:10361000518340838A819B81938382832115310565
:1036200009F0B0CFF0936D09E0936C099ECFFD01D6
:10363000DC01C0CF13821282D7CF4F925F926F927C
:103640007F928F929F92AF92BF92CF92DF92EF9232
:10365000FF920F931F93CF93DF938C01009799F400
:10366000CB01DF91CF911F910F91FF90EF90DF90F1
:10367000CF90BF90AF909F908F907F906F905F9012
:103680004F900C94F819FC01E60FF71F9C01225093
:103690003109E217F30708F4AEC0D901CD91DC91EE
:1036A0001197C617D70720F1C530D10578F0CE01A4
:1036B00004978617970750F0C61BD70B2297C19324
:1036C000D1936D937C93CF010E94941AC801DF912E
:1036D000CF911F910F91FF90EF90DF90CF90BF900F
:1036E000AF909F908F907F906F905F904F900895D4
:1036F0005B01AC1ABD0A4C018C0E9D1EA0916C0999
:10370000B0916D09512C412CF12CE12C109731F521
:1037100080916A0990916B098815990509F05CC040
:103720004616570608F058C080919D0290919E025F
:10373000009741F48DB79EB74091A1025091A2022B
:10374000841B950BE817F90708F055C0F0936B0937
:10375000E0936A09F90171836083B8CF8D919C91E0
:10376000119712966C90129713967C901397A81548
:10377000B90559F56C0142E0C40ED11CCA14DB0432
:1037800020F1AC014A195B09DA011296159780F015
:103790006282738251834083D9016D937C93E114DB
:1037A000F10471F0D7011396FC93EE9312978ECF2C
:1037B00022968C0F9D1FF90191838083F301EFCF37
:1037C000F0936D09E0936C0981CF4816590608F40F
:1037D0002C017D01D3019ACFCB010E94F8197C0105
:1037E000009749F0AE01B8010E94061CC8010E9472
:1037F000941A87016BCF10E000E068CF9111089513
:1038000081568A5108F4805285580895FB01DC01E5
:1038100002C001900D9241505040D8F70895FB012D
:10382000DC018D91019080190110D9F3990B089555
:10383000FB01DC0101900D920020E1F7089511E0F9
:10384000C7E3D1E000E006C0802FFE010E94F0191E
:103850002196011DC833D10780E00807A9F7F89425
:10386000FFCF01EF07EF07090A00000B0C1617182E
:10387000292A2B00000067096409FFFFFFFFFFFFF3
:10388000FFFFFFFF0000000000000000000000003C
:1038900000000000000000F707FD07191A00001BD8
:1038A0001C1D1E1F2C2D2E20000061095E09FFFF2C
:1038B000FFFFFFFFFFFFFFFF000000000000000010
:1038C0000000000000000000000000EC06EC0621F3
:1038D00022272823240000000000000025265B0981
:1038E0005809FFFFFFFFFFFFFFFFFFFF0000000081
:1038F00000000000000000000000000000000000C8
:10390000006E098000010235026902000000005EBD
:1039100003C802F502B0032603040318030D0A00CE
:103920004552524F523A48583731315F4E4F545FEB
:1039300052454144595F444F55545F4849474800F8
:103940004552524F523A48583731315F444F5554DF
:103950005F4E4F545F484947485F41465445525F68
:10396000524541440046554C4C003B574F524B4941
:103970004E473A003B42494E3A004D51363A574184
:10398000524E494E47004D51363A434C4541520044
:103990004641554C543A006E616E00696E66006F88
:1039A0007666004552524F523A554E535441424C5E
:1039B000455F43414C4942524154494F4E5F545236
:1039C00049473A0043414C4942524154494F4E3ACB
:1039D00052454D4F56455F4F424A45435453004D63
:1039E0004F44453A504C41535449433A00454E41A7
:1039F000424C4544003B4D4554414C3A003B5041FC
:103A00005045523A0043414C4942524154494F4E6D
:103A10003A504C41535449435F454D5054595F43CC
:103A20004D3A0043414C4942524154494F4E3A505D
:103A30004C41535449435F53495A455F424F545494
:103A40004F4D5F434D3A0043414C49425241544926
:103A50004F4E3A504C41535449435F53495A455F86
:103A60004D4944444C455F434D3A0043414C494223
:103A7000524154494F4E3A504C41535449435F537D
:103A8000495A455F544F505F434D3A0043414C49BA
:103A900042524154494F4E3A4F4B004D41434849E1
:103AA0004E453A53544152544544004D41434849D0
:103AB0004E453A49444C45004552524F523A4341D3
:103AC0004C4942524154494F4E5F4641494C45444E
:103AD0000044454255473A4F4E0044454255473A07
:103AE0004F4646004552524F523A4E4F545F434163
:103AF0004C49425241544544004D414348494E458A
:103B00003A53544F505045440052455345543A4F50
:103B10004B0052554E4E494E470043414C4942528C
:103B2000415445004552524F523A434F4D50415235
:103B3000544D454E545F42555359004445425547F4
:103B4000204F4E004445425547204F4646005343C0
:103B5000414C45004552524F523A50415045525FF8
:103B600044495341424C45440053544F5000524540
:103B700053455400535441545553005354415455E4
:103B8000533A003B504C41535449435F434D3A0034
:103B90003B504C41535449435F53495A455F434D51
:103BA0003A003B4D4554414C5F434D3A003B4D4537
:103BB00054414C5F53495A455F434D3A003B504195
:103BC0005045525F544F505F434D3A003B50415077
:103BD00045525F424F54544F4D5F434D3A003B4D69
:103BE0004554414C5F53454E534F523A003B504170
:103BF0005045525F5343414C453A004552524F5253
:103C00003A554E4B4E4F574E5F434F4D4D414E44EC
:103C10000053495A494E473A003B4C4556454C3AA9
:103C2000003B454D5054595F434D3A003B5245418E
:103C300044494E47535F434D3A003B53544154452A
:103C40003A00494E56414C4944004C4152474500C8
:103C50004D454449554D00534D414C4C0052454A49
:103C60004543540052564D3A504C41535449435FDA
:103C70004F4E4C595F524541445900454E545241B4
:103C80004E43455F53454E534F5200454E545241AB
:103C90004E43453A003B434D3A003B41524D45446B
:103CA0003A003B434F554E543A0050415045523A2A
:103CB0004F424A4543545F444554454354454400AC
:103CC0004C4F41445F43454C4C0050415045523AA3
:103CD0005745494748545F54494D454F55545F52E5
:103CE00041573A003B544152455F5241573A003BDD
:103CF0005349474E45445F4752414D533A0057455B
:103D0000494748545F54494D454F55540053495A0B
:103D1000453A5745494748543B4D4154455249411E
:103D20004C3A50415045523B5745494748545F4BE8
:103D3000473A00424F54544C453A434C4541524552
:103D4000443B434F4D504152544D454E543A5041DF
:103D500050455200434C4541525F54494D454F55E3
:103D600054003A57414954494E475F464F525F42CB
:103D70004F54544F4D003A4152524956414C5F43C3
:103D80004845434B004552524F523A005F41525210
:103D90004956414C5F54494D454F5554003A4152A4
:103DA000524956414C5F53454E534F525F534E411B
:103DB0005053484F54004D4944444C45003A5349F0
:103DC0005A494E475F53544152540053495A494E41
:103DD000473A504C41535449433B46414C4C424175
:103DE000434B3A4C415247455F4D4944444C455F33
:103DF000554E52454C4941424C45005F494E564153
:103E00004C49445F53454E534F525F5041545445C3
:103E1000524E0053495A453A003B4D415445524990
:103E2000414C3A00424F54544C453A434C45415260
:103E300045443B434F4D504152544D454E543A003A
:103E40003A424F54544C455F534554544C494E47A5
:103E500000504C4153544943004D4554414C00439C
:043E6000414E0000CF
:020000040003F7
:10E000000D9489F10D94B2F10D94B2F10D94B2F129
:10E010000D94B2F10D94B2F10D94B2F10D94B2F1F0
:10E020000D94B2F10D94B2F10D94B2F10D94B2F1E0
:10E030000D94B2F10D94B2F10D94B2F10D94B2F1D0
:10E040000D94B2F10D94B2F10D94B2F10D94B2F1C0
:10E050000D94B2F10D94B2F10D94B2F10D94B2F1B0
:10E060000D94B2F10D94B2F10D94B2F10D94B2F1A0
:10E070000D94B2F10D94B2F10D94B2F10D94B2F190
:10E080000D94B2F10D94B2F10D94B2F10D94B2F180
:10E090000D94B2F10D94B2F10D94B2F10D94B2F170
:10E0A0000D94B2F10D94B2F10D94B2F10D94B2F160
:10E0B0000D94B2F10D94B2F10D94B2F10D94B2F150
:10E0C0000D94B2F10D94B2F10D94B2F10D94B2F140
:10E0D0000D94B2F10D94B2F10D94B2F10D94B2F130
:10E0E0000D94B2F141546D656761323536300041AF
:10E0F000726475696E6F206578706C6F72657220DE
:10E1000073746B3530305632206279204D4C530099
:10E11000426F6F746C6F616465723E004875683F52
:10E1200000436F6D70696C6564206F6E203D200048
:10E130004350552054797065202020203D20005FF9
:10E140005F4156525F415243485F5F3D2000415658
:10E1500052204C696243205665723D20004743437C
:10E160002056657273696F6E203D20004350552024
:10E1700049442020202020203D20004C6F7720663D
:10E18000757365202020203D20004869676820665F
:10E190007573652020203D200045787420667573D6
:10E1A00065202020203D20004C6F636B2066757336
:10E1B000652020203D20004D617220203720323024
:10E1C000313300312E362E3800342E332E350056A2
:10E1D00023202020414444522020206F7020636F70
:10E1E00064652020202020696E73747275637469E1
:10E1F0006F6E2061646472202020496E74657272B3
:10E20000757074006E6F20766563746F7200726A49
:10E210006D702020006A6D70200057686174207056
:10E220006F72743A00506F7274206E6F7420737541
:10E2300070706F72746564004D7573742062652030
:10E2400061206C6574746572002000577269747483
:10E25000696E672045450052656164696E672045B7
:10E26000450045452065727220636E743D00504F35
:10E27000525400303D5A65726F2061646472003FF1
:10E280003D43505520737461747300403D454550C3
:10E29000524F4D207465737400423D426C696E6B41
:10E2A000204C454400453D44756D70204545505215
:10E2B0004F4D00463D44756D7020464C415348001B
:10E2C000483D48656C70004C3D4C69737420492F83
:10E2D0004F20506F72747300513D51756974005234
:10E2E0003D44756D702052414D00563D73686F7707
:10E2F00020696E7465727275707420566563746FF0
:10E30000727300593D506F727420626C696E6B00BD
:10E310002A0011241FBECFEFD1E2DEBFCDBF01E046
:10E320000CBF12E0A0E0B2E0EEE1FDEF03E00BBFB6
:10E3300002C007900D92A030B107D9F712E0A0E01B
:10E34000B2E001C01D92AE30B107E1F70F9460F367
:10E350000D948DFE01E20EBF0FEF0DBF11241FBE05
:10E360000D9460F30D9400F020E030E040ED57E0B4
:10E3700005C0FA013197F1F72F5F3F4F2817390792
:10E38000C0F308959C01260F311DC901A0E0B0E043
:10E390002F5F3F4FABBFFC018791882361F08093D3
:10E3A000C6008091C00086FFFCCF8091C0008064D1
:10E3B0008093C000EACF08958DE08093C6008091DD
:10E3C000C00086FFFCCF8091C00080648093C000B5
:10E3D0008AE08093C6008091C00086FFFCCF8091C8
:10E3E000C00080648093C00008950F94C2F10F9420
:10E3F000DCF10895FC019081992359F09093C600B7
:10E400008091C00086FFFCCF8091C0008064809323
:10E41000C0003196992379F70895282F982F929567
:10E420009F70892F805D8A3308F0895F8093C600D2
:10E430008091C00086FFFCCF8091C00080648093F3
:10E44000C000822F8F70982F905D9A3308F0995FEB
:10E450009093C6008091C00086FFFCCF8091C000E1
:10E4600080648093C00008959C01FB01853691056E
:10E470001CF46330710594F0C90164E670E00F94F8
:10E480002EFE605D7F4F6093C6008091C00086FFC6
:10E49000FCCF8091C00080648093C0002B30310598
:10E4A00014F43297B4F0C90164E670E00F942EFEC4
:10E4B0006AE070E00F942EFE605D7F4F6093C600AF
:10E4C0008091C00086FFFCCF8091C0008064809363
:10E4D000C000C9016AE070E00F942EFEC0968093E0
:10E4E000C6008091C00086FFFCCF8091C000806490
:10E4F0008093C00008951F93182F8EE692EE60E07F
:10E500000F94C2F11093C6008091C00086FFFCCF2B
:10E510008091C00080648093C0000F94DCF11F9153
:10E5200008952F923F924F925F926F927F928F92B7
:10E530009F92AF92BF92CF92DF92EF92FF920F9392
:10E540001F93DF93CF93CDB7DEB762970FB6F894E2
:10E55000DEBF0FBECDBF382E622ECA01DB015C01CB
:10E560006D01772420E2222E2E010894411C511CBB
:10E570008BC081E0A81680E0B80681E0C80680E084
:10E58000D80628F0C601AA27BB270F940DF2BB2797
:10E59000AD2D9C2D8B2D0F940DF28A2D0F940DF225
:10E5A0002092C6008091C00086FFFCCF8091C00001
:10E5B00080648093C0009DE29093C6008091C0006B
:10E5C00086FFFCCF8091C00080648093C0002092C1
:10E5D000C6008091C00086FFFCCF8091C00080649F
:10E5E0008093C00019828601750188249924A1E0D6
:10E5F0003A1651F03A1620F0B2E03B1661F409C029
:10E600000BBFF701779007C0C7010F9477FE782EF4
:10E6100002C0F7017080872D0F940DF22092C60082
:10E620008091C00086FFFCCF8091C0008064809301
:10E63000C000872D8052F401EF70F0708F3520F408
:10E64000E40DF51D708204C0E40DF51D8EE280839B
:10E650000894E11CF11C011D111D0894811C911CE2
:10E6600090E18916910409F0C2CF80E190E0A0E02A
:10E67000B0E0A80EB91ECA1EDB1E198AC2010F9493
:10E68000FAF10F94DCF16A94662009F072CF629679
:10E690000FB6F894DEBF0FBECDBFCF91DF911F91B3
:10E6A0000F91FF90EF90DF90CF90BF90AF909F9031
:10E6B0008F907F906F905F904F903F902F90089534
:10E6C0002F923F924F925F926F927F928F929F9282
:10E6D000AF92BF92CF92DF92EF92FF920F931F9370
:10E6E000DF93CF93CDB7DEB7CD53D1400FB6F894BB
:10E6F000DEBF0FBECDBF01E20EBF0FEF0DBF94B75F
:10E70000F894A89514BE80916000886180936000A1
:10E7100010926000789493FF05C0E0910002F091A0
:10E7200001021995279A2F9A8091C00082608093E8
:10E73000C00080E18093C40088E18093C1000000A4
:10E74000EE24FF24870144E0A42EB12CCC24DD2448
:10E7500024C0C5010197F1F70894E11CF11C011DCB
:10E76000111D21E2E2162EE4F20620E0020720E06D
:10E77000120718F031E0C32ED12CC801B70127ECE5
:10E780003BE140E050E00F9441FE611571058105C9
:10E79000910519F485B1805885B98091C00087FD35
:10E7A00003C0C114D104A9F2A6014F5F5F4FC25E3E
:10E7B000DE4F59834883CE51D140C25EDE4F8881FF
:10E7C0009981CE51D140019711F00D9410FEC05D9A
:10E7D000DE4F19821882C053D14060E0C15DDE4F28
:10E7E0001882CF52D14088249924C35DDE4F19820C
:10E7F0001882CD52D140C05EDE4F188219821A8233
:10E800001B82C052D140CE5CDE4F188219821A8220
:10E810001B82C253D140EE24FF2487010BBFF701B6
:10E8200007911691C45CDE4F19830883CC53D14005
:10E830000D940BFEC25EDE4F28813981CE51D1404E
:10E840002130310509F52091C600C25EDE4F1982E4
:10E850001882CE51D14022C02F5F3F4F4F4F5F4FA4
:10E86000213082E138078AE7480780E0580780F0C6
:10E87000C45CDE4FE881F981CC53D140EF5FFF4F9C
:10E8800019F0EE27FF27099420E030E040E050E047
:10E890008091C00087FFE0CF2091C600C35DDE4FAE
:10E8A00048815981CD52D1404F5F5F4FC35DDE4FEC
:10E8B00059834883CD52D140213209F063C64A3092
:10E8C000510508F05FC60894811C911C53E0851621
:10E8D000910409F059C600E010E018C081E280936D
:10E8E000C6008091C00086FFFCCF8091C00080648C
:10E8F0008093C0002F5F3F4F2931310579F70F9486
:10E90000DCF10F5F1F4F0530110519F020E030E0FA
:10E91000E5CF10920A0210920B0210920C02109294
:10E920000D02109206021092070210920802109235
:10E930000902109202021092030210920402109235
:10E9400005028FEE90EE60E00F94F5F180E191EE1C
:10E9500060E00F94C2F18091C00087FFFCCF9091DE
:10E96000C600903608F09F759032B8F09093C600BC
:10E970008091C00086FFFCCF8091C00080648093AE
:10E98000C000A0E2A093C6008091C00086FFFCCF2B
:10E990008091C00080648093C000983409F4D7C18E
:10E9A0009934B8F4923409F459C1933458F490333B
:10E9B00019F1903308F4E3C59F33A1F1903409F0C5
:10E9C000DEC5BDC0953409F470C1963409F0D7C5D1
:10E9D00098C1923509F42BC2933538F49C3409F46C
:10E9E000F5C1913509F0CBC518C2963509F445C279
:10E9F000993509F0C4C567C483E792EE62E00F94CD
:10EA0000F5F110920602109207021092080210927D
:10EA1000090210920A0210920B0210920C0210923C
:10EA20000D0213C18FE792EE62E00F94F5F18FEEC5
:10EA300090EE60E00F94F5F181E291EE60E00F94CA
:10EA4000C2F187EB91EE60E00F94F5F180E391EE77
:10EA500060E00F94C2F184EE90EE60E00F94F5F167
:10EA60008FE391EE60E00F94C2F186E090E061E008
:10EA700070E00F9434F20F94DCF18DE591EE60E0DC
:10EA80000F94C2F189EC91EE60E00F94F5F18EE401
:10EA900091EE60E00F94C2F183EC91EE60E00F9490
:10EAA000F5F18CE691EE60E00F94C2F18EE10F94E7
:10EAB0000DF288E90F940DF281E00F940DF20F949E
:10EAC000DCF18BE791EE60E00F94C2F119E0E0E039
:10EAD000F0E010935700E4918E2F0F940DF20F94F5
:10EAE000DCF18AE891EE60E00F94C2F1E3E0F0E03F
:10EAF00010935700E4918E2F0F940DF20F94DCF1D8
:10EB000089E991EE60E00F94C2F1E2E0F0E0109349
:10EB10005700E4918E2F0F940DF20F94DCF188EAE8
:10EB200091EE60E00F94C2F1E1E0F0E01093570045
:10EB30001491812F0F940DF20F94DCF107CF8BE825
:10EB400092EE62E00F94F5F18BE492EE60E00F94A8
:10EB5000F5F10F94DCF100E010E019C0C8016F2D51
:10EB60000F947FFEFF2031F489E492EE60E00F9471
:10EB7000C2F10BC0F092C6008091C00086FFFCCFAE
:10EB80008091C00080648093C0000F5F1F4FC80158
:10EB900081519F41A0E0B0E0ABBFFC01F790BAE229
:10EBA000FB1621F0E2E000301E07C1F60F94DCF105
:10EBB0000F94DCF187E592EE60E00F94F5F10F948D
:10EBC000DCF1CC24DD2400E010E01EC0C8010F946D
:10EBD00077FEF82E882331F489E492EE60E00F94FA
:10EBE000C2F10BC08093C6008091C00086FFFCCFAD
:10EBF0008091C00080648093C000FE1419F00894D6
:10EC0000C11CD11C0F5F1F4FC80181519F41A0E063
:10EC1000B0E0ABBFFC01E790FAE2EF1621F022E092
:10EC20000030120799F60F94DCF10F94DCF182E6C4
:10EC300092EE60E00F94C2F1C60161E070E00F94C3
:10EC400034F20F94DCF10F94DCF110920202109276
:10EC50000302109204021092050278CE89E992EE26
:10EC600062E00F94F5F1279A2F9A16C02F9880E052
:10EC700090E0E0EDF7E03197F1F7019684369105E9
:10EC8000C1F72F9A80E090E0E0EDF7E03197F1F7DF
:10EC9000019684369105C1F78091C00087FFE6CFC9
:10ECA0008091C00087FFFCCF64C485EA92EE62E0E9
:10ECB0000F94F5F140910202509103026091040219
:10ECC0007091050281E020E10F9491F2809102029F
:10ECD00090910302A0910402B091050280509F4FD1
:10ECE000AF4FBF4F8093020290930302A0930402A0
:10ECF000B093050280509041A040B04008F426CE69
:10ED0000A4CF83EB92EE62E00F94F5F140910602FE
:10ED100050910702609108027091090280E020E1A1
:10ED20000F9491F28091060290910702A09108023F
:10ED3000B091090280509F4FAF4FBF4F80930602A2
:10ED400090930702A0930802B0930902FFCD80ECD4
:10ED500092EE62E00F94F5F183E792EE60E00F949B
:10ED6000F5F18FE792EE60E00F94F5F18BE892EE0B
:10ED700060E00F94F5F189E992EE60E00F94F5F10F
:10ED800085EA92EE60E00F94F5F183EB92EE60E09D
:10ED90000F94F5F180EC92EE60E00F94F5F187ECC2
:10EDA00092EE60E00F94F5F188ED92EE60E00F9442
:10EDB000F5F18FED92EE60E00F94F5F18AEE92EEB0
:10EDC00060E00F94F5F183E093EEBDCD87EC92EE19
:10EDD00062E00F94F5F181E40F947BF282E40F94EA
:10EDE0007BF283E40F947BF284E40F947BF285E45E
:10EDF0000F947BF286E40F947BF287E40F947BF20E
:10EE000088E40F947BF28AE40F947BF28BE40F94F6
:10EE10007BF28CE40F947BF299CD88ED92EE62E068
:10EE20000F94F5F1772473948824992409C48FED05
:10EE300092EE62E00F94F5F140910A0250910B02BC
:10EE400060910C0270910D0282E020E10F9491F22A
:10EE500080910A0290910B02A0910C02B0910D02D8
:10EE600080509F4FAF4FBF4F80930A0290930B0289
:10EE7000A0930C02B0930D0269CD8AEE92EE62E08F
:10EE80000F94F5F184EE90EE60E00F94F5F18FECC5
:10EE900091EE60E00F94F5F1662477244301CC5D98
:10EEA000DE4F19821882C452D140D401C301B695F5
:10EEB000A79597958795CA5DDE4F88839983AA8326
:10EEC000BB83C652D140CC5DDE4FA881B981C4520C
:10EED000D1401196CC5DDE4FB983A883C452D14096
:10EEE000CD0162E070E00F9434F2B0E2B093C6005E
:10EEF0008091C00086FFFCCF8091C0008064809329
:10EF0000C000EDE2E093C6008091C00086FFFCCF18
:10EF10008091C00080648093C000F0E2F093C6004E
:10EF20008091C00086FFFCCF8091C00080648093F8
:10EF3000C000CA5DDE4FE880F9800A811B81C6529D
:10EF4000D140BB27A12F902F8F2D0F940DF2CA5DBA
:10EF5000DE4F8881C652D1400F940DF2B0E2FB2EF5
:10EF6000F092C6008091C00086FFFCCF8091C00067
:10EF700080648093C0000DE30093C6008091C000C0
:10EF800086FFFCCF8091C00080648093C00010E2B7
:10EF90001093C6008091C00086FFFCCF8091C00016
:10EFA00080648093C0008BBEF3012791C65DDE4F65
:10EFB0002883CA52D140A22EBB24CC24DD2408943D
:10EFC000611C711C811C911C8BBEF3018791282E42
:10EFD0003324442455240894611C711C811C911C09
:10EFE0008BBEF3013791C55DDE4F3883CB52D140E4
:10EFF0000894611C711C811C911C8BBEF30147910C
:10F00000C45DDE4F4883CC52D140ADEFEA2EAFEF66
:10F01000FA2EAFEF0A2FAFEF1A2F6E0C7F1C801E57
:10F02000911E142D032DF22CEE24EA0CFB1C0C1D5A
:10F030001D1D0F940DF220E22093C6008091C000A8
:10F0400086FFFCCF8091C00080648093C000C65DC5
:10F05000DE4F8881CA52D1400F940DF230E23093D6
:10F06000C6008091C00086FFFCCF8091C000806404
:10F070008093C000C45DDE4F8881CC52D1400F9494
:10F080000DF240E24093C6008091C00086FFFCCFA5
:10F090008091C00080648093C000C55DDE4F888190
:10F0A000CB52D1400F940DF250E25093C6008091A4
:10F0B000C00086FFFCCF8091C00080648093C000B8
:10F0C0008FEFE8168FEFF80680E0080780E018075A
:10F0D00031F484E092EE60E00F94C2F1DFC0D80119
:10F0E000C7018070907CA070B0708050904CA040A0
:10F0F000B040D1F52FEF3FE340E050E0E222F322B1
:10F1000004231523CA5DDE4FA880B980CA80DB8046
:10F11000C652D140AE0CBF1CC01ED11EAA0CBB1CD7
:10F12000CC1CDD1C8EE092EE60E00F94C2F1BB2798
:10F13000A12F902F8F2D0F940DF28E2D0F940DF285
:10F1400030E23093C6008091C00086FFFCCF8091F2
:10F15000C00080648093C0004EE34093C60080915D
:10F16000C00086FFFCCF87C08EE09EEFA0E0B0E03D
:10F17000E822F9220A231B239CE0E91694E9F90608
:10F1800090E0090790E0190709F088C0C45DDE4FE0
:10F19000A881CC52D140EA2EFF2400E010E0102FCD
:10F1A0000F2DFE2CEE24C55DDE4FB881CB52D14031
:10F1B000EB0EF11C011D111DD601C501817090706F
:10F1C000A070B070DC0199278827E80EF91E0A1F8D
:10F1D0001B1F20EF30E040E050E0A222B322C42207
:10F1E000D52241E1AA0CBB1CCC1CDD1C4A95D1F7F1
:10F1F000EA0CFB1C0C1D1D1D81E090E0A0E0B0E0BE
:10F20000282239224A225B2235E1220C331C441C7D
:10F21000551C3A95D1F7E20CF31C041D151D57013E
:10F220006801AA0CBB1CCC1CDD1C85E192EE60E0E1
:10F230000F94C2F1C801AA27BB270F940DF2BB2778
:10F24000A12F902F8F2D0F940DF28E2D0F940DF274
:10F2500090E29093C6008091C00086FFFCCF809121
:10F26000C00080648093C000AEE3A093C60080918C
:10F27000C00086FFFCCF8091C00080648093C000F6
:10F28000C601AA27BB270F940DF2BB27AD2D9C2DDD
:10F290008B2D0F940DF28A2D0F940DF20F94DCF14B
:10F2A000CC5DDE4FE881F981C452D140F99709F471
:10F2B0004DCBF4E0EF2EF12C012D112D6E0C7F1CA7
:10F2C000801E911EF2CD83E093EE62E00F94F5F183
:10F2D0008AE192EE60E00F94C2F18091C00087FF56
:10F2E000FCCF1091C6001F751093C6008091C0001E
:10F2F00086FFFCCF8091C00080648093C0000F9493
:10F30000DCF1812F81548A3108F036C1163409F4BA
:10F3100095C0173490F4133409F44EC0143430F40B
:10F320001134F1F0123409F01DC130C0143409F465
:10F3300059C0153409F016C16BC01A3409F4C4C0A1
:10F340001B3438F4173409F48FC0183409F00AC19B
:10F35000A1C01B3409F4D2C01C3409F003C1E8C0B9
:10F360008FEF81B90DC082B1809582B980E090E0C5
:10F37000E0EDF7E03197F1F70196883C9105C1F790
:10F380008091C00087FFEFCF12B8EFC08FEF84B934
:10F390000DC085B1809585B980E090E0E0EDF7E0A3
:10F3A0003197F1F70196883C9105C1F78091C00033
:10F3B00087FFEFCF15B8D9C08FEF87B90DC088B1DF
:10F3C000809588B980E090E0E0EDF7E03197F1F7C3
:10F3D0000196883C9105C1F78091C00087FFEFCF6F
:10F3E00018B8C3C08FEF8AB90DC08BB180958BB9A7
:10F3F00080E090E0E0EDF7E03197F1F70196883C8E
:10F400009105C1F78091C00087FFEFCF1BB8ADC059
:10F410008FEF8DB90DC08EB180958EB980E090E0F0
:10F42000E0EDF7E03197F1F70196883C9105C1F7DF
:10F430008091C00087FFEFCF1EB897C08FEF80BBD1
:10F440000DC081B3809581BB80E090E0E0EDF7E0F6
:10F450003197F1F70196883C9105C1F78091C00082
:10F4600087FFEFCF11BA81C08FEF83BB0DC084B38C
:10F47000809584BB80E090E0E0EDF7E03197F1F714
:10F480000196883C9105C1F78091C00087FFEFCFBE
:10F4900014BA6BC08FEF809301010FC080910201FD
:10F4A00080958093020180E090E0E0EDF7E03197F5
:10F4B000F1F70196883C9105C1F78091C00087FF64
:10F4C000EDCF1092020151C08FEF809304010FC065
:10F4D0008091050180958093050180E090E0E0ED4A
:10F4E000F7E03197F1F70196883C9105C1F78091DB
:10F4F000C00087FFEDCF1092050137C08FEF8093DA
:10F5000007010FC08091080180958093080180E079
:10F5100090E0E0EDF7E03197F1F70196883C910536
:10F52000C1F78091C00087FFEDCF109208011DC088
:10F530008FEF80930A010FC080910B01809580931B
:10F540000B0180E090E0E0EDF7E03197F1F70196F4
:10F55000883C9105C1F78091C00087FFEDCF1092E4
:10F560000B0103C085E292EEEEC98091C00087FFD7
:10F57000FCCF8091C600EAC988E392EEE4C98CE131
:10F5800091EEE1C988249924933011F1943028F444
:10F59000913089F09230B8F408C0953061F195301F
:10F5A000F0F0963009F048C043C02B3109F042C951
:10F5B00091E06BE13FC96227C15DDE4F2883CF52E6
:10F5C000D14092E037C9B22FA0E0622793E032C960
:10F5D000822F90E0A82BB92B622794E02BC92E3004
:10F5E00009F039C3622795E0C05DDE4F19821882A9
:10F5F000C053D1401FC9E1E0F0E0EC0FFD1FC05D3A
:10F60000DE4F08811981C053D140E00FF11F2083E4
:10F610000F5F1F4FC05DDE4F19830883C053D14079
:10F6200062270A171B0709F005C9D80196E002C92D
:10F63000261709F010C303C0973009F0FBC87724E0
:10F640009981933109F412C19431C8F4963009F4C8
:10F65000D8C0973050F4923009F406C1933009F4C1
:10F660006DC0913009F059C253C0913109F477C08F
:10F67000923108F0BBC0903109F04FC2F5C098310B
:10F6800009F487C0993150F4953109F4EFC09531F0
:10F6900008F4C6C1963109F040C2C2C19A3109F4DA
:10F6A0006CC09A3108F491C09B3109F45BC09D3164
:10F6B00009F033C29D81903359F48F81882311F46E
:10F6C0009EE11CC0813011F091E018C098E916C08D
:10F6D000892F807591F0903539F4E0E0F0E089E011
:10F6E0008093570094910AC0983539F4E3E0F0E034
:10F6F00089E080935700949101C090E01A821B82A8
:10F700008D818C831D829E831F8227E030E009C299
:10F710001A8288E08B8381E48C8386E58D8382E581
:10F720008E8389E48F8383E5888780E589878FE5E9
:10F730008A8782E38B872BE030E0F3C18A818139AD
:10F7400041F0823941F0803911F48FE005C080E04A
:10F7500003C082E001C08AE01A828B8344C0772410
:10F76000739482C08D81882311F48EE12CC0813086
:10F7700011F081E028C088E926C01A82E1E0F0E0BB
:10F7800089E08093570084918B831C8224E030E0D1
:10F79000C8C18B81803589F48C81883039F4E2E0EE
:10F7A000F0E089E08093570084910DC0E0E0F0E044
:10F7B00089E080935700849106C0E3E0F0E089E09F
:10F7C0008093570084911A82DFCF8D81836C99E0FA
:10F7D000E1E0F0E0082E90935700E89507B600FCB2
:10F7E000FDCF1A821B8223E030E09BC180EC8A832C
:10F7F000CE5CDE4F188219821A821B82C253D1401E
:10F800008EC18A8190E0A0E0B0E0582F44273327D2
:10F8100022278B8190E0A0E0B0E0DC0199278827C7
:10F82000282B392B4A2B5B2B8D8190E0A0E0B0E098
:10F83000282B392B4A2B5B2B8C8190E0A0E0B0E089
:10F84000BA2FA92F982F8827282B392B4A2B5B2BCF
:10F85000220F331F441F551FC05EDE4F288339839C
:10F860004A835B83C052D1401A8259C13A81C95C34
:10F87000DE4F3883C753D140CA5CDE4F1882C6536F
:10F88000D1408B81C82EDD24CA5CDE4F488159816E
:10F89000C653D140C42AD52A933109F082C0CE5C28
:10F8A000DE4F88819981AA81BB81C253D1408050AB
:10F8B000904CA340B04030F583E0CE5CDE4FE88052
:10F8C000F9800A811B81C253D140F70100935B008C
:10F8D00080935700E89507B600FCFDCFCE5CDE4F65
:10F8E000088119812A813B81C253D14000501F4FAA
:10F8F0002F4F3F4FCE5CDE4F088319832A833B8313
:10F90000C253D140C05EDE4F488159816A817B81FC
:10F91000C052D140DE011B9631E08C9111962C91A2
:10F9200011971296C75CDE4F2883C953D140C85C3B
:10F93000DE4F1882C853D14090E0C85CDE4FE881AA
:10F94000F981C853D1408E2B9F2B0C01FA01609393
:10F950005B0030935700E89511244E5F5F4F6F4F67
:10F960007F4F0EEFE02E0FEFF02ECE0CDF1CC114F8
:10F97000D10499F685E0C05EDE4F088119812A81A5
:10F980003B81C052D140F80120935B008093570027
:10F99000E89507B600FCFDCF81E180935700E8951C
:10F9A00035C0C05EDE4F88819981AA81BB81C0527B
:10F9B000D140B695A795979587957C018601ABE0D8
:10F9C000AA2EB12CAC0EBD1E0BC0D5016D915D01F0
:10F9D000C7010F947FFE0894E11CF11C01501040F8
:10F9E0000115110591F7A60160E070E0440F551F65
:10F9F000661F771FC05EDE4FE880F9800A811B8199
:10FA0000C052D1404E0D5F1D601F711F1A82C05E33
:10FA1000DE4F488359836A837B83C052D1407FC0C5
:10FA2000FA80C55CDE4FF882CB53D140C65CDE4F16
:10FA30001882CA53D1408B81C82EDD24C65CDE4FAC
:10FA400008811981CA53D140C02AD12A1A828981DA
:10FA5000BE016D5F7F4F843121F59601C05EDE4FA0
:10FA6000E880F9800A811B81C052D1400BBFF701A9
:10FA700087919691DB018C9311969C936E5F7F4FDB
:10FA8000D801C7010296A11DB11DC05EDE4F88835B
:10FA90009983AA83BB83C052D14022503040F1F6F3
:10FAA00036C0C05EDE4F288139814A815B81C052F9
:10FAB000D1400894C108D108760100E010E0089414
:10FAC000C11CD11C0894E11CF11C011D111DE20E8A
:10FAD000F31E041F151F21BDBB27A52F942F832FB5
:10FAE00082BD2F5F3F4F4F4F5F4FF89A80B5DB01CC
:10FAF0008D93BD012E153F054007510761F7C05E8C
:10FB0000DE4F288339834A835B83C052D1409601FC
:10FB10002D5F3F4FFB01108204C080EC8A8322E0FE
:10FB200030E08BE18093C6008091C00086FFFCCF5F
:10FB30008091C00080648093C000C15DDE4FF88179
:10FB4000CF52D140F093C6008091C00086FFFCCF19
:10FB50008091C00080648093C000432F3093C60022
:10FB60008091C00086FFFCCF8091C00080648093AC
:10FB7000C000922F2093C6008091C00086FFFCCF6A
:10FB80008091C00080648093C0008EE08093C600A6
:10FB90008091C00086FFFCCF8091C000806480937C
:10FBA000C00065E1C15DDE4FE880CF52D1406E25D7
:10FBB00069276427FE01319610C090819093C6009A
:10FBC0008091C00086FFFCCF31968091C000806498
:10FBD0008093C0006927215030402115310569F715
:10FBE0006093C6008091C00086FFFCCF8091C0006A
:10FBF00080648093C00085B1805885B9772081F4F6
:10FC0000C15DDE4F0881CF52D1400F5FC15DDE4F35
:10FC10000883CF52D14090E0A0E0B0E00D941AF4F8
:10FC200027982F9880E090E020ED37E0F901319798
:10FC3000F1F7019684369105C9F700008091C00064
:10FC40008D7F8093C00081E180935700E895EE2777
:10FC5000FF270994FFCF90E00D941AF497FB092E2B
:10FC600007260AD077FD04D02ED006D000201AF443
