:020000040000FA
:100000000C9438010C9469010C9469010C946901F9
:100010000C9469010C9469010C9469010C946901B8
:100020000C9469010C9469010C9469010C946901A8
:100030000C9469010C9469010C9469010C94690198
:100040000C9469010C9470120C9469010C94690170
:100050000C9469010C9469010C9469010C943C1195
:100060000C9469010C94B0110C9486110C946901E4
:100070000C9469010C9469010C9469010C94690158
:100080000C9442120C9469010C9469010C9469015E
:100090000C9469010C9469010C9469010C94690138
:1000A0000C9469010C9469010C9414120C9469016C
:1000B0000C9469010C9469010C9469010C94E6118B
:1000C0000C9469010C9469010C9469010C94690108
:1000D0000C9469010C9469010C9469010C946901F8
:1000E0000C9469010C94B2010C94AE010C94C401FF
:1000F0000C94A4010C9418030C94B6010C94B00356
:100100000C94CA010C948F010C94FE120C940403FD
:100110000C94C9010C94B51C0C9426030C94890111
:100120000C949B010C94C0010C9493010C94A801B5
:100130000C94C8020C94F5020C949E010C94CE0110
:100140000C94BC010C945E030C94970100002100F8
:10015000240027002A002D00300033000101000098
:10016000040107010A0100002200250028002B00DD
:100170002E003100340002010000050108010B01CE
:10018000000020002300260029002C002F00320050
:100190000001000003010601090105050505070529
:1001A00008080808020202020A0A080804040404F3
:1001B000010101010101010103030303030303031F
:1001C000040707070C0C0C0C0C0C0C0C02020202AE
:1001D00006060606060606060B0B0B0B0B0B0B0B97
:1001E0000102102020080810204010204080020149
:1001F000020108040201010204081020408080402E
:10020000201008040201800402018040201008042C
:1002100002010804020101020408102040800102CA
:1002200004081020408000000A0B02090C0D0E0883
:1002300007030401000000000000000000000000AF
:1002400000000000000000000000000000000000AE
:10025000000012111000000000000000000000006B
:10026000000000000000000000000000FE12B51CAD
:1002700011241FBECFEFD1E2DEBFCDBF00E00CBF27
:100280001AE0A0E0B2E0ECE6F3E400E00BBF02C04D
:1002900007900D92AA30B107D9F72BE0AAE0BAE097
:1002A00001C01D92AB37B207E1F711E0C7E3D1E01F
:1002B00000E006C021970109802FFE010E94751FF2
:1002C000C633D10780E00807A9F70E9451130C94A8
:1002D000A4210C9400008150823108F05AC0E82F0C
:1002E000F0E08827E958FE4F8F4F0C94751F970157
:1002F0009B0189018F019301C9019E01A401A801FD
:10030000AE01B201B601BC01C001C901C401CA01FC
:10031000CE01809180008F77809380000895809136
:1003200080008F7DF9CF80918000877FF5CF84B5E5
:100330008F7784BD089584B58F7DFBCF8091B00009
:100340008F778093B00008958091B0008F7DF9CFB2
:10035000809190008F778093900008958091900015
:100360008F7DF9CF80919000877FF5CF8091A0009D
:100370008F778093A00008958091A0008F7DF9CFA2
:100380008091A000877FF5CF809120018F778093A7
:1003900020010895809120018F7DF9CF8091200167
:1003A000877FF5CFCF93DF93282F30E0F901EA5D07
:1003B000FD4F8491F901E052FE4FD491F901E656C8
:1003C000FE4FC491CC23A1F081110E946B01EC2F50
:1003D000F0E0EE0FFF1FE058FE4FA591B491EC91B5
:1003E000ED2381E090E009F480E0DF91CF91089562
:1003F00080E090E0FACF1F93CF93DF93282F30E077
:10040000F901EA5DFD4F8491F901E052FE4FD4916C
:10041000F901E656FE4FC491CC23A9F0162F8111A5
:100420000E946B01EC2FF0E0EE0FFF1FEA59FE4F28
:10043000A591B4918FB7F894EC91111108C0D095A3
:10044000DE23DC938FBFDF91CF911F910895DE2BC8
:10045000F8CFCF93DF9390E0FC01E052FE4F249160
:1004600086569E4FFC0184918823C9F090E0880F46
:10047000991FFC01E45BFE4FA591B491FC01EA5980
:10048000FE4FC591D49161110DC09FB7F8948C9126
:10049000209582238C938881282328839FBFDF9116
:1004A000CF910895623051F49FB7F8943C91822F18
:1004B000809583238C93E8812E2BEFCF8FB7F89410
:1004C000EC912E2B2C938FBFEACF3FB7F8948091FD
:1004D000BE0A9091BF0AA091C00AB091C10A26B588
:1004E000A89B05C02F3F19F00196A11DB11D3FBF6C
:1004F000BA2FA92F982F8827BC01CD01620F711D3B
:10050000811D911D42E0660F771F881F991F4A9534
:10051000D1F708958F929F92AF92BF92CF92DF92C0
:10052000EF92FF924B015C010E9465026B017C011E
:100530000E9465026C197D098E099F09683E73400F
:1005400081059105A8F321E0821A9108A108B1085C
:1005500088EEC80E83E0D81EE11CF11C81149104C2
:10056000A104B10429F7FF90EF90DF90CF90BF90E6
:10057000AF909F908F9008952FB7F8946091BA0A2A
:100580007091BB0A8091BC0A9091BD0A2FBF08955B
:10059000AF92BF92CF92DF92EF92FF920F931F9391
:1005A000CF93DF936C017B018B01040F151FEB01CF
:1005B0005E01AE18BF08C017D10759F06991D60186
:1005C000ED91FC910190F081E02DC6011995892BE8
:1005D00079F7C501DF91CF911F910F91FF90EF90B7
:1005E000DF90CF90BF90AF900895FC01538D448D64
:1005F000252F30E0842F90E0821B930B541710F0CE
:10060000CF96089501970895FC01918D828D9817DA
:1006100061F0A28DAE0FBF2FB11D5D968C91928DB2
:100620009F5F9F73928F90E008958FEF9FEF0895E3
:10063000FC01918D828D981731F0828DE80FF11DAC
:10064000858D90E008958FEF9FEF0895FC01918DC7
:10065000228D892F90E0805C9F4F821B91098F73C0
:100660009927089582EC9AE00E94260321E0892BC5
:1006700009F420E0822F0895FC01A48DA80FB92F62
:10068000B11DA35ABF4F2C91848D90E001968F73BA
:100690009927848FA689B7892C93A089B1898C91D9
:1006A000837080648C93938D848D981306C0028828
:1006B000F389E02D80818F7D80830895EF92FF92F2
:1006C0000F931F93CF93DF93EC0181E0888F9B8D75
:1006D0008C8D98131AC0E889F989808185FF15C02F
:1006E0009FB7F894EE89FF896083E889F989808152
:1006F0008370806480839FBF81E090E0DF91CF9121
:100700001F910F91FF90EF900895F62E0B8D10E042
:100710000F5F1F4F0F731127E02E8C8D8E110CC0B1
:100720000FB607FCFACFE889F989808185FFF5CFFC
:10073000CE010E943C03F1CFEB8DEC0FFD2FF11D9C
:10074000E35AFF4FF0829FB7F8940B8FEA89FB8939
:1007500080818062CFCF682F82EC9AE00C945E0398
:10076000CF93DF93EC01888D8823B9F0AA89BB89E8
:10077000E889F9898C9185FD03C0808186FD0DC0D3
:100780000FB607FCF7CF8C9185FFF2CF808185FFF4
:10079000EDCFCE010E943C03E9CFDF91CF910895C8
:1007A00080E090E0892B29F00E94320381110E94A1
:1007B000000080E090E0892B49F080E090E0892BF8
:1007C00029F00E94000081110E94000080E090E06A
:1007D000892B49F080E090E0892B29F00E940000ED
:1007E00081110E94000080E090E0892B49F080E0B8
:1007F00090E0892B29F00E94000081110C940000E8
:1008000008958F929F92AF92BF92FF920F931F9382
:10081000CF93DF93FC01F0808FE28F1508F44AC07C
:10082000828108E512E0081B110987FD1395000F6E
:10083000111F000F111F8181C8E8D0E0C81BD1092A
:1008400087FDD395CC0FDD1FCC0FDD1F4E010D2E84
:10085000000CAA08BB089801012E000C440B550B94
:10086000281939094A095B09DB010E94181E24EB8B
:1008700030E040E050E00E94EE1D820E931EA41E68
:10088000B51E8C169D062CF0E801801691060CF41E
:10089000E4012297CC0FDD1F2FB7F8948F2D90E045
:1008A000FC01EE0FFF1FE80FF91FE35EF54FD28347
:1008B000C1832FBFDF91CF911F910F91FF90BF9008
:1008C000AF909F908F9008951F93CF93DF93EC018B
:1008D000162F8881803308F04EC061E0812F0E947E
:1008E00029028881282F30E0F901EE0FFF1FE20F67
:1008F000F31FE35EF54F1F736081607C612B6083A3
:1009000019821A822CE0622F0E94691F829FB00117
:10091000112430E020E0AB01420F531FFA01EE0F2B
:10092000FF1FE40FF51FE35EF54F908196FD16C0A3
:100930002F5F3F4F2C30310571F7813009F5109250
:10094000800082E0809381001092850010928400E4
:10095000B19A80916F00826080936F00E8818E2F42
:1009600090E0FC01EE0FFF1FE80FF91FE35EF54F6B
:100970008081806480838881DF91CF911F91089569
:10098000823061F410929000809391001092950053
:100990001092940088BB80937100E0CF833069F49B
:1009A0001092A00082E08093A1001092A500109206
:1009B000A40089BB80937200D1CF8111CFCF109258
:1009C000200182E0809321011092250110922401E0
:1009D0008ABB80937300C2CFAF92BF92CF92DF9257
:1009E000EF92FF920F931F93CF93DF936B017A01E6
:1009F000EC01C85ED54F28813CE0389F8001399FCB
:100A0000100D1124A0901C0AB12C27FF1FC0FB0160
:100A10001182108288818F5F888388819801280FD6
:100A2000311D87FD3A95F6012A153B051CF4888196
:100A30008C30C4F180819181049680349C4908F403
:100A400073C0F60180819181049670C088819801FD
:100A5000280F311D87FD3A952A153B05DCF6888164
:100A6000A801480F511D87FD5A95FA01EE0FFF1F8F
:100A7000E40FF51FE35EF54F808186FFCBCF8881C1
:100A8000F801E80FF11D87FDFA95CF01EE0FFF1F6A
:100A9000E80FF91FE35EF54F808160E08F730E94DD
:100AA000FB01B8CF808191812881A801420F511D9F
:100AB00027FD5A959A01FA01EE0FFF1FE20FF31F6F
:100AC000E35EF54F21813281820F931FF7019183FD
:100AD000808388819801280F311D87FD3A95F9019F
:100AE000EE0FFF1FE20FF31FE35EF54F808186FFDD
:100AF00022C08881080F111D87FD1A95F801EE0F9D
:100B0000FF1FE00FF11FE35EF54F808161E08F73FF
:100B1000DF91CF911F910F91FF90EF90DF90CF90D9
:100B2000BF90AF900C94FB0180E49CE9F7019183A6
:100B300080838FEF8883DF91CF911F910F91FF907A
:100B4000EF90DF90CF90BF90AF900895EF92FF921B
:100B50000F931F93CF93DF9388E3E0E1F3E0DF018E
:100B6000982F1D929A95E9F7E3EAF2E0DF01982FBA
:100B70001D929A95E9F7E6E3F2E0DF011D928A956E
:100B8000E9F70E94BC02CBEDD2E068AF79AF8AAF43
:100B90009BAF0EE612E0F80160AF71AF82AF93AF8A
:100BA00021E0E22E22E0F22ED701D8966D937D93BC
:100BB0008D939C93DB9719A211A291961C92919709
:100BC0001AA212A292961C9292971BA213A293961B
:100BD0001C92939762EB70E053968D919C910E94CA
:100BE000010470E060E0F701858996890E940104A4
:100BF00062EB70E0D80153968D919C910E940104A4
:100C000070E060E0F801858996890E94010462EB3A
:100C100070E08B899C890E9401046FEA70E08D89E5
:100C20009E89DF91CF911F910F91FF90EF900C94CF
:100C30000104CF93DF93EC0161E08C810E942902D3
:100C400060E08D810E94290260E08C810E94FB019E
:100C500061E08A850E94290260E08B850E9429025A
:100C600061E08C850E94290260E08D850E94290246
:100C700061E08E850E94290260E08F850E94290232
:100C800060E08A850E94FB0160E08C850E94FB0188
:100C900060E08E850E94FB01688570E08B899C89ED
:100CA0000E946404698570E08D899E89DF91CF91EF
:100CB0000C9464048091B80A882391F09091B40A4E
:100CC00091110DC0E091B50AF091B60A309741F04C
:100CD00084A5811104C085A591E08927089580E04D
:100CE0000895CF93DF93EC011AA219A21BA262EB25
:100CF00070E08B899C890E9401048D899E8960E047
:100D0000CB5DD24009F46FEA70E0DF91CF910C9493
:100D10000104CF92DF92EF92FF920F931F93CF9334
:100D2000DF93EC01862F0E94D2018C01FF24F39403
:100D3000892B09F0F12C8EA58F1539F0FEA60E94A3
:100D4000BC026FA778AB89AB9AAB8DA58F1559F113
:100D50000E94BC02CFA4D8A8E9A8FAA8DC01CB0164
:100D60008C199D09AE09BF09012B39F0803D9740D0
:100D7000A105B105C0F01DA613C0843F9140A10597
:100D8000B10588F081E08DA72091B50A3091B60AAF
:100D90002C173D0711F48093B40ACE010E9471060E
:100DA00081E080930002DF91CF911F910F91FF901E
:100DB000EF90DF90CF9008950F931F93CF936FE242
:100DC00081E092E00E94890660E38EE692E00E9454
:100DD000890661E38BED92E00E94890682E30E941E
:100DE000D201C1E0892B09F0C0E080910F0A8C1775
:100DF00061F0C0930F0A0E94BC0260930B0A7093CB
:100E00000C0A80930D0A90930E0A80910A0A8C179F
:100E1000C1F00E94BC0200910B0A10910C0A2091B3
:100E20000D0A30910E0A601B710B820B930B683E0A
:100E300073408105910528F0C0930A0A81E08093F0
:100E40000002CF911F910F910895FC0101900020A5
:100E5000E9F73197AF01481B590BBC0182EC9AE0CE
:100E60000C94C8028F929F92AF92BF920F931F93E0
:100E7000CF93DF93CDB7DEB7A1970FB6F894DEBF5F
:100E80000FBECDBF19A2423008F44AE08E010F5DBB
:100E90001F4F842E912CB12CA12CA50194010E94EE
:100EA000201EE62FB901CA01EA30F4F4E05DD80152
:100EB000EE938D01232B242B252B79F790E080E0F6
:100EC000109719F0CD010E942507A1960FB6F8944E
:100ED000DEBF0FBECDBFDF91CF911F910F91BF90AD
:100EE000AF909F908F900895E95CE1CFCF92DF9211
:100EF000EF92FF92CF93DF9397FF19C06B017C01B4
:100F00008DE20E94AB03EC0166277727CB016C19B9
:100F10007D098E099F094AE00E9432078C0F9D1FB0
:100F2000DF91CF91FF90EF90DF90CF9008954AE04E
:100F3000DF91CF91FF90EF90DF90CF900C9432072C
:100F4000BC01990F880B990B0C947607009711F050
:100F50000C94250790E080E00895CF93DF93D0E0D4
:100F6000C0E0009719F00E942507EC0186E693E0A7
:100F70000E9425078C0F9D1FDF91CF910895CF927E
:100F8000DF92EF92FF920F931F93CF93DF93EC01C9
:100F90000E94BC026B017C018091EC020E94D20194
:100FA0000197D1F40E94BC026C197D098E099F093A
:100FB000683E73408105910578F40E94DC068091BB
:100FC000B50A9091B60A892BF9F461E070E080E0EF
:100FD00090E00E948A02E0CF8091EC020E94D20150
:100FE00018E1C12CD12C7601892B99F089E693E088
:100FF0000E94AD0780E0DF91CF911F910F91FF908C
:10100000EF90DF90CF9008950E945A068111DDCFB6
:10101000EDCF0FB7F89461E08091ED020E94FB01E3
:10102000CC0CDD1CEE1CFF1C8091EC020E94D20156
:10103000092E000CAA0BBB0BC82AD92AEA2AFB2AC4
:1010400060E08091ED020E94FB010FBF115009F793
:101050001FB7F89461E08091ED020E94FB0160E00F
:101060008091ED020E94FB011FBF8091EC020E9463
:10107000D201019719F089E893E0BACFE7FE02C0E8
:10108000FF24FA94C882D982EA82FB8281E0B3CF3E
:101090008F929F92AF92BF92DF92EF92FF920F9347
:1010A0001F93CF93DF9300D01F92CDB7DEB7182FD9
:1010B0007B01812C912C540100E0CE0101960E940D
:1010C000BF07D82E8823C1F089819A81AB81BC816A
:1010D000880E991EAA1EBB1E0F5F1013EECF212F84
:1010E00030E050E040E0C501B4010E94EE1DF70180
:1010F00020833183428353838D2D0F900F900F9067
:101100000F90DF91CF911F910F91FF90EF90DF90A3
:10111000BF90AF909F908F900895CF92DF92EF9203
:10112000FF92CF93DF9300D01F92CDB7DEB7BE0101
:101130006F5F7F4F0E944808882389F169817A8117
:101140008B819C81C090AE0AD090AF0AE090B00A2B
:10115000F090B10A6C197D098E099F090E94CE1C7E
:1011600020E030E042ED53E40E94BE1E6B017C01A2
:1011700020E030E0A9010E945F1F18161CF0C12C6E
:10118000D12C7601C701B6010F900F900F900F90F0
:10119000DF91CF91FF90EF90DF90CF900895C12C19
:1011A000D12C80ECE82E8FE7F82EECCFCF93DF9395
:1011B000EC01FC01F59688E3DF011D928A95E9F7C1
:1011C0000E94BC0268AF79AF8AAF9BAF8EEA93E012
:1011D0000E94A607888199810E94A60788EB93E068
:1011E000DF91CF910C94AD07CF93DF93EC018AEDA3
:1011F00099E00E94A607888199810E94A60786ED42
:1012000093E00E94A6078CA5811111C089E398E0A4
:101210000E94A60780EE93E00E94A6078DA581118B
:1012200009C086EF93E0DF91CF910C94AD0780E386
:1012300096E0EECF81ED93E0F6CF81E092E00E9460
:10124000F4088EE692E00E94F4088BED92E00E9492
:10125000F40880910A0A811107C082EF93E00E948E
:10126000AD0710920002089586EE93E0F8CFEF925A
:10127000FF921F93CF93DF93DC019C962C91211159
:1012800033C07B01EC0111E01CA7FC01F59688E35B
:10129000DF011D928A95E9F70E94BC0268AF79AF21
:1012A0008AAF9BAF8091B50A9091B60AC817D9074B
:1012B00011F41093B40ACE010E9471068CEF93E0F2
:1012C0000E94A607888199810E94A6078BE30E944D
:1012D000AB03C7010E94AD07CE01DF91CF911F91F3
:1012E000FF90EF900C94F408DF91CF911F91FF9045
:1012F000EF900895CF93DF930E94A007EC0186E65C
:1013000093E00E9425078C0F9D1FDF91CF910895D8
:101310004F925F926F927F928F929F92AF92BF9205
:10132000CF92DF92EF92FF920F931F93CF936B01B7
:101330007C01742EAC019B010E94641F882399F0EC
:1013400083E094E0CF911F910F91FF90EF90DF9099
:10135000CF90BF90AF909F908F907F906F905F9055
:101360004F900C94250746015701E894B7F82FEFEA
:101370003FEF4FE75FE7C501B4010E94641F811191
:101380000DC02FEF3FEF4FE75FE7C501B4010E94AB
:10139000C71C18161CF487E094E0D4CF2FEF3FEF62
:1013A0004FE75FE4C701B6010E945F1F18161CF4E7
:1013B0008BE094E0C7CF2FEF3FEF4FE75FECC70123
:1013C000B6010E94C71C87FDF3CF20E030E0A901E1
:1013D000C701B6010E94C71C10E000E087FF08C0EB
:1013E0008DE20E94AB038C01F7FAF094F7F8F094C9
:1013F000C0E060E070E080E09FE37C1641F020E018
:1014000030E040E251E40E94BE1ECF5FF6CFA7015C
:1014100096010E94521E2B013C010E94301F4B017D
:101420005C014AE00E9432077C01E00EF11ECC23F1
:10143000B1F1C501B4010E94CC1C9B01AC01C301F8
:10144000B2010E94511E4B015C018EE20E94AB036F
:10145000E80EF91EC15018F120E030E040E251E4FE
:10146000C501B4010E942D1D2B013C010E94301FBB
:101470004B01B12CA12C4AE0C501B4010E943207F6
:10148000E80EF91EC501B4010E94CC1C9B01AC0101
:10149000C301B2010E94511E4B015C01DBCFC701A9
:1014A000CF911F910F91FF90EF90DF90CF90BF9061
:1014B000AF909F908F907F906F905F904F90089526
:1014C000FC0124813581232B39F421E0FB0180814B
:1014D000882349F020E007C0808191810E949421F7
:1014E00021E0892BB9F7822F08950F931F93CF9393
:1014F000DF93EC0188819981009759F02A813B8123
:101500002617370730F081E0DF91CF911F910F91BF
:1015100008958B016F5F7F4F0E94A220009759F0C2
:10152000998388831B830A832C813D81232B59F760
:10153000FC011082E8CF80E0E7CFEF92FF920F939B
:101540001F93CF93DF93EC017B018A01BA010E94C4
:10155000750A28813981811114C02115310519F0CE
:10156000C9010E941920198218821D821C821B82C7
:101570001A82CE01DF91CF911F910F91FF90EF90D2
:1015800008951D830C83B701C9010E949D21F1CFED
:10159000CF92DF92EF92FF920F931F93CF93DF933F
:1015A000D82FC62F0E94DC060E94BC020091100AB0
:1015B0001091110A2091120A3091130ADC01CB011B
:1015C000801B910BA20BB30B8C339105A105B105C8
:1015D00070F40CE310E020E030E068017901C81AF3
:1015E000D90AEA0AFB0AC701B6010E948A020E94D0
:1015F000BC026093100A7093110A8093120A9093B0
:10160000130A60E08D2F0E94FB0183E090E00197B8
:10161000F1F761E08D2F0E94FB0183E290E00197DA
:10162000F1F760E08D2F0E94FB01D0E0FE01E05257
:10163000FE4F6491FE01E656FE4FE491F0E0EE0F9E
:10164000FF1FE058FE4F8591949100E21EE420E0D8
:1016500030E0462F0E949E126115710581059105AB
:10166000B1F06F5F7F4F8F4F9F4F9F706115710576
:101670008105910561F02AE330E040E050E00E94EE
:10168000201EC90121503109283C310510F08FEF8F
:101690009FEFDF91CF911F910F91FF90EF90DF901F
:1016A000CF9008957F928F929F92AF92BF92CF92E8
:1016B000DF92EF92FF920F931F93CF93DF93D82F78
:1016C000762E842E912C10E000E088ECA82EB12C10
:1016D000C0E0C12CD12C7601672D8D2F0E94C80A45
:1016E0001816190694F4AC01092E000C660B770B42
:1016F000C40ED51EE61EF71ECF5F8A159B050CF49F
:101700005C01081719070CF48C016CE370E080E0B1
:1017100090E00E948A0293948910DECFC81105C020
:101720000A191B0903301105FCF08FE094E00E94B8
:10173000A6076D2F70E090E080E04AE00E9432073B
:1017400086E693E00E9425078FEF9FEFDF91CF9110
:101750001F910F91FF90EF90DF90CF90BF90AF90CF
:101760009F908F907F9008952C2F30E050E040E0C4
:10177000C701B6010E94EE1DC901E8CFCF93DF93E8
:1017800000D01F92CDB7DEB781E08093B30A1092EC
:10179000B80A1092B70A1092B20A0E94A60580E316
:1017A00094E00E94AD0768EE73E080E090E00E9454
:1017B0008A0247E060910602809105020E94520B66
:1017C000909319028093180264E670E080E090E044
:1017D0000E948A0245E060910C0280910B020E94F7
:1017E000520B90931D0280931C0264E670E080E02F
:1017F00090E00E948A0245E060910E0280910D0205
:101800000E94520B90931F0280931E0264E670E0C8
:1018100080E090E00E948A0245E060911002809191
:101820000F020E94520B909321028093200264E6E3
:1018300070E080E090E00E948A0247E060917302CD
:10184000809172020E94520B9093860280938502CF
:1018500064E670E080E090E00E948A0245E06091DA
:101860007902809178020E94520B90938A028093B1
:10187000890264E670E080E090E00E948A0245E020
:1018800060917B0280917A020E94520B90938C02AD
:1018900080938B0264E670E080E090E00E948A0210
:1018A00045E060917D0280917C020E94520B9093F2
:1018B0008E0280938D0264E670E080E090E00E94EA
:1018C0008A0247E06091E0028091DF020E94520BA1
:1018D0009093F3028093F20264E670E080E090E07F
:1018E0000E948A0247E06091E2028091E1020E9438
:1018F000520B9093F5028093F40264EF71E080E064
:1019000090E00E948A02BE016F5F7F4F8CE00E94D0
:1019100048088093B20A882361F049815A816B811B
:101920007C814093AE0A5093AF0A6093B00A7093E3
:10193000B10A2091180230911902121613060CF008
:1019400038C120911C0230911D02121613060CF0B2
:1019500030C120911E0230911F0291E01216130631
:1019600044F42091200230912102121613060CF447
:1019700090E090932D0220918502309186021216FC
:1019800013060CF018C12091890230918A021216B8
:1019900013060CF010C120918B0230918C021216AC
:1019A00013060CF008C121E040918D0250918E0287
:1019B000141615060CF420E020939A024091F202CE
:1019C0005091F302141615064CF44091F402509114
:1019D000F50231E08327141615060CF081E08093A0
:1019E000070331E0492F432740933502422F432715
:1019F0004093A202832780930F0338E3E0E1F3E0F2
:101A0000DF01432F1D924A95E9F7E3EAF2E0DF0197
:101A1000432F1D924A95E9F7E6E3F2E0DF011D92BC
:101A20003A95E9F710920E031092A1021092340237
:101A3000992309F4C2C02111982F9093B70A1092EC
:101A4000B30A0E94DC060E941D098BE494E00E9408
:101A5000A60789E594E00E94A60781E694E00E942B
:101A6000A60789E594E00E94A60789E694E00E9413
:101A7000A60789E594E00E94AD0781E794E00E9403
:101A8000A60780911802909119020E947A098FE8A6
:101A900094E00E94A60780911C0290911D020E9472
:101AA0007A0983EB94E00E94A60780911E02909130
:101AB0001F020E947A0987ED94E00E94A607809198
:101AC0002002909121020E947A0988EF94E00E94FE
:101AD000A60780918502909186020E947A0984E18E
:101AE00095E00E94A6078091890290918A020E9447
:101AF0007A0986E395E00E94A60780918B02909177
:101B00008C020E947A0988E595E00E94A6078091E0
:101B10008D0290918E020E947A0987E795E00E94DB
:101B2000A6078091F2029091F3020E947A0987E958
:101B300095E00E94A6078091F4029091F5020E9420
:101B40007A098091B20A882391F08AEB95E00E948D
:101B5000A6076091AE0A7091AF0A8091B00A909189
:101B6000B10A0E94760786E693E00E9425078091DD
:101B7000B20A811104C086ED95E00E94AD07809104
:101B8000B70A8823E1F081E08093B80A82EF95E0FC
:101B90000E94AD0781E096E00E94AD0781E196E0EA
:101BA0000E94AD070F900F900F900F90DF91CF9193
:101BB000089591E0DECE21E0FFCE91E03ECF8EE1B0
:101BC00096E0EECFAF92BF92CF92DF92EF92FF926C
:101BD0000F931F93CF93DF9300D000D000D01F92BC
:101BE000CDB7DEB70E94DC068091B30A811111C027
:101BF00080910002882309F455C00E94BC026093C2
:101C0000140A7093150A8093160A9093170A0E947B
:101C10001D0982EC9AE00E942603181619060CF0A2
:101C200046C282EC9AE00E9404034091630B5091FB
:101C3000640B8A3019F08D3009F014C2411551053A
:101C400041F31A8219821C821B821E821D826091BE
:101C50005F0B7091600B6115710521F0CE0101964B
:101C60000E949D0AC980DA80C114D10431F00D812F
:101C70001E8176010115110559F509811A81011599
:101C8000110509F45BC0F80181918F01882309F4E3
:101C900055C0082E000C990B0E948321F801319742
:101CA0008083F1CF0E94BC020091140A1091150AA2
:101CB0002091160A3091170A601B710B820B930B4F
:101CC000603D77408105910508F097CFA2CF75015F
:101CD00057018FEFA81AB80AF7018081082E000C6F
:101CE000990B0E94BE1C892B91F7015011090C0D14
:101CF0001D1DF8018081082E000C990B0E94BE1C4E
:101D0000892B31F00E151F0518F001501109F1CF84
:101D1000A8014F5F5F4F4E195F095E834D83CE145C
:101D2000DF0420F4B701C6010E948B21E981FA810A
:101D30008D819E81E80FF91F10829FCF8091B30A99
:101D4000811106C08091B50A9091B60A892BA9F03D
:101D50006CE679E0CE0101960E94600A811108C00C
:101D60006DE876E0CE0101960E94600A882329F092
:101D700087E996E00E94AD078EC06EEA76E0CE015C
:101D800001960E94600A182F811123C067EB76E04C
:101D9000CE0101960E94600A81111BC061EC76E0C1
:101DA000CE0101960E94600A811120C06CE679E0A4
:101DB000CE0101960E94600A882309F481C08091B7
:101DC000B70A8093B80A882309F477C081E096E0C7
:101DD000D1CF81E0111101C080E08093AD0A87E38B
:101DE00096E01111C7CF80E496E0C4CFBE01695FD1
:101DF0007F4F83E00E944808882309F44CC087EC99
:101E000096E00E94A6076F81788589859A850E9451
:101E1000760788ED96E00E94A6078091B20A882393
:101E200009F448C08AE496E00E94A6078091B20AAD
:101E3000882369F185EE96E00E94A6076091AE0ABC
:101E40007091AF0A8091B00A9091B10A0E94760712
:101E500080EF96E00E94A6076F81788589859A8534
:101E60000091AE0A1091AF0A2091B00A3091B10AE8
:101E7000601B710B820B930B0E94CE1C20E030E0A4
:101E800042ED53E40E94BE1E42E00E94880986E6AD
:101E900093E00E94250789819A81009711F00E94A2
:101EA000192050E040E068E673E08FE59BE00E9477
:101EB0009D0AAFCE8EE496E0B7CF81E596E05ACF8B
:101EC0006FEF76E0CE0101960E94600A811113C087
:101ED00064E077E0CE0101960E94600A81110BC098
:101EE0006DE876E0CE0101960E94600A8823A9F091
:101EF0000E94BE0BD0CF1092B80A0E94A6056FEFC9
:101F000076E0CE0101960E94600A882319F086E6E9
:101F100096E030CF86E796E02DCF6AE077E0CE01FD
:101F200001960E94600A882309F499C00E941D0945
:101F300081E197E00E94A6078091B70A882309F4FF
:101F400082C08091B80A882309F480C08FE796E0A8
:101F50000E94A60789E197E00E94A60780911802D7
:101F6000909119020E94A00786E297E00E94A607BE
:101F700080911C0290911D020E94A0078CE20E9499
:101F8000AB0380911E0290911F020E94A0078CE279
:101F90000E94AB0380912002909121020E94A00731
:101FA00088E397E00E94A6078091850290918602BF
:101FB0000E94A00783E497E00E94A607809189020F
:101FC00090918A020E94A0078CE20E94AB0380914C
:101FD0008B0290918C020E94A0078CE20E94AB03BE
:101FE00080918D0290918E020E94A00783E597E078
:101FF0000E94A6078091F2029091F3020E94A0072E
:1020000082E697E00E94A6078091F4029091F50283
:102010000E94A00784E797E00E94A60780917E02B5
:102020000E94D201892BA9F488E798E00E94A607B4
:1020300083E897E00E94A6078091B20A882361F0A6
:1020400082E198E097CE87E596E082CF82E198E042
:102050007FCF86EF93E0EACF87E896E08BCE81E9E9
:1020600097E088CE4832510508F0D3CD89831A8293
:102070008A010F5F1F4FB8018FE59BE00E94750A30
:10208000882309F4C6CD20915F0B3091600B8091BD
:10209000630B9091640BBE016F5F7F4F820F931FA4
:1020A0000E949D211093640B0093630BB2CD2A967E
:1020B0000FB6F894DEBF0FBECDBFDF91CF911F9159
:1020C0000F91FF90EF90DF90CF90BF90AF90089569
:1020D000CF92DF92EF92FF926B017C010E94BC02D3
:1020E0006C197D098E099F09683B7B40810591052C
:1020F00068F40E94E20D0E945A06882369F06AE0A3
:1021000070E080E090E00E948A02E8CFFF90EF90BC
:10211000DF90CF900C945A0680E0FF90EF90DF9014
:10212000CF9008958F929F92AF92BF92CF92DF92FD
:10213000EF92FF924B015C010E94BC026B017C019B
:102140000E94BC026C197D098E099F0968157905EA
:102150008A059B0568F40E94E20D0E945A068823B6
:1021600089F065E070E080E090E00E948A02E8CFAC
:10217000FF90EF90DF90CF90BF90AF909F908F90A7
:102180000C945A0680E0FF90EF90DF90CF90BF90C4
:10219000AF909F908F900895AF92BF92CF92DF92B1
:1021A000EF92FF920F931F93CF93DF936C01EB019C
:1021B000B42EA22E780187EA97E00E94A607F601C6
:1021C000808191810E94A6078FEA97E00E94A6076E
:1021D000CE010E94A60787EB97E00E94A607C801E0
:1021E0000E94A00782EC97E00E94A607C0E010E0E2
:1021F000D0E06A2D8B2D0E94C80A6C01CC2319F007
:102200008CE20E94AB03C6010E94A0071C141D04AF
:1022100054F41E141F043CF4C7018C199D0983302B
:10222000910514F1DF5FCF5FC33019F7D23008F5A5
:10223000C1E0D0E0123010F0D0E0C0E0D195C195FF
:10224000D10980ED97E00E94A607CE010E947A098D
:10225000CE01DF91CF911F910F91FF90EF90DF9012
:10226000CF90BF90AF90089502960597E0F61F5F5C
:10227000DACFC1E0D0E0E5CF1F920F920FB60F92F8
:1022800011242F933F938F939F93AF93BF9380918C
:10229000BA0A9091BB0AA091BC0AB091BD0A3091D4
:1022A000B90A23E0230F2D3758F50196A11DB11D62
:1022B0002093B90A8093BA0A9093BB0AA093BC0AF0
:1022C000B093BD0A8091BE0A9091BF0AA091C00A46
:1022D000B091C10A0196A11DB11D8093BE0A9093D1
:1022E000BF0AA093C00AB093C10ABF91AF919F915A
:1022F0008F913F912F910F900FBE0F901F901895C7
:1023000026E8230F0296A11DB11DD2CF1F920F9276
:102310000FB60F9211240BB60F922F933F934F934A
:102320005F936F937F938F939F93AF93BF93EF933D
:10233000FF9382EC9AE00E943C03FF91EF91BF91E2
:10234000AF919F918F917F916F915F914F913F914D
:102350002F910F900BBE0F900FBE0F901F901895EE
:102360001F920F920FB60F9211240BB60F922F935C
:102370008F939F93EF93FF93E091D20AF091D30A4A
:102380008081E091D80AF091D90A82FD1DC0908128
:102390008091DB0A8F5F8F732091DC0A821741F0F6
:1023A000E091DB0AF0E0EE53F54F958F8093DB0A66
:1023B000FF91EF919F918F912F910F900BBE0F90F6
:1023C0000FBE0F901F9018958081F2CF1F920F9231
:1023D0000FB60F9211240BB60F922F933F934F938A
:1023E0005F936F937F938F939F93AF93BF93EF937D
:1023F000FF9348E251E064E271E090E080E00E94E7
:10240000EC04FF91EF91BF91AF919F918F917F91DC
:102410006F915F914F913F912F910F900BBE0F9055
:102420000FBE0F901F9018951F920F920FB60F922C
:1024300011240BB60F922F933F934F935F936F939B
:102440007F938F939F93AF93BF93EF93FF9348EA4C
:1024500050E064EA70E083E090E00E94EC04FF91B9
:10246000EF91BF91AF919F918F917F916F915F910C
:102470004F913F912F910F900BBE0F900FBE0F9079
:102480001F9018951F920F920FB60F9211240BB642
:102490000F922F933F934F935F936F937F938F93FD
:1024A0009F93AF93BF93EF93FF9348E950E064E9A4
:1024B00070E082E090E00E94EC04FF91EF91BF9108
:1024C000AF919F918F917F916F915F914F913F91CC
:1024D0002F910F900BBE0F900FBE0F901F9018956D
:1024E0001F920F920FB60F9211240BB60F922F93DB
:1024F0003F934F935F936F937F938F939F93AF938C
:10250000BF93EF93FF9348E850E064E870E081E008
:1025100090E00E94EC04FF91EF91BF91AF919F91E9
:102520008F917F916F915F914F913F912F910F907C
:102530000BBE0F900FBE0F901F901895CF92DF9299
:10254000EF92FF920F931F93E82FF92F05C00150D0
:1025500011092109310961F1908196239417B9F38A
:1025600005C0015011092109310911F1908196230B
:102570009413F7CFC12CD12CE12CF12C0AC08FEF92
:10258000C81AD80AE80AF80A0C151D052E053F05D9
:1025900079F080818623841791F36C2D7D2D8E2D0B
:1025A0009F2D1F910F91FF90EF90DF90CF90089596
:1025B00060E070E080E090E01F910F91FF90EF905D
:1025C000DF90CF900895FC0190911C0A903398F40D
:1025D00081E0890F80931C0A9083892F90E0FC0191
:1025E000EE0FFF1FE80FF91FE35EF54F88EB9BE04E
:1025F0009283818308958FEF80830895E2ECFAE05F
:102600001382128288EE93E0A0E0B0E08483958389
:10261000A683B78388E593E09183808385EC90E07F
:102620009587848784EC90E09787868780EC90E09C
:10263000918B808B81EC90E0938B828B82EC90E08D
:10264000958B848B86EC90E0978B868B118E128E07
:10265000138E148E84E79BE00E94E31281E79BE0D7
:102660000E94E3128EE69BE00E94E3128BE69BE061
:102670000E94E31288E69BE00E94E31285E69BE05D
:102680000E94E312EFE5FBE01182108213821282B6
:102690001582148250E040E068E673E0CF010C94AC
:1026A0009D0ACF93DF93CDB7DEB762970FB6F8944C
:1026B000DEBF0FBECDBF789484B5826084BD84B583
:1026C000816084BD85B5826085BD85B5816085BD2D
:1026D00080916E00816080936E00109281008091E5
:1026E000810082608093810080918100816080936D
:1026F0008100809180008160809380008091B10092
:1027000084608093B1008091B00081608093B000BC
:10271000809191008260809391008091910081600E
:1027200080939100809190008160809390008091CF
:10273000A10082608093A1008091A10081608093BC
:10274000A1008091A00081608093A0008091210170
:102750008260809321018091210181608093210119
:102760008091200181608093200180917A008460B3
:1027700080937A0080917A00826080937A008091C1
:102780007A00816080937A0080917A0080688093DB
:102790007A001092C100E091D20AF091D30A82E04F
:1027A0008083E091CE0AF091CF0A1082E091D00AA6
:1027B000F091D10A80E180831092DA0AE091D60A82
:1027C000F091D70A86E08083E091D40AF091D50A8F
:1027D000808180618083E091D40AF091D50A808164
:1027E00088608083E091D40AF091D50A8081806866
:1027F0008083E091D40AF091D50A80818F7D808317
:1028000062E08FE20E94290262E080E30E942902D6
:1028100062E081E30E94290262E082E30E942902D1
:1028200081E092E00E9419068EE692E00E9419066D
:1028300062E080917E020E94290261E08091DF02C5
:102840000E94290260E08091E0020E94290261E07A
:102850008091E1020E94290260E08091E2020E94E0
:10286000290260E08091DF020E94FB0160E080911C
:10287000E1020E94FB0160E08091EC020E942902CB
:1028800061E08091ED020E94290260E08091ED02FA
:102890000E94FB016091E30270E08091EE02909152
:1028A000EF020E9464046091E40270E08091F00203
:1028B0009091F1020E9464040E94A60564EF71E009
:1028C00080E090E00E948A020E94BE0B8091B70ACD
:1028D000882321F08AEF97E00E94AD07F5E04F2EA4
:1028E000512C612C712C0E94E20D8091B80A882332
:1028F00021F08091B70A811109C064E170E080E0A5
:1029000090E00E948A020E94D003EDCF86E0EEE4C0
:10291000F3E0DE01119601900D928A95E1F79E0198
:102920002F5F3F4F398B288B33E03F878091B80A68
:10293000882309F44FC0A889B989ED90FD90B98B1F
:10294000A88BF70184A5882311F184A98823E9F1D4
:102950008091B30A811139C08091B50A9091B60A6D
:10296000892B99F585A58823D1F188E3F596DF01B8
:102970001D928A95E9F70E94BC02F70160AF71AF22
:1029800082AF93AFD7019C968C9181111EC0F70145
:1029900085A581111AC0658184810E94C80A8C01B5
:1029A000181619060CF476C2D70191961C929197CD
:1029B000D3968C91D3978F5FD3968C93833028F0E6
:1029C0006CE378E0C7010E943709FF85F150FF876B
:1029D000F111ACCF68E270E080E090E092CF85A981
:1029E000811125C00E94BC02F70100AD11AD22ADDE
:1029F00033AD601B710B820B930B683873418105FB
:102A0000910508F4BFCFE1E0D701D596EC93C7015B
:102A10000E9471068EEA93E00E94A607D7018D916D
:102A20009C910E94A60788E198E00E94AD07E2E031
:102A3000DE2EBBEDEB16B2E0FB0611F074E0D72EF4
:102A4000F70187A9853008F0CAC0FBEDEF16F2E068
:102A5000FF0639F580911103813019F58091E1026B
:102A60006091E2020091F4021091F5020E94C80AFE
:102A7000F70125A5211111C01816190674F41016B6
:102A800011065CF49C01201B310B37FF03C031950C
:102A9000219531092330310594F1C7010E94D608F0
:102AA00071CFD701D6969C91D697913051F41A9652
:102AB0008C911A971B966C911B975B960D911C91AC
:102AC000D5CF923031F4F70184856585058D168D5B
:102AD000CDCF14968C91149715966C9115975796A7
:102AE0000D911C915897933009F61E968C911E9764
:102AF0001F966C911F975F960D911C91B7CFD701D0
:102B0000D6961C91D697D7960C91212F30E0A9012B
:102B1000440F551F01110DC0B701640F751FFB0154
:102B2000E85AFF4F91838083605B7F4FFB01918365
:102B30008083F701E40FF51FE05BFF4F6081718137
:102B4000861797070CF4BC01F701E40FF51FDF01AE
:102B5000A05BBF4F6D937C93E85AFF4F0190F081CB
:102B6000E02DE817F9070CF4FC014E0D5F1DDA01AA
:102B7000A85ABF4FED93FC93E61BF70B33970CF06D
:102B80008CCFF901EE0FFF1FEE0FFF1FEE0DFF1DA3
:102B9000E05CFF4F092E000CAA0BBB0B408151815A
:102BA00062817381840F951FA61FB71F8083918355
:102BB000A283B3831F5F1D1569F0D701D6961C93BE
:102BC0000E94BC02D701DC966D937D938D939C93FC
:102BD000DF97D8CEF70116AA0F5F07ABF1CFBBED99
:102BE000EB16B2E0FB0609F0CEC080913B038530C6
:102BF00008F0C9C08091B20A882379F08091EC0274
:102C00000E94D201892B49F4CE0107960E94BF078A
:102C1000811118C08BED92E041CF0E94BC0200915F
:102C20001703109118032091190330911A03601BA8
:102C3000710B820B930B683E73408105910508F47C
:102C4000A1CEE8CF8F809884A984BA848091AE0AFF
:102C50009091AF0AA091B00AB091B10AA501940178
:102C6000281B390B4A0B5B0BCA01B9010E94CE1C11
:102C700020E030E042ED53E40E94BE1E9F7720E04A
:102C800030E040E051E40E945F1F18161CF21091E2
:102C90003B03111110C08092440390924503A0920F
:102CA0004603B09247038092400390924103A09262
:102CB0004203B0924303209140033091410340917D
:102CC00042035091430382169306A406B50614F4FA
:102CD000A5019401209340033093410340934203A4
:102CE000509343038091440390914503A091460380
:102CF000B091470388159905AA05BB0514F4D501C1
:102D0000C4018093440390934503A0934603B0937A
:102D10004703BC01CD01621B730B840B950B0E9412
:102D2000CE1C20E030E042ED53E40E94BE1E9F77AF
:102D300020E030E040EA50E40E945F1F18160CF4D7
:102D400069CF80913C0390913D03A0913E03B091E7
:102D50003F03880D991DAA1DBB1D80933C039093D2
:102D60003D03A0933E03B0933F031F5F10933B03CB
:102D70000E94BC0260931703709318038093190399
:102D800090931A03FFCDF701E05CFF4F60817181E2
:102D900082819381A30192010E94EE1DD701589672
:102DA0003C932E935797BBEDEB16B2E0FB0609F070
:102DB00045C060911F037091200380912103909181
:102DC0002203A30192010E94EE1D3093F50220938D
:102DD000F40260913C0370913D0380913E03909119
:102DE0003F03A30192010E94EE1D2093AE0A30938F
:102DF000AF0A4093B00A5093B10AD7019C961C9237
:102E00009C97D3961C92C7010E94710688E3F70134
:102E1000F596DF011D928A95E9F78EEA93E00E940C
:102E2000A607F701808191810E94A60782E398E0BE
:102E30000E94AD07C7010E94F408A4CDF701EC5B26
:102E4000FF4F6081718182819381A30192010E9471
:102E5000EE1DF701348F238FE85BFF4F6081718196
:102E600082819381A30192010E94EE1DD7015E969B
:102E70003C932E935D97F701E45BFF4F6081718176
:102E800082819381A30192010E94EE1DF70130A37C
:102E9000278FB3CFF70113AA84A5811196CD85A5FD
:102EA000811193CD8789908D1816190664F49C01C1
:102EB000201B310B37FF03C031952195310941E0CB
:102EC000233031050CF440E0D70193962C91939771
:102ED0002111FFC018161906E4F4F801E81BF90BDC
:102EE000CF0102960597A8F492968C91811107C0A4
:102EF0000E94BC02F70164A375A386A397A3D70120
:102F000092968C919297853038F48F5F92968C933D
:102F100003C0D70192961C92F70111A282A18530BD
:102F2000B0F00E94BC02D70194968D909D90AD9018
:102F3000BC909797681979098A099B09683E734084
:102F40008105910520F021E0F70123A312A28091D1
:102F5000AD0A882399F18CE498E00E94A607D70176
:102F60008D919C910E94A60786E598E00E94A60795
:102F7000C8010E94A00787EB97E00E94A607F7010F
:102F80008789908D0E94A0078BE598E00E94A60794
:102F9000D70193968C9190E00E94A00783E698E079
:102FA0000E94A607F70161A170E090E080E04AE08E
:102FB0000E94320786E693E00E942507D70191968A
:102FC0008C91833008F401CD0E94BC02F70104A16A
:102FD00015A126A137A1601B710B820B930B683CD6
:102FE00071058105910508F4F0CC13A212A211A27B
:102FF000F092B60AE092B50A1092B40AFBEDEF1611
:10300000F2E0FF0609F0E6C18BE698E00E94AD070A
:103010006AE070E08091EE029091EF020E9401045C
:103020000E94BC020E946810882309F44BC00E94D1
:10303000BC026B877C878D879E87C12CB12CA12C0D
:10304000912CD12C0E94BC022B853C854D855E8540
:10305000621B730B840B950B6838734181059105D6
:1030600008F031C10E94E20D0E945A068823B1F097
:1030700083E00E948D087B018C019B01AC010E94C2
:10308000641F882309F45BC00E945A06882331F02C
:1030900061E878E08BED92E00E94370962EB70E026
:1030A0008091EE029091EF020E9401040E945A0664
:1030B000882331F065EA78E08BED92E00E943709D1
:1030C0001092FC021092B60A1092B50A1092B40A3D
:1030D0007CCC442349F191968C9181110BC00E94C4
:1030E000BC02F70164A375A386A397A313A702A745
:1030F00011A700A7D70198962D913C9102171307AD
:103100000CF49801F70131A720A782A593A5801799
:1031100091070CF4C801D7019B969C938E939A97C4
:10312000821B930B03971CF091961C9210CFF70112
:1031300081A1833008F00BCF8F5F81A308CF20E0FF
:1031400030E040EA51E4B701C8010E945F1F87FFE9
:103150000CC0D12C68E270E080E090E00E948A020E
:10316000CE2CBF2CA02E912E6DCF2C2D3B2D4A2D79
:10317000592DB701C8010E94511E4B015C0120E08E
:1031800030E0A9010E945F1F18160CF091C020E0EA
:1031900030E040EA50E4C501B4010E94C71C181693
:1031A000C4F2D39442E04D15A8F688E00E948D0841
:1031B0006B017C010E945A06882309F46FCFA70196
:1031C0009601C701B6010E94641F811167CF20E0FC
:1031D00030E040EA51E4C701B6010E945F1F87FD5D
:1031E0005DCF0E94E20D0E945A06882309F46ACF3F
:1031F00062EB70E08091EE029091EF020E94010478
:1032000084EB98E00E94A60720E030E04AE754E40F
:10321000C701B6010E94BE1E43E00E94880986E6EF
:1032200093E00E94250766E970E080E090E00E944C
:103230009210882309F446CF64E670E08091F00292
:103240009091F1020E94010464E873E080E090E054
:103250000E949210882309F435CF0E94BC026B01B2
:103260007C0110E00E94BC026C197D098E099F0947
:10327000683873418105910508F09FC00E94E20DF6
:103280000E945A06082F882309F497C06091E20231
:103290008091E1020E94C80A181619060CF458C061
:1032A00010E068E270E080E090E00E948A02DACFED
:1032B00020E030E040EA50ECC501B4010E945F1FFD
:1032C00087FD47CF6ECFBE01695F7F4F83E00E94CD
:1032D0004808882309F4E2CE8BE898E00E94A6070C
:1032E0006F81788589859A850E94760785EE96E0BC
:1032F0000E94A6076091AE0A7091AF0A8091B00A51
:103300009091B10A0E94760780EF96E00E94A6078E
:103310006F81788589859A850091AE0A1091AF0AF0
:103320002091B00A3091B10A601B710B820B930B94
:103330000E94CE1C20E030E042ED53E40E94BE1E0D
:1033400042E00E94880986E693E00E942507A6CE07
:103350002091F4023091F502821B930B029605979F
:1033600008F09ECF82E00E948D0820E030E040E02F
:1033700051E40E94C71C18160CF492CF1F5F143042
:1033800008F48FCF6FEA70E08091F0029091F10223
:103390000E940104002399F00E945A06882379F0C4
:1033A0008AED98E00E94AD071092FC0268E572E099
:1033B00080E090E00E94921085CE00E0E3CF0E9472
:1033C0005A06882389F36BEF78E08BED92E00E9438
:1033D0003709EACFD7018D919C910E94A60780E71B
:1033E00098E00E94AD076AE070E0F7018389948954
:1033F0000E9401040E94BC026B877C878D879E8798
:103400006CEB72E080E090E00E949210882309F457
:1034100059CED7018D919C910E94A60789E099E031
:103420000E94AD070E94BC024B015C01312C0E943E
:10343000BC02681979098A099B09683873418105BA
:10344000910508F03AC20E94E20D0E945A068823B4
:1034500009F433C28091AD0AF701882309F443C00F
:10346000808191810E94A6078DE199E00E94AD07BD
:10347000D7015B960D911C915C971B962C911B9725
:103480001A964C9166E179E0C7010E94CC10019731
:1034900079F5339442E0431560F5D7018D919C9105
:1034A0000E94A60787EE99E00E94AD070E94BC0229
:1034B0004B015C010E94BC02681979098A099B09C9
:1034C000603D774081059105E0F50E94E20D0E9484
:1034D0005A06882309F4F6CD6AE070E080E090E0B7
:1034E0000E948A02E7CF038D148D1016110644F056
:1034F000312C6FE070E080E090E00E948A0297CF6C
:10350000B385BA8B228433E0D32EC12C6A89822DF5
:103510000E94C80A181619063CF49801281B390B9A
:10352000233031050CF0C39469E170E080E090E055
:103530000E948A02DA94D110E9CF31E03C15C0F63E
:10354000A8CF6B857C858D859E850E946810882319
:1035500009F4B8CD62EB70E0D70153968D919C9140
:103560000E9401046CEB72E080E090E00E949210F7
:10357000882309F4A7CDF701808191810E94A607D5
:1035800084E699E00E94AD0794E0292E28ED822E72
:1035900027E0922E312C0E94E20D0E945A068823C9
:1035A00009F4A8C0D7015B960D911C915C971B96FE
:1035B0002C911B971A964C9166E179E0C7010E9405
:1035C000CC106C01F701058D168D258544856DE5C0
:1035D00079E0C7010E94CC105C01D7015F960D9184
:1035E0001C9190971F962C911F971E964C9160E00E
:1035F00077E0C7010E94CC10B1E0EB16B2E0FB0609
:10360000E9F5E1E0CE16D104C9F5FFEFAF16BF062C
:10361000C9F581309105D1F521E032126EC082E703
:1036200099E00E94AD0700EE17E00E945A06D82EDE
:10363000882309F447CD68ED77E0C8010E94942102
:10364000892B09F05FC062EB70E0D70153968D9132
:103650009C910E9401048CE299E00E94A607F70168
:10366000808191810E94A60782EA99E00E94AD07BD
:1036700063EA79E0C7010E94370924CDC114D1045F
:1036800009F43EC0A114B10409F469C1009709F41A
:10369000312CCA94CD2869F441E0A416B10461F438
:1036A00000EE17E08130910569F006EE17E0892BF6
:1036B00049F008ED17E006C0AB28D9F70DEE17E08A
:1036C000892BB9F768ED77E0C8010E949421892B16
:1036D00039F0B401C8010E949421892B09F4A5CFC7
:1036E00066E970E080E090E00E948A022A94480136
:1036F000211051CF08ED17E098CF33243394D9CF60
:10370000312CD7CFFEE6EF16F2E0FF06C9F48CE0CD
:10371000D82EC12C80917E020E94D201892B09F4FF
:10372000C3946FE070E080E090E00E948A02DA9437
:10373000D110F0CFDD24D39428E02C1508F0D12C43
:103740000E94E20D0E945A06882309F4BBCC8AEB42
:1037500099E00E94A607C8010E94A60780EC99E0A4
:103760000E94A60783EF97E0DD2021F0D701129693
:103770008D919C910E94AD0762EB70E0F701838907
:1037800094890E94010466E970E080E090E00E9464
:103790009210882309F496CC6AEA70E0D701559616
:1037A0008D919C910E94010464E873E080E090E0B8
:1037B0000E949210882309F485CC0E94BC026B877A
:1037C0007C878D879E87912C0E94BC022B853C852F
:1037D0004D855E85621B730B840B950B68387341B6
:1037E0008105910508F05DC00E94E20D0E945A0615
:1037F000882E882309F455C0D7015B960D911C9142
:103800005C971B962C911B971A964C9166E179E078
:10381000C7010E94CC106C01F701058D168D25851E
:1038200044856DE579E0C7010E94CC105C01D701A9
:103830005F960D911C9190971F962C911F971E9645
:103840004C9160E077E0C7010E94CC10CD2809F5CB
:10385000AB28F9F4892BE9F49394B4E0B915D0F4CA
:1038600070E060E0F701858996890E940104882054
:10387000D1F00E945A068823B1F08BEC99E00E94A7
:10388000A607D7018D919C910E94AD07F70111A267
:103890008DCD912C6EE170E080E090E00E948A0274
:1038A00093CF812CDDCF0E945A06882379F36BEFEA
:1038B00078E0C7010E943709E9CF62EB70E0F701B9
:1038C000838994890E9401040E945A06882309F47E
:1038D00043C064E379E0C7010E9437098CE299E0B4
:1038E0000E94A607D7018D919C910E94A60783E3B1
:1038F00099E00E94AD07F701808191810E94A6079F
:1039000084E499E00E94AD07D7015B960D911C916C
:103910005C971B962C911B971A964C9166E179E067
:10392000C7010E94CC10F701058D168D25854485B1
:103930006DE579E0C7010E94CC10D7015F960D912B
:103940001C9190971F962C911F971E964C9160E0AA
:1039500077E0C7010E94CC10F70111A2B3CB312C44
:10396000CA94CD2809F4AACEA4CE80915F0B909181
:10397000600B009711F00C941920089591110C948C
:103980009A1D803219F089508550C8F708950E9419
:10399000091D08F481E00895E89409C097FB3EF4FE
:1039A00090958095709561957F4F8F4F9F4F99238C
:1039B000A9F0F92F96E9BB279395F695879577950A
:1039C0006795B795F111F8CFFAF4BB0F11F460FFCA
:1039D0001BC06F5F7F4F8F4F9F4F16C0882311F022
:1039E00096E911C0772321F09EE8872F762F05C036
:1039F000662371F096E8862F70E060E02AF09A95D1
:103A0000660F771F881FDAF7880F9695879597F9C5
:103A10000895990F0008550FAA0BE0E8FEEF16165F
:103A20001706E807F907C0F012161306E407F507B2
:103A300098F0621B730B840B950B39F40A2661F026
:103A4000232B242B252B21F408950A2609F4A140C9
:103A5000A6958FEF811D811D08950E94401D0C9435
:103A6000B41D0E94A61D38F00E94AD1D20F09523C4
:103A700011F00C949D1D0C94A31D11240C94E81DB1
:103A80000E94C51D70F3959FC1F3950F50E0551F1F
:103A9000629FF001729FBB27F00DB11D639FAA27A3
:103AA000F00DB11DAA1F649F6627B00DA11D661FF2
:103AB000829F2227B00DA11D621F739FB00DA11D13
:103AC000621F839FA00D611D221F749F3327A00DCD
:103AD000611D231F849F600D211D822F762F6A2F69
:103AE00011249F5750409AF0F1F088234AF0EE0FCE
:103AF000FF1FBB1F661F771F881F91505040A9F7FB
:103B00009E3F510580F00C949D1D0C94E81D5F3F75
:103B1000E4F3983ED4F3869577956795B795F79536
:103B2000E7959F5FC1F7FE2B880F911D96958795AE
:103B300097F9089599278827089597F99F6780E84E
:103B400070E060E008959FEF80EC089500240A94EF
:103B50001616170618060906089500240A94121668
:103B60001306140605060895092E0394000C11F49B
:103B7000882352F0BB0F40F4BF2B11F460FF04C048
:103B80006F5F7F4F8F4F9F4F089557FD9058440FA1
:103B9000551F59F05F3F71F04795880F97FB991FAC
:103BA00061F09F3F79F08795089512161306140669
:103BB000551FF2CF4695F1DF08C0161617061806F6
:103BC000991FF1CF86957105610508940895E894D1
:103BD000BB2766277727CB0197F90895052E97FB1A
:103BE0001EF400940E94051E57FD07D00E94201E5F
:103BF00007FC03D04EF40C94051E5095409530956B
:103C000021953F4F4F4F5F4F089590958095709548
:103C100061957F4F8F4F9F4F08950E94421EA59F31
:103C2000900DB49F900DA49F800D911D11240895B7
:103C3000B7FF0C940D1E0E940D1E821B930B08955E
:103C4000A1E21A2EAA1BBB1BFD010DC0AA1FBB1FA0
:103C5000EE1FFF1FA217B307E407F50720F0A21B12
:103C6000B30BE40BF50B661F771F881F991F1A947F
:103C700069F760957095809590959B01AC01BD01A9
:103C8000CF010895A29FB001B39FC001A39F700D03
:103C9000811D1124911DB29F700D811D1124911D54
:103CA00008955058BB27AA270E94691E0C94B41D82
:103CB0000E94A61D38F00E94AD1D20F039F49F3FF0
:103CC00019F426F40C94A31D0EF4E095E7FB0C9474
:103CD0009D1DE92F0E94C51D58F3BA17620773078F
:103CE0008407950720F079F4A6F50C94E71D0EF4EF
:103CF000E0950B2EBA2FA02D0B01B90190010C01FC
:103D0000CA01A0011124FF27591B99F0593F50F413
:103D1000503E68F11A16F040A22F232F342F44276B
:103D2000585FF3CF469537952795A795F040539563
:103D3000C9F77EF41F16BA0B620B730B840BBAF033
:103D40009150A1F0FF0FBB1F661F771F881FC2F79E
:103D50000EC0BA0F621F731F841F48F487957795B2
:103D60006795B795F7959E3F08F0B0CF9395880F6C
:103D700008F09927EE0F9795879508950E94D21E17
:103D80000C94B41D0E94AD1D58F00E94A61D40F079
:103D900029F45F3F29F00C949D1D51110C94E81DEE
:103DA0000C94A31D0E94C51D68F39923B1F35523FC
:103DB00091F3951B550BBB27AA276217730784073E
:103DC00038F09F5F5F4F220F331F441FAA1FA9F3D4
:103DD00035D00E2E3AF0E0E832D091505040E695C2
:103DE000001CCAF72BD0FE2F29D0660F771F881F23
:103DF000BB1F261737074807AB07B0E809F0BB0B16
:103E0000802DBF01FF2793585F4F3AF09E3F510529
:103E100078F00C949D1D0C94E81D5F3FE4F3983EF0
:103E2000D4F3869577956795B795F7959F5FC9F712
:103E3000880F911D9695879597F90895E1E0660F93
:103E4000771F881FBB1F621773078407BA0720F00C
:103E5000621B730B840BBA0BEE1F88F7E095089575
:103E60000E94CD1D88F09F5798F0B92F9927B75120
:103E7000B0F0E1F0660F771F881F991F1AF0BA950E
:103E8000C9F714C0B13091F00E94E71DB1E0089568
:103E90000C94E71D672F782F8827B85F39F0B93F5A
:103EA000CCF3869577956795B395D9F73EF49095C1
:103EB0008095709561957F4F8F4F9F4F08950E9419
:103EC000091D08F48FEF08950E94091D880B990BB6
:103ED0000895991B79E004C0991F961708F0961B66
:103EE000881F7A95C9F780950895EE0FFF1F881FE8
:103EF0008BBF0790F691E02D19940F931F93CF93EA
:103F0000DF938230910510F482E090E0E091790B2C
:103F1000F0917A0B30E020E0B0E0A0E0309799F427
:103F20002115310509F44AC0281B390B243031050D
:103F3000D8F58A819B816115710589F1FB01938315
:103F40008283FE0111C04081518102811381481793
:103F50005907E0F04817590799F4109761F0129645
:103F60000C93129713961C933296CF01DF91CF9149
:103F70001F910F9108950093790B10937A0BF4CF52
:103F80002115310551F04217530738F0A901DB0123
:103F90009A01BD01DF01F801C1CFEF01F9CF909384
:103FA0007A0B8093790BCDCFFE01E20FF31F819343
:103FB00091932250310939832883D7CF2091770BF1
:103FC0003091780B232B41F420914A0330914B031D
:103FD0003093780B2093770B20914803309149035D
:103FE0002115310541F42DB73EB740914C03509156
:103FF0004D03241B350BE091770BF091780BE21702
:10400000F307A0F42E1B3F0B2817390778F0AC01FB
:104010004E5F5F4F2417350748F04E0F5F1F5093D8
:10402000780B4093770B819391939FCFF0E0E0E082
:104030009CCFCF93DF930097E9F0FC013297138276
:104040001282A091790BB0917A0BED0130E020E063
:104050001097A1F420813181820F931F2091770B5B
:104060003091780B2817390709F061C0F093780B6D
:10407000E093770BDF91CF910895EA01CE17DF0728
:10408000E8F54A815B819E0141155105B1F7E901CF
:10409000FB83EA8349915991C40FD51FEC17FD07A3
:1040A00061F4808191810296840F951FE9019983C3
:1040B0008883828193819B838A83F0E0E0E012967B
:1040C0008D919C9113970097B9F52D913C91119783
:1040D000CD010296820F931F2091770B3091780BC0
:1040E0002817390739F6309751F510927A0B10924C
:1040F000790BB093780BA093770BBCCFD383C2839B
:1041000040815181840F951FC817D90761F44E5F14
:104110005F4F88819981480F591F518340838A815D
:104120009B81938382832115310509F0B0CFF093F1
:104130007A0BE093790B9ECFFD01DC01C0CF138297
:104140001282D7CF4F925F926F927F928F929F92FF
:10415000AF92BF92CF92DF92EF92FF920F931F9395
:10416000CF93DF938C01009799F4CB01DF91CF912E
:104170001F910F91FF90EF90DF90CF90BF90AF9085
:104180009F908F907F906F905F904F900C947D1FC9
:10419000FC01E60FF71F9C0122503109E217F307DB
:1041A00008F4AEC0D901CD91DC911197C617D7079D
:1041B00020F1C530D10578F0CE0104978617970716
:1041C00050F0C61BD70B2297C193D1936D937C936C
:1041D000CF010E941920C801DF91CF911F910F914B
:1041E000FF90EF90DF90CF90BF90AF909F908F9017
:1041F0007F906F905F904F9008955B01AC1ABD0A5D
:104200004C018C0E9D1EA091790BB0917A0B512C14
:10421000412CF12CE12C109731F58091770B909186
:10422000780B8815990509F05CC04616570608F00A
:1042300058C08091480390914903009741F48DB78D
:104240009EB740914C0350914D03841B950BE8178A
:10425000F90708F055C0F093780BE093770BF9015C
:1042600071836083B8CF8D919C91119712966C9059
:10427000129713967C901397A815B90559F56C0100
:1042800042E0C40ED11CCA14DB0420F1AC014A196F
:104290005B09DA011296159780F06282738251836E
:1042A0004083D9016D937C93E114F10471F0D7013F
:1042B0001396FC93EE9312978ECF22968C0F9D1F30
:1042C000F90191838083F301EFCFF0937A0BE093B0
:1042D000790B81CF4816590608F42C017D01D301D2
:1042E0009ACFCB010E947D1F7C01009749F0AE015F
:1042F000B8010E948B21C8010E94192087016BCF51
:1043000010E000E068CF9111089581568A5108F4B9
:10431000805285580895FB01DC0102C001900D9286
:1043200041505040D8F70895FB01DC018D91019078
:1043300080190110D9F3990B0895FB01DC0101905C
:104340000D920020E1F7089511E0C7E3D1E000E00D
:1043500006C0802FFE010E94751F2196011DC833E3
:10436000D10780E00807A9F7F894FFCF01F809F812
:1043700009090A00000B0C161718292A2B00000047
:10438000740B710BFFFFFFFFFFFFFFFFFFFF00003C
:10439000000000000000000000000000000000001D
:1043A000000000000000000000000000000000000D
:1043B00000000000000000000000000000000000FD
:1043C00000000000000000000000000000000000ED
:1043D00000000000000000000000000A060A191A90
:1043E00000001B1C1D1E1F2C2D2E2000006E0B6BB1
:1043F0000BFFFFFFFFFFFFFFFFFFFF0000000000BC
:1044000000000000000000000000000000000000AC
:10441000000000000000000000000000000000009C
:10442000000000000000000000000000000000008C
:10443000000000000000000000000000000000007C
:1044400000000000000000F508F5082122272823BD
:1044500024000000000000002526680B650BFFFF0C
:10446000FFFFFFFFFFFFFFFF000000000000000054
:10447000000000000000000000000000000000003C
:10448000000000000000000000000000000000002C
:10449000000000000000000000000000000000001C
:1044A000000000000000000000000000000000000C
:1044B0000000000000007B0B800001026E02DB02A6
:1044C000000000005E03C802F502B00326030403E7
:1044D00018030D0A004552524F523A4858373131AD
:1044E0005F4E4F545F52454144595F444F55545FAE
:1044F00048494748004552524F523A48583731319F
:104500005F444F55545F4E4F545F484947485F41A1
:10451000465445525F52454144005245434F56452B
:1045200052593A003B53544154453A574149544932
:104530004E475F464F525F454D5054590046554CCB
:104540004C003B574F524B494E473A003B42494E75
:104550003A004D51363A5741524E494E47004D515F
:10456000363A434C454152004641554C543A006E50
:10457000616E00696E66006F7666004552524F525A
:104580003A554E535441424C455F43414C49425287
:104590004154494F4E5F545249473A0043414C49B8
:1045A00042524154494F4E3A52454D4F56455F4F46
:1045B000424A45435453004D4F44453A504C4153B1
:1045C0005449433A00454E41424C4544003B4D4519
:1045D00054414C3A003B50415045523A0043414C03
:1045E0004942524154494F4E3A504C415354494329
:1045F0005F454D5054595F434D3A0043414C494249
:10460000524154494F4E3A504C41535449435F53E1
:10461000495A455F424F54544F4D5F434D3A004312
:10462000414C4942524154494F4E3A504C415354E7
:1046300049435F53495A455F4D4944444C455F43A4
:104640004D3A0043414C4942524154494F4E3A5031
:104650004C41535449435F53495A455F544F505F4F
:10466000434D3A0043414C4942524154494F4E3A1E
:104670004D4554414C5F454D5054595F434D3A00B0
:1046800043414C4942524154494F4E3A4D455441A1
:104690004C5F53495A455F424F54544F4D5F434D11
:1046A0003A0043414C4942524154494F4E3A4D45DC
:1046B00054414C5F53495A455F4D4944444C455F12
:1046C000434D3A0043414C4942524154494F4E3ABE
:1046D0004D4554414C5F53495A455F544F505F43D9
:1046E0004D3A0043414C4942524154494F4E3A5091
:1046F000415045525F544F505F454D5054595F43B0
:104700004D3A0043414C4942524154494F4E3A5070
:10471000415045525F424F54544F4D5F454D5054A8
:10472000595F434D3A0043414C4942524154494F2D
:104730004E3A50415045525F544152455F524157A5
:104740003A004552524F523A50415045525F5343FE
:10475000414C455F4E4F545F5245414459004341DF
:104760004C4942524154494F4E3A4F4B004D414300
:1047700048494E453A53544152544544004D4143F3
:1047800048494E453A49444C45004552524F523AE9
:1047900043414C4942524154494F4E5F4641494C76
:1047A00045440044454255473A4F4E004445425522
:1047B000473A4F464600594553004E4F0045525226
:1047C0004F523A4E4F545F43414C49425241544537
:1047D00044004D414348494E453A53544F5050458B
:1047E000440052455345543A4F4B0052554E4E49A2
:1047F0004E47004552524F520043414C49425241AC
:104800005445004552524F523A434F4D5041525435
:104810004D454E545F42555359004445425547203B
:104820004F4E004445425547204F464600534341B2
:104830004C450050415045523A5343414C455F521C
:1048400041573A003B544152455F56414C49443A26
:10485000003B544152455F5241573A003B53494750
:104860004E45445F4752414D533A0053544F500018
:1048700052455345540053544154555300535441E9
:104880005455533A003B504C41535449435F434DB8
:104890003A003B504C41535449435F53495A455F9A
:1048A000434D3A003B4D4554414C5F434D3A003B2C
:1048B0004D4554414C5F53495A455F434D3A003B87
:1048C00050415045525F544F505F434D3A003B506A
:1048D000415045525F424F54544F4D5F434D3A0053
:1048E0003B4D4554414C5F53454E534F523A003B6C
:1048F00050415045525F5343414C453A0045525256
:104900004F523A554E4B4E4F574E5F434F4D4D41D0
:104910004E440053495A494E473A003B4C45564590
:104920004C3A003B454D5054595F434D3A003B5281
:10493000454144494E47535F434D3A003B53544130
:1049400054453A00494E56414C4944004C41524767
:1049500045004D454449554D00534D414C4C005286
:10496000454A4543540052564D3A504C41535449E0
:10497000435F4D4554414C5F50415045525F524555
:10498000414459003B53544154453A4155544F5FBB
:10499000524543414C4942524154494E47003B53D2
:1049A000544154453A4F4B00454E5452414E4345B5
:1049B0005F53454E534F5200454E5452414E43456E
:1049C0003A003B434D3A003B41524D45443A003B8F
:1049D000434F554E543A0050415045523A4F424A87
:1049E0004543545F4445544543544544004C4F416E
:1049F000445F43454C4C0050415045523A5745495D
:104A00004748545F54494D454F55545F5241573ABA
:104A1000005745494748545F54494D454F55540048
:104A200053495A453A5745494748543B4D415445E7
:104A30005249414C3A50415045523B5745494748ED
:104A4000545F4B473A00424F54544C453A434C450F
:104A5000415245443B434F4D504152544D454E54B5
:104A60003A504150455200434C4541525F54494DE4
:104A7000454F5554003A57414954494E475F464FB8
:104A8000525F424F54544F4D003A415252495641A1
:104A90004C5F434845434B004552524F523A005FEA
:104AA0004152524956414C5F54494D454F5554006F
:104AB0003A4152524956414C5F53454E534F525F13
:104AC000534E415053484F54004D4944444C4500C7
:104AD0003A53495A494E475F53544152540053493F
:104AE0005A494E473A504C41535449433B46414C36
:104AF0004C4241434B3A4C415247455F4D49444437
:104B00004C455F554E52454C4941424C45005F492A
:104B10004E56414C49445F53454E534F525F5041AE
:104B2000545445524E0053495A453A003B4D415466
:104B3000455249414C3A00424F54544C453A434C3B
:104B400045415245443B434F4D504152544D454ED3
:104B5000543A003A424F54544C455F534554544CD8
:104B6000494E4700504C4153544943004D45544130
:064B70004C0043414E0021
:020000040003F7
:10E000000D9489F10D94B2F10D94B2F10D94B2F129
:10E010000D94B2F10D94B2F10D94B2F10D94B2F1F0
:10E020000D94B2F10D94B2F10D94B2F10D94B2F1E0
:10E030000D94B2F10D94B2F10D94B2F10D94B2F1D0
:10E040000D94B2F10D94B2F10D94B2F10D94B2F1C0
:10E050000D94B2F10D94B2F10D94B2F10D94B2F1B0
:10E060000D94B2F10D94B2F10D94B2F10D94B2F1A0
:10E070000D94B2F10D94B2F10D94B2F10D94B2F190
:10E080000D94B2F10D94B2F10D94B2F10D94B2F180
:10E090000D94B2F10D94B2F10D94B2F10D94B2F170
:10E0A0000D94B2F10D94B2F10D94B2F10D94B2F160
:10E0B0000D94B2F10D94B2F10D94B2F10D94B2F150
:10E0C0000D94B2F10D94B2F10D94B2F10D94B2F140
:10E0D0000D94B2F10D94B2F10D94B2F10D94B2F130
:10E0E0000D94B2F141546D656761323536300041AF
:10E0F000726475696E6F206578706C6F72657220DE
:10E1000073746B3530305632206279204D4C530099
:10E11000426F6F746C6F616465723E004875683F52
:10E1200000436F6D70696C6564206F6E203D200048
:10E130004350552054797065202020203D20005FF9
:10E140005F4156525F415243485F5F3D2000415658
:10E1500052204C696243205665723D20004743437C
:10E160002056657273696F6E203D20004350552024
:10E1700049442020202020203D20004C6F7720663D
:10E18000757365202020203D20004869676820665F
:10E190007573652020203D200045787420667573D6
:10E1A00065202020203D20004C6F636B2066757336
:10E1B000652020203D20004D617220203720323024
:10E1C000313300312E362E3800342E332E350056A2
:10E1D00023202020414444522020206F7020636F70
:10E1E00064652020202020696E73747275637469E1
:10E1F0006F6E2061646472202020496E74657272B3
:10E20000757074006E6F20766563746F7200726A49
:10E210006D702020006A6D70200057686174207056
:10E220006F72743A00506F7274206E6F7420737541
:10E2300070706F72746564004D7573742062652030
:10E2400061206C6574746572002000577269747483
:10E25000696E672045450052656164696E672045B7
:10E26000450045452065727220636E743D00504F35
:10E27000525400303D5A65726F2061646472003FF1
:10E280003D43505520737461747300403D454550C3
:10E29000524F4D207465737400423D426C696E6B41
:10E2A000204C454400453D44756D70204545505215
:10E2B0004F4D00463D44756D7020464C415348001B
:10E2C000483D48656C70004C3D4C69737420492F83
:10E2D0004F20506F72747300513D51756974005234
:10E2E0003D44756D702052414D00563D73686F7707
:10E2F00020696E7465727275707420566563746FF0
:10E30000727300593D506F727420626C696E6B00BD
:10E310002A0011241FBECFEFD1E2DEBFCDBF01E046
:10E320000CBF12E0A0E0B2E0EEE1FDEF03E00BBFB6
:10E3300002C007900D92A030B107D9F712E0A0E01B
:10E34000B2E001C01D92AE30B107E1F70F9460F367
:10E350000D948DFE01E20EBF0FEF0DBF11241FBE05
:10E360000D9460F30D9400F020E030E040ED57E0B4
:10E3700005C0FA013197F1F72F5F3F4F2817390792
:10E38000C0F308959C01260F311DC901A0E0B0E043
:10E390002F5F3F4FABBFFC018791882361F08093D3
:10E3A000C6008091C00086FFFCCF8091C0008064D1
:10E3B0008093C000EACF08958DE08093C6008091DD
:10E3C000C00086FFFCCF8091C00080648093C000B5
:10E3D0008AE08093C6008091C00086FFFCCF8091C8
:10E3E000C00080648093C00008950F94C2F10F9420
:10E3F000DCF10895FC019081992359F09093C600B7
:10E400008091C00086FFFCCF8091C0008064809323
:10E41000C0003196992379F70895282F982F929567
:10E420009F70892F805D8A3308F0895F8093C600D2
:10E430008091C00086FFFCCF8091C00080648093F3
:10E44000C000822F8F70982F905D9A3308F0995FEB
:10E450009093C6008091C00086FFFCCF8091C000E1
:10E4600080648093C00008959C01FB01853691056E
:10E470001CF46330710594F0C90164E670E00F94F8
:10E480002EFE605D7F4F6093C6008091C00086FFC6
:10E49000FCCF8091C00080648093C0002B30310598
:10E4A00014F43297B4F0C90164E670E00F942EFEC4
:10E4B0006AE070E00F942EFE605D7F4F6093C600AF
:10E4C0008091C00086FFFCCF8091C0008064809363
:10E4D000C000C9016AE070E00F942EFEC0968093E0
:10E4E000C6008091C00086FFFCCF8091C000806490
:10E4F0008093C00008951F93182F8EE692EE60E07F
:10E500000F94C2F11093C6008091C00086FFFCCF2B
:10E510008091C00080648093C0000F94DCF11F9153
:10E5200008952F923F924F925F926F927F928F92B7
:10E530009F92AF92BF92CF92DF92EF92FF920F9392
:10E540001F93DF93CF93CDB7DEB762970FB6F894E2
:10E55000DEBF0FBECDBF382E622ECA01DB015C01CB
:10E560006D01772420E2222E2E010894411C511CBB
:10E570008BC081E0A81680E0B80681E0C80680E084
:10E58000D80628F0C601AA27BB270F940DF2BB2797
:10E59000AD2D9C2D8B2D0F940DF28A2D0F940DF225
:10E5A0002092C6008091C00086FFFCCF8091C00001
:10E5B00080648093C0009DE29093C6008091C0006B
:10E5C00086FFFCCF8091C00080648093C0002092C1
:10E5D000C6008091C00086FFFCCF8091C00080649F
:10E5E0008093C00019828601750188249924A1E0D6
:10E5F0003A1651F03A1620F0B2E03B1661F409C029
:10E600000BBFF701779007C0C7010F9477FE782EF4
:10E6100002C0F7017080872D0F940DF22092C60082
:10E620008091C00086FFFCCF8091C0008064809301
:10E63000C000872D8052F401EF70F0708F3520F408
:10E64000E40DF51D708204C0E40DF51D8EE280839B
:10E650000894E11CF11C011D111D0894811C911CE2
:10E6600090E18916910409F0C2CF80E190E0A0E02A
:10E67000B0E0A80EB91ECA1EDB1E198AC2010F9493
:10E68000FAF10F94DCF16A94662009F072CF629679
:10E690000FB6F894DEBF0FBECDBFCF91DF911F91B3
:10E6A0000F91FF90EF90DF90CF90BF90AF909F9031
:10E6B0008F907F906F905F904F903F902F90089534
:10E6C0002F923F924F925F926F927F928F929F9282
:10E6D000AF92BF92CF92DF92EF92FF920F931F9370
:10E6E000DF93CF93CDB7DEB7CD53D1400FB6F894BB
:10E6F000DEBF0FBECDBF01E20EBF0FEF0DBF94B75F
:10E70000F894A89514BE80916000886180936000A1
:10E7100010926000789493FF05C0E0910002F091A0
:10E7200001021995279A2F9A8091C00082608093E8
:10E73000C00080E18093C40088E18093C1000000A4
:10E74000EE24FF24870144E0A42EB12CCC24DD2448
:10E7500024C0C5010197F1F70894E11CF11C011DCB
:10E76000111D21E2E2162EE4F20620E0020720E06D
:10E77000120718F031E0C32ED12CC801B70127ECE5
:10E780003BE140E050E00F9441FE611571058105C9
:10E79000910519F485B1805885B98091C00087FD35
:10E7A00003C0C114D104A9F2A6014F5F5F4FC25E3E
:10E7B000DE4F59834883CE51D140C25EDE4F8881FF
:10E7C0009981CE51D140019711F00D9410FEC05D9A
:10E7D000DE4F19821882C053D14060E0C15DDE4F28
:10E7E0001882CF52D14088249924C35DDE4F19820C
:10E7F0001882CD52D140C05EDE4F188219821A8233
:10E800001B82C052D140CE5CDE4F188219821A8220
:10E810001B82C253D140EE24FF2487010BBFF701B6
:10E8200007911691C45CDE4F19830883CC53D14005
:10E830000D940BFEC25EDE4F28813981CE51D1404E
:10E840002130310509F52091C600C25EDE4F1982E4
:10E850001882CE51D14022C02F5F3F4F4F4F5F4FA4
:10E86000213082E138078AE7480780E0580780F0C6
:10E87000C45CDE4FE881F981CC53D140EF5FFF4F9C
:10E8800019F0EE27FF27099420E030E040E050E047
:10E890008091C00087FFE0CF2091C600C35DDE4FAE
:10E8A00048815981CD52D1404F5F5F4FC35DDE4FEC
:10E8B00059834883CD52D140213209F063C64A3092
:10E8C000510508F05FC60894811C911C53E0851621
:10E8D000910409F059C600E010E018C081E280936D
:10E8E000C6008091C00086FFFCCF8091C00080648C
:10E8F0008093C0002F5F3F4F2931310579F70F9486
:10E90000DCF10F5F1F4F0530110519F020E030E0FA
:10E91000E5CF10920A0210920B0210920C02109294
:10E920000D02109206021092070210920802109235
:10E930000902109202021092030210920402109235
:10E9400005028FEE90EE60E00F94F5F180E191EE1C
:10E9500060E00F94C2F18091C00087FFFCCF9091DE
:10E96000C600903608F09F759032B8F09093C600BC
:10E970008091C00086FFFCCF8091C00080648093AE
:10E98000C000A0E2A093C6008091C00086FFFCCF2B
:10E990008091C00080648093C000983409F4D7C18E
:10E9A0009934B8F4923409F459C1933458F490333B
:10E9B00019F1903308F4E3C59F33A1F1903409F0C5
:10E9C000DEC5BDC0953409F470C1963409F0D7C5D1
:10E9D00098C1923509F42BC2933538F49C3409F46C
:10E9E000F5C1913509F0CBC518C2963509F445C279
:10E9F000993509F0C4C567C483E792EE62E00F94CD
:10EA0000F5F110920602109207021092080210927D
:10EA1000090210920A0210920B0210920C0210923C
:10EA20000D0213C18FE792EE62E00F94F5F18FEEC5
:10EA300090EE60E00F94F5F181E291EE60E00F94CA
:10EA4000C2F187EB91EE60E00F94F5F180E391EE77
:10EA500060E00F94C2F184EE90EE60E00F94F5F167
:10EA60008FE391EE60E00F94C2F186E090E061E008
:10EA700070E00F9434F20F94DCF18DE591EE60E0DC
:10EA80000F94C2F189EC91EE60E00F94F5F18EE401
:10EA900091EE60E00F94C2F183EC91EE60E00F9490
:10EAA000F5F18CE691EE60E00F94C2F18EE10F94E7
:10EAB0000DF288E90F940DF281E00F940DF20F949E
:10EAC000DCF18BE791EE60E00F94C2F119E0E0E039
:10EAD000F0E010935700E4918E2F0F940DF20F94F5
:10EAE000DCF18AE891EE60E00F94C2F1E3E0F0E03F
:10EAF00010935700E4918E2F0F940DF20F94DCF1D8
:10EB000089E991EE60E00F94C2F1E2E0F0E0109349
:10EB10005700E4918E2F0F940DF20F94DCF188EAE8
:10EB200091EE60E00F94C2F1E1E0F0E01093570045
:10EB30001491812F0F940DF20F94DCF107CF8BE825
:10EB400092EE62E00F94F5F18BE492EE60E00F94A8
:10EB5000F5F10F94DCF100E010E019C0C8016F2D51
:10EB60000F947FFEFF2031F489E492EE60E00F9471
:10EB7000C2F10BC0F092C6008091C00086FFFCCFAE
:10EB80008091C00080648093C0000F5F1F4FC80158
:10EB900081519F41A0E0B0E0ABBFFC01F790BAE229
:10EBA000FB1621F0E2E000301E07C1F60F94DCF105
:10EBB0000F94DCF187E592EE60E00F94F5F10F948D
:10EBC000DCF1CC24DD2400E010E01EC0C8010F946D
:10EBD00077FEF82E882331F489E492EE60E00F94FA
:10EBE000C2F10BC08093C6008091C00086FFFCCFAD
:10EBF0008091C00080648093C000FE1419F00894D6
:10EC0000C11CD11C0F5F1F4FC80181519F41A0E063
:10EC1000B0E0ABBFFC01E790FAE2EF1621F022E092
:10EC20000030120799F60F94DCF10F94DCF182E6C4
:10EC300092EE60E00F94C2F1C60161E070E00F94C3
:10EC400034F20F94DCF10F94DCF110920202109276
:10EC50000302109204021092050278CE89E992EE26
:10EC600062E00F94F5F1279A2F9A16C02F9880E052
:10EC700090E0E0EDF7E03197F1F7019684369105E9
:10EC8000C1F72F9A80E090E0E0EDF7E03197F1F7DF
:10EC9000019684369105C1F78091C00087FFE6CFC9
:10ECA0008091C00087FFFCCF64C485EA92EE62E0E9
:10ECB0000F94F5F140910202509103026091040219
:10ECC0007091050281E020E10F9491F2809102029F
:10ECD00090910302A0910402B091050280509F4FD1
:10ECE000AF4FBF4F8093020290930302A0930402A0
:10ECF000B093050280509041A040B04008F426CE69
:10ED0000A4CF83EB92EE62E00F94F5F140910602FE
:10ED100050910702609108027091090280E020E1A1
:10ED20000F9491F28091060290910702A09108023F
:10ED3000B091090280509F4FAF4FBF4F80930602A2
:10ED400090930702A0930802B0930902FFCD80ECD4
:10ED500092EE62E00F94F5F183E792EE60E00F949B
:10ED6000F5F18FE792EE60E00F94F5F18BE892EE0B
:10ED700060E00F94F5F189E992EE60E00F94F5F10F
:10ED800085EA92EE60E00F94F5F183EB92EE60E09D
:10ED90000F94F5F180EC92EE60E00F94F5F187ECC2
:10EDA00092EE60E00F94F5F188ED92EE60E00F9442
:10EDB000F5F18FED92EE60E00F94F5F18AEE92EEB0
:10EDC00060E00F94F5F183E093EEBDCD87EC92EE19
:10EDD00062E00F94F5F181E40F947BF282E40F94EA
:10EDE0007BF283E40F947BF284E40F947BF285E45E
:10EDF0000F947BF286E40F947BF287E40F947BF20E
:10EE000088E40F947BF28AE40F947BF28BE40F94F6
:10EE10007BF28CE40F947BF299CD88ED92EE62E068
:10EE20000F94F5F1772473948824992409C48FED05
:10EE300092EE62E00F94F5F140910A0250910B02BC
:10EE400060910C0270910D0282E020E10F9491F22A
:10EE500080910A0290910B02A0910C02B0910D02D8
:10EE600080509F4FAF4FBF4F80930A0290930B0289
:10EE7000A0930C02B0930D0269CD8AEE92EE62E08F
:10EE80000F94F5F184EE90EE60E00F94F5F18FECC5
:10EE900091EE60E00F94F5F1662477244301CC5D98
:10EEA000DE4F19821882C452D140D401C301B695F5
:10EEB000A79597958795CA5DDE4F88839983AA8326
:10EEC000BB83C652D140CC5DDE4FA881B981C4520C
:10EED000D1401196CC5DDE4FB983A883C452D14096
:10EEE000CD0162E070E00F9434F2B0E2B093C6005E
:10EEF0008091C00086FFFCCF8091C0008064809329
:10EF0000C000EDE2E093C6008091C00086FFFCCF18
:10EF10008091C00080648093C000F0E2F093C6004E
:10EF20008091C00086FFFCCF8091C00080648093F8
:10EF3000C000CA5DDE4FE880F9800A811B81C6529D
:10EF4000D140BB27A12F902F8F2D0F940DF2CA5DBA
:10EF5000DE4F8881C652D1400F940DF2B0E2FB2EF5
